:100000000000012075040000B5040000B5040000E4
:10001000B5040000B5040000B504000000000000B5
:10002000000000000000000000000000B504000017
:10003000B504000000000000B5040000B504000095
:10004000B504000080B5A2B000AF78600C4A07F19B
:10005000080311468022184600F02EFA7B681F2BF9
:1000600007D87B689B0007F18802134453F8803C53
:1000700001E04FF0FF3318468837BD4680BD00BF12
:10008000F405000080B588B000AF78600123FB6103
:100090000123BB6100237B6100233B610023FB60E4
:1000A0007868FFF7CFFF0346BB60BB695A00FB6966
:1000B0001A437B699B001A433B691B021A43FB6886
:1000C0001B041A43BB681A6000BF2037BD4680BDC1
:1000D00080B485B000AF7860054BFB6001227B687F
:1000E0009A40FB681A6000BF1437BD4680BC704759
:1000F0000805005080B485B000AF7860054BFB6008
:1001000001227B689A40FB681A6000BF1437BD4625
:1001100080BC70470C05005080B48BB000AF786095
:10012000194B7B627B6A00221A60184B3B623B6A68
:1001300003221A60164BFB61FB6900221A604FF420
:100140007A53BB61104B7B617B68BA6902FB03F297
:100150007B691A600F4B3B613B6900221A600E4BB2
:10016000FB60FB6801221A600C4BBB60BB6801227C
:100170001A6000BF3B691B68002BFBD000BF00BFAB
:100180002C37BD4680BC7047408500400885004044
:1001900010850040408100400C80004000800040FD
:1001A00080B584B000AFF860B9607A603B60F868F1
:1001B000FFF768FFF868FFF78BFF7868FFF762FFCB
:1001C0007868FFF797FF3868FFF75CFF3868FFF73C
:1001D0007FFF00BF1037BD4680BD80B584B000AF43
:1001E0000346FB711C20FFF785FF0023FB6022E024
:1001F0000420FFF77FFFFA79FB68C3F1070322FAB7
:1002000003F303F00103002B03D00320FFF760FF8B
:1002100002E00320FFF76EFF0420FFF76BFF0120D1
:10022000FFF77AFF0420FFF753FF0120FFF774FF69
:10023000FB680133FB60FB68072BD9DD0320FFF768
:1002400059FF0420FFF744FF1C20FFF741FF00BFC8
:100250001037BD4680BD80B584B000AF786039608E
:100260000023FB6009E0FB687A6813441B7818469A
:10027000FFF7B3FFFB680133FB60FB683A689A4203
:10028000F1D800BF00BF1037BD4680BD80B400AFBD
:1002900000BFBD4680BC704780B500AF1E20FFF791
:1002A00029FF0F20FFF738FF1E20FFF711FF022064
:1002B000FFF732FF00BF80BD80B500AF1D20FFF704
:1002C00019FF00BF80BD80B500AF1D20FFF700FF04
:1002D00000BF80BD90B585B000AF0446084611460A
:1002E0001A462346FB710346BB710B467B711346CE
:1002F0003B71FB791B12DBB23B73FB797B737B7920
:100300001B12DBB2BB737B79FB73BB791B12DBB2B5
:100310003B72BB797B723B791B12DBB2BB723B79C0
:10032000FB72FFF7C9FF2A20FFF757FFFFF7CBFF4C
:1003300007F10C0304211846FFF78DFFFFF7BCFF00
:100340002B20FFF74AFFFFF7BEFF07F10803042148
:100350001846FFF780FF00BF1437BD4690BD80B53B
:1003600086B000AF1120FFF78DFEF0237B82F023D3
:100370003B821D20FFF786FE1E20FFF783FE04232D
:100380000322FF211C20FFF70BFF3220FFF7C4FEE2
:10039000FFF782FFFFF790FF0120FFF71EFF962077
:1003A000FFF7BAFE1120FFF718FF0A20FFF7B4FE8F
:1003B0003A20FFF712FFFFF786FF5520FFF70DFFEA
:1003C0000A20FFF7A9FEFFF777FF3620FFF705FFAA
:1003D000FFF779FF0020FFF700FF7B8ADAB23B8A44
:1003E000DBB200210020FFF775FFFFF765FF292032
:1003F000FFF7F3FE1320FFF7F0FE2120FFF7EDFEDD
:100400000A20FFF789FEFFF757FF2C20FFF7E5FED4
:10041000FFF759FF4FF4FC63FB81FB891B0A9BB27A
:10042000DBB23B71FB89DBB27B7141F28833BB608D
:100430001120FFF74DFE00237B610EE0FB891B0AB4
:100440009BB2DBB21846FFF7C8FEFB89DBB2184649
:10045000FFF7C3FE7B6901337B617A69BB689A420F
:10046000ECDB1120FFF746FE002318461837BD4687
:1004700080BD00000A490B4A0B4B9A42BEBF51F89F
:10048000040B42F8040BF8E70849094A002091429E
:10049000BCBF41F8040BFAE7FFF7F8FEFFF75FFF78
:1004A0007406000000000020000000200000002072
:1004B00000000020FEE700BF844641EA000313F07D
:1004C00003036DD1403A41D351F8043B40F8043B5B
:1004D00051F8043B40F8043B51F8043B40F8043B1E
:1004E00051F8043B40F8043B51F8043B40F8043B0E
:1004F00051F8043B40F8043B51F8043B40F8043BFE
:1005000051F8043B40F8043B51F8043B40F8043BED
:1005100051F8043B40F8043B51F8043B40F8043BDD
:1005200051F8043B40F8043B51F8043B40F8043BCD
:1005300051F8043B40F8043B51F8043B40F8043BBD
:1005400051F8043B40F8043B403ABDD2303211D35D
:1005500051F8043B40F8043B51F8043B40F8043B9D
:1005600051F8043B40F8043B51F8043B40F8043B8D
:10057000103AEDD20C3205D351F8043B40F8043B5D
:10058000043AF9D2043208D0D2071CBF11F8013B5B
:1005900000F8013B01D30B8803806046704700BF21
:1005A000082A13D38B078DD010F003038AD0C3F130
:1005B0000403D21ADB071CBF11F8013B00F8013B12
:1005C00080D331F8023B20F8023B7BE7043AD9D3D1
:1005D000013A11F8013B00F8013BF9D20B780370A6
:1005E0004B7843708B78837060467047F8B500BFD6
:1005F000F8B500BF0007005004070050080700507E
:100600000C07005010070050140700501807005046
:100610001C070050200700502407005028070050F6
:100620002C070050300700503407005038070050A6
:100630003C07005040070050440700504807005056
:100640004C07005050070050540700505807005006
:100650005C070050600700506407005068070050B6
:100660006C07005070070050740700507807005066
:040670007C070050B3
:00000001FF
