:1000000000200020450000004900000049000000D9
:1000100049000000490000004900000049000000BC
:1000200049000000490000004900000049000000AC
:10003000490000004900000049000000490000009C
:100040004900000000F002B8FEE700BF2DE9F04FC4
:1000500095B0834D814C8349834A844B2846009454
:1000600000F090F99F20AB211490002013902846B7
:1000700000F03AFA7E48834600F02CF9A8687D4EDD
:100080000422306014A9284600F056FA13A9284625
:10009000042200F061FA7948774901224250016850
:1000A0000029FCD0A968764F3960002101609DF8D5
:1000B0004D000B2804D19DF84E00402801D0FEE7EA
:1000C000FEE77048704A734D684B016811606F4AD3
:1000D000016811606E49644A0068086061492846F9
:1000E000009400F04FF96C48DFF8B0A1D0476C4C99
:1000F000206830606B48D0472068386047F66C3025
:10010000D047DFF8A491DFF8A4810121D9F80000DD
:1001100000F031FA6648D047D9F80000112100F00C
:100120002AFA644C2046D047D9F800003A2100F062
:1001300022FAD9F80000552138602846C0472046E9
:10014000D047D9F80000362100F015FA00F016FA71
:100150000020F02100F052F90020F02100F070F9A9
:10016000D9F80000132100F006FAD9F80000212187
:1001700000F001FA00F086F9D9F80000292100F01A
:10018000FAF9D9F80000332100F0F5F900F0F6F99A
:1001900028460021C04728460121C0472846402163
:1001A000C04728460021C04728460021C0470020FC
:1001B0000021F022F02300F07BF93F4E4FF4614420
:1001C0002CB12846314600F080F9013CF8E758464A
:1001D00000F080F8002000211D223B23002400F0C5
:1001E00067F9364F2B4DB4F5E16F0DD037F8140099
:1001F00037F810602846310A00F076F92846314673
:1002000000F072F90134EEE706AD322144223224C7
:10021000284600F0C7F9CDE9045404A800210422BF
:1002200004230090002000F04BF80D4E06213046CC
:10023000C04730460221CDE90254C0473046002174
:10024000C04730460021C04730460021C04702A9C0
:10025000304600F03AF9584600F03CF8FC13000034
:10026000D8130000FC130000F0130000F813000086
:10027000F00EF1000C050050F8FEFFFF18310040B1
:1002800008050050F01300006807005048070050B0
:1002900038070050E41300008C0D0C00D50200005C
:1002A00000140000AA9D0300F4130000E9040000FC
:1002B000A42824001C690200D0130000BC05000023
:1002C00080B500F0F5F802480299BDE88040FCE0F6
:1002D000E4130000094900220323C1F84021C1F8BA
:1002E0000835C1F81025C1F840050120C860086034
:1002F000D1F840010028FBD0704700BF00800040CB
:1003000019481E4B19491C4A002403250126006880
:100310009C461B4B0860164816499E461368674664
:10032000CCF80030C1F84041C1F80855C1F810457B
:10033000C1F84005CE600E60D1F84031002BFBD0F3
:1003400013687746CEF80030C1F84041C1F808552F
:10035000C1F81045C1F84005CE600E60D1F84031BB
:10036000002BFBD0DAE700BFF01300004407005079
:100370000024F40000800040041400000805005030
:100380000C050050B0B51A4D44682D682560194D14
:1003900084682C60184D84682C6004680968C4F86F
:1003A000081501681268C1F80C2501681A68C1F8BF
:1003B00010254FF000420168C1F82425049A016815
:1003C0001268C1F8442500220168C1F804210168BF
:1003D000C1F810210168C1F818210168C1F8202175
:1003E0000168C1F84C2107210068C0F80015B0BDB4
:1003F000F0130000080500500C050050FEB50C4F2E
:100400000C4605460B490C4E3868086030462A21D8
:1004100000F06AF83868094900F0BDF8694600F054
:10042000B3F802A80090304600F04FF8FEBD00BFC0
:10043000F41300000C050050E41300000805005000
:10044000FEB50C4F0C4605460B490C4E386808604B
:1004500030462B2100F048F83868094900F09BF835
:10046000694600F091F802A80090304600F02DF89F
:10047000FEBD00BFF41300000C050050E4130000A3
:100480000805005010B5064C06492068086006486B
:100490002C2100F029F820680449086010BD00BF35
:1004A000F41300000C050050E41300000805005090
:1004B000B0B50D4611461C46FFF7A0FF2846214661
:1004C000FFF7BEFFBDE8B040DCE7F8B54E680C466C
:1004D00005460027BE4208BFF8BD2068C15D28461A
:1004E00000F002F80137F5E77CB505460446104AEE
:1004F000012655F8080F10608DF807100DF107015F
:100500002046012200F018F820460021002200F0C9
:1005100023F8206806612068D0F818110029FBD064
:1005200028680449086000212068C0F818117CBDC3
:100530000C0500500805005010B503680024D2B225
:10054000C3F850450368C3F848250268C2F844154B
:100550000068C0F8184110BD0368C3F83415D1B263
:100560000268C2F8381500220168C1F84025006809
:10057000C0F818217047306028464047D9F800007D
:1005800000213860284640478DF80A008DF80800A1
:10059000042001907047086000208DF80B408DF812
:1005A000095070470B4611461A4600F000B8002368
:1005B0009A4208BF7047C1540133F9E700F800F8C8
:1005C00000F800F800F800F800F800F800F800F86B
:1005D00000F800F800F800F800F800F800F800F85B
:1005E00000F800F800F800F800F800F800F800F84B
:1005F00000F800F800F800F800F800F800F800F83B
:1006000000F800F800F800F800F800F800F800F82A
:1006100000F800F800F800F800F800F800F800F81A
:1006200000F800F800F800F800F800F800F800F80A
:1006300000F800F800F800F800F800F800F800F8FA
:1006400000F800F800F800F800F800F800F800F8EA
:1006500000F800F800F800F800F800F800F800F8DA
:1006600000F800F800F800F800F800F800F800F8CA
:1006700000F800F800F800F800F800F800F800F8BA
:1006800000F800F800F800F800F800F800F800F8AA
:1006900000F800F800F800F800F800F800F800F89A
:1006A00000F800F800F800F800F800F800F800F88A
:1006B00000F800F800F800F800F800F800F800F87A
:1006C00000F800F800F800F800F800F800F800F86A
:1006D00000F800F800F800F800F800F800F800F85A
:1006E00000F800F800F800F800F800F800F800F84A
:1006F00000F800F800F800F800F800F800F800F83A
:1007000000F800F800F800F800F800F800F800F829
:1007100000F800F800F800F800F800F800F800F819
:1007200000F800F800F800F800F800F800F800F809
:1007300000F800F800F800F800F800F800F800F8F9
:1007400000F800F800F800F800F800F800F800F8E9
:1007500000F800F800F800F800F800F800F800F8D9
:1007600000F800F800F800F800F800F800F800F8C9
:1007700000F800F800F800F800F800F800F800F8B9
:1007800000F800F800F800F800F800F800F800F8A9
:1007900000F800F800F800F800F800F800F800F899
:1007A00000F800F800F800F800F800E000C000A031
:1007B000007800580038002800500070009800C0F1
:1007C00000E800F800F800F800F800F800F800F879
:1007D00000F800F800F800F800F800F800F800F061
:1007E00000C00080002800000000000000000000A1
:1007F0000000000000000000000000000000008079
:1008000000D800F800F800F800F800F800F800F848
:1008100000F800F800F800F800F800000000000000
:1008200000000000000000000000000000000000C8
:10083000000000000000000000000000000000A018
:1008400000F800F800F800F800F800F800F800F8E8
:1008500000F800F800F800000000000000000000B0
:100860000000000000000000000000000000000088
:10087000000000000000000000000000007800F808
:1008800000F800F800F800F800F800F800F800F8A8
:1008900000F800000000000000000028008800B8F8
:1008A00000E000F000F800F800F800E000B00038C8
:1008B00000000000000000000000008800F800F8C0
:1008C00000F800F800F800F800F800F800F8000060
:1008D0000000007800C800F800F800F800F800F800
:1008E00000F800F800F800F800F800F800880000B0
:1008F000000000000000000000D000F800F800F840
:1009000000F800F800F800F800F8009000E000F8A7
:1009100000F800F800F800F800F800F800F800F817
:1009200000F800F800F800F800F80080000000006F
:1009300000000000006000F800F800F800F800F87F
:1009400000F800F800F800F800F800F800F800F8E7
:1009500000F800F800F800F800F800F800F800F8D7
:1009600000F800F800F800F000300000000000007F
:10097000000000F000F800F800F800F800F800F8B7
:1009800000F800F800F800F800F800F800F800F8A7
:1009900000F800F800F800F800F800F800F800F897
:1009A00000F800F80098000000000000000000C8F7
:1009B00000F800F800F800F800F800F800F800F877
:1009C00000F800F800F800F800F800F800F800F867
:1009D00000F800F800F800F800F800F800F800F857
:1009E00000C8000000000000000000B800F800F897
:1009F00000F800F800F800F800F800F800F800F837
:100A000000F800F800F800F800F800F800F800F826
:100A100000F800F800F800F800F800F800D0000036
:100A200000000000000000B000F800F800F800F836
:100A300000F800F800F800F800F800F800F800F8F6
:100A400000F800F800F800F800F800F800F800F8E6
:100A500000F800F800F800F800C0000000000000F6
:100A6000000000C000F800F800F800F800F800F8F6
:100A700000F800F800F800F800F800F800F800F8B6
:100A800000F800F800F800F800F800F800F800F8A6
:100A900000F800F800A0000000000000000000D0F6
:100AA00000F800F800F800F800F800F800F800F886
:100AB00000F800F800F800F800F800F800F800F876
:100AC00000F800F800F800F800F800F800F800F866
:100AD0000040000000000000000000F800F800F8EE
:100AE00000F800F800F800F800F800F800F800F846
:100AF00000F800F800F800F800F800F800F800F836
:100B000000F800F800F800F800F800C80000000045
:100B100000000000007800F800F800F800F800F885
:100B200000F800F800F800F800F800F800F800F805
:100B300000F800F800F800F800F800F800F800F8F5
:100B400000F800F800F80048000000000000000075
:100B500000D000F800F800F800F800F800F800F8FD
:100B600000F800F800F800F800F800F800F800F8C5
:100B700000F800F800F800F800F800F800F800F8B5
:100B800000900000000000000000008000F800F865
:100B900000F800F800F800F800F800F800F800F895
:100BA00000F800F800F800F800F800F800F800F885
:100BB00000F800F800F800F800F800C0000000009D
:100BC00000000000003000F000F800F800F800F825
:100BD00000F800F800F800F800F800F800F800F855
:100BE00000F800F800F800F800F800F800F800F845
:100BF00000F800F800D8001000000000000000001D
:100C000000C800F800F800F800F800F800F800F854
:100C100000F800F800F800F800F800F800F800F814
:100C200000F800F800F800F800F800F800F800E01C
:100C30000030000000000000000000A000F800F8F4
:100C400000F800F800F800F800F800F800F800F8E4
:100C500000F800F800F800F800F800F800F800F8D4
:100C600000F800F800F800F800E80040000000007C
:100C700000000000009800F800F800F800F800F804
:100C800000F800F800F800F800F800F800F800F8A4
:100C900000F800F800F800F800F800F800F800F894
:100CA00000F800E800480000000000000000008894
:100CB00000F800F800F800F800F800F800F800F874
:100CC00000F800F800F800F800F800F800F800F864
:100CD00000F800F800F800F800F800F800F0005004
:100CE0000000000000000000008800F800F800F894
:100CF00000F800F800F800F800F800F800F800F834
:100D000000F800F800F800F800F800F800F800F823
:100D100000F800F800F800F00058000000000000A3
:100D20000000008000F800F800F800F800F800F873
:100D300000F800F800F800F800F800F800F800F8F3
:100D400000F800F800F800F800F800F800F800F8E3
:100D500000F000580000000000000000007800F8DB
:100D600000F800F800F800F800F800F800F800F8C3
:100D700000F800F800F800F800F800F800F800F8B3
:100D800000F800F800F800F800F800F0006000003B
:100D9000000000000000007000F800F800F800F803
:100DA00000F800F800F800F800F800F800F800F883
:100DB00000F800F800F800F800F800F800F800F873
:100DC00000F800F800F800600000000000000000DB
:100DD000007000F800F800F800F800F800F800F8DB
:100DE00000F800F800F800F800F800F800F800F843
:100DF00000F800F800F800F800F800F800F800F833
:100E000000600000000000000000006800F800F82A
:100E100000F800F800F800F800F800F800F800F812
:100E200000F800F800F800F800F800F800F800F802
:100E300000F800F800F800F800F800680000000072
:100E400000000000006800F800F800F800F800F862
:100E500000F800F800F800F800F800F800F800F8D2
:100E600000F800F800F800F800F800F800F800F8C2
:100E700000F800F8006800000000000000000060BA
:100E800000F800F800F800F800F800F800F800F8A2
:100E900000F800F800F800F800F800F800F800F892
:100EA00000F800F800F800F800F800F800F800700A
:100EB0000000000000000000005800F000F800F8FA
:100EC00000F800F800F800F800F800F800F800F862
:100ED00000F800F800F800F800F800F800F800F852
:100EE00000F800F800F800F80078000000000000AA
:100EF0000000005800F000F800F800F800F800F8D2
:100F000000F800F800F800F800F800F800F800F821
:100F100000F800F800F800F800F800F800F800F811
:100F200000F800780000000000000000005000F011
:100F300000F800F800F800F800F800F800F800F8F1
:100F400000F800F800F800F800F800F800F800F8E1
:100F500000F800F800F800F800F800F800D80000E9
:100F60000000000000000000000000000000000081
:100F70000000000000000000000000000000000071
:100F800000000000000000000000007800F800F8F9
:100F900000F800F800F800F800D800000000000099
:100FA0000000000000000000000000000000000041
:100FB0000000000000000000000000000000000031
:100FC000000000000000007800F800F800F800F8C9
:100FD00000F800F800D80000000000000000000049
:100FE0000000000000000000000000000000000001
:100FF00000000000000000000000000000000000F1
:101000000000007800F800F800F800F800F800F898
:1010100000D80000000000000000000000000000F8
:1010200000000000000000000000000000000000C0
:101030000000000000000000000000000000007838
:1010400000F800F800F800F800F800F800F800F8E0
:1010500000F800F800F800F800F800F800F800F8D0
:1010600000F800F800F800F800F800F800F800F8C0
:1010700000F800F800F800F800F800F800F800F8B0
:1013C00000F800F800F800F800F800F8FFFF00004F
:1013D000CC13000002000000003000401407005051
:1013E00020000000003000406407005000000002B0
:1013F00003000000000004000400000002000000E0
:1014000000000004000002003CECFF7F010000002F
:1014100038ECFF7F0100000034ECFF7F010000008A
:10142000A0EEFF7F01000000ACEEFF7F0100000096
:10143000D0EEFF7F010000004CEFFF7F01000000B5
:10144000BCEFFF7F01000000F8EFFF7F010000000C
:1014500034F0FF7F0100000058F0FF7F0100000022
:101460006AF0FF7F0100000080F0FF7F01000000B4
:10147000C8F0FF7F01000000E0F0FF7F01000000E6
:10148000F6F0FF7F01000000F4F0FF7F0100000094
:10149000F8F0FF7F01000000FEF0FF7F0100000078
:0814A0001CF1FF7F01000000B8
:00000001FF
