:1000000000000120450000004900000049000000F8
:1000100049000000490000004900000049000000BC
:1000200049000000490000004900000049000000AC
:10003000490000004900000049000000490000009C
:100040004900000000F002B8FEE700BF2DE9F047CC
:1000500086B0734C714D7349734A744B20460095BA
:1000600000F072F99F20AB210490002003902046FD
:1000700000F02CFA6E4800F0A3F9A0686D4F04223E
:10008000386004A9204600F049FA03A9204604225A
:1000900000F054FA69486849012242500168002979
:1000A000FCD0A168664A1160002101609DF80D0036
:1000B0000B2840F086809DF80E00402840F082809A
:1000C00060489146604A634C584B016811605F4A32
:1000D000016811605E49544A006808605149204631
:1000E000009500F031F95C485C4EB0475C4D2868E3
:1000F00038605C48B0472868C9F8000047F66C30A3
:10010000B047594DB846012128683860574F2046FE
:10011000B8475748B0472868112100F02DFA5548D4
:100120008246B04728683A2100F026FA286855210F
:1001300000F026FA5046B0472868362100F01CFA35
:1001400028680021002600F01BFA0020F02100F0B2
:100150004DF9F02000F074F92868132100F00CFA32
:100160002868212100F008FA00F090F92868292178
:1001700000F002FA2868332100F0FEF92868002117
:1001800000F0FEF920460021B84720460121B8477B
:1001900020464021B84720460021B847204600218C
:1001A000B84700201D2100F087F9334FB6F5E16F05
:1001B00009D000F0E9F92046294600F087F9013618
:1001C000F4E7FEE7FEE71E203B2100F075F92B4F18
:1001D000204C0026B6F5E16F07D000F0D5F9204697
:1001E000294600F073F90136F4E73C20592100F06C
:1001F00063F923484FF4E16459210594049004AA5B
:100200003C2000F041F81F4802949521019001AA7A
:10021000782000F039F806B0BDE8F087D82100005A
:10022000B4210000D8210000CC210000D42100001E
:10023000F00EF1000C050050F8FEFFFF18310040F1
:1002400008050050CC210000680700504807005006
:1002500038070050C02100008C0D0C00C1030000C5
:10026000DC210000AA9D0300D0210000CD04000085
:10027000A42824001C69020094050000A4130000B7
:10028000100E0020000000202DE9F041904600F003
:1002900013F9D8F804700A4D0024A74208BFBDE83E
:1002A000F081D8F8000030F814602846310A00F0D8
:1002B0000DF92846314600F009F90134EDE700BF99
:1002C000C021000019481E4B19491C4A002403256F
:1002D000012600689C461B4B0860164816499E463E
:1002E00013686746CCF80030C1F84041C1F80855A2
:1002F000C1F81045C1F84005CE600E60D1F840311C
:10030000002BFBD013687746CEF80030C1F840418F
:10031000C1F80855C1F81045C1F84005CE600E601F
:10032000D1F84031002BFBD0DAE700BFCC21000030
:10033000440700500024F40000800040E021000049
:10034000080500500C050050B0B51A4D44682D68E2
:100350002560194D84682C60184D84682C600468F1
:100360000968C4F8081501681268C1F80C2501680D
:100370001A68C1F810254FF000420168C1F8242521
:10038000049A01681268C1F8442500220168C1F886
:1003900004210168C1F810210168C1F81821016821
:1003A000C1F820210168C1F84C2107210068C0F87C
:1003B0000015B0BDCC210000080500500C05005010
:1003C000094900220323C1F84021C1F80835C1F8CA
:1003D0001025C1F840050120C8600860D1F840012F
:1003E0000028FBD0704700BF00800040FEB5104FD2
:1003F0000C4605460F49104E3868086030462A21E1
:1004000000F064F838680D49086000208DF80B4052
:100410008DF8095069468DF80A008DF8080004200F
:10042000019002A80090304600F097F8FEBD00BF92
:10043000D02100000C050050C0210000080500502C
:100440007FB50E4E04460E490E4D306808602846B2
:100450002B2100F03BF830680B49086000208DF834
:100460000F408DF80E00ADF80C000420029003A898
:10047000019001A9284600F070F87FBDD02100004E
:100480000C050050C02100000805005010B5064CB6
:1004900006492068086006482C2100F017F82068FB
:1004A0000449086010BD00BFD02100000C050050B9
:1004B000C02100000805005080B5FFF797FF3B20E2
:1004C000FFF7BEFFBDE88040E0E700BF7CB5054612
:1004D0000446104A012655F8080F10608DF80710E1
:1004E0000DF107012046012200F018F820460021F6
:1004F000002200F023F8206806612068D0F8181167
:100500000029FBD028680449086000212068C0F851
:1005100018117CBD0C0500500805005010B503688B
:100520000024D2B2C3F850450368C3F848250268D6
:10053000C2F844150068C0F8184110BD0368C3F83C
:100540003415D1B20268C2F8381500220168C1F82A
:1005500040250068C0F818217047F8B54E680C4671
:1005600005460027BE4208BFF8BD2068C15D284689
:10057000FFF7ACFF0137F5E7C8F800002046384721
:10058000C9F800002046384737F816502046290A97
:100590009CE7D4D400F800F800F800F800F800F860
:1005A00000F800F800F800F800F800F800F800F88B
:1005B00000F800F800F800F800F800F800F800F87B
:1005C00000F800F800F800F800F800F800F800F86B
:1005D00000F800F800F800F800F800F800F800F85B
:1007C00000F800F000D000A8007000100000000049
:1007D0000000000000F000F800F800F800F800F851
:1007E00000F800F800F800F800F800F800F800F849
:1007F00000F800F800F800E800C000980050000081
:1008000000000000000000000000000000000000E8
:1008100000F000F800F800F800F800F800F800F820
:1008200000F800F800F800F800F800F800F800F808
:1008300000C00000000000000000000000000000F8
:1008400000000000000000000000000000F000F8C0
:1008500000F800F800F800F800F800F800F800F8D8
:1008600000F800F800F800F800F800F800C00000F8
:100870000000000000000000000000000000000078
:10088000000000000000000000F000F800F800F890
:1008900000F800F800F800F800F800F800F800F898
:1008A00000F800F800F800F800C0000000000000A8
:1008B0000000006800A000D000F0008800000000E8
:1008C0000000000000F000F800F800F800F800F860
:1008D00000F800F800F800F800F800F800F800F858
:1008E00000F800F800C0008000B800D800F800F858
:1008F00000F800F800F80088000000000000000088
:1009000000F000F800F800F800F800F800F800F82F
:1009100000F800F800F800F800F800F800F800F817
:1009200000F800F800F800F800F800F800F800F807
:1009300000F80088000000000000000000F000F84F
:1009400000F800F800F800F800F800F800F800F8E7
:1009500000F800F800F800F800F800F800F800F8D7
:1009600000F800F800F800F800F800F800F8008837
:10097000000000000000000000F000F800F800F89F
:1009800000F800F800F800F800F800F800F800F8A7
:1009900000F800F800F800F800F800F800F800F897
:1009A00000F800F800F800F800F8008800000000E7
:1009B0000000000000F000F800F800F800F800F86F
:1009C00000F800F800F800F800F800F800F800F867
:1009D00000F800F800F800F800F800F800F800F857
:1009E00000F800F800F80088000000000000000097
:1009F00000F000F800F800F800F800F800F800F83F
:100A000000F800F800F800F800F800F800F800F826
:100A100000F800F800F800F800F800F800F800F816
:100A200000F80088000000000000000000F000F85E
:100A300000F800F800F800F800F800F800F800F8F6
:100A400000F800F800F800F800F800F800F800F8E6
:100A500000F800F800F800F800F800F800F8008846
:100A6000000000000000000000F000F800F800F8AE
:100A700000F800F800F800F800F800F800F800F8B6
:100A800000F800F800F800F800F800F800F800F8A6
:100A900000F800F800F800F800F8008800000000F6
:100AA0000000000000F000F800F800F800F800F87E
:100AB00000F800F800F800F800F800F800F800F876
:100AC00000F800F800F800F800F800F800F800F866
:100AD00000F800F800F800880000000000000000A6
:100AE00000F000F800F800F800F800F800F800F84E
:100AF00000F800F800F800F800F800F800F800F836
:100B000000F800F800F800F800F800F800F800F825
:100B100000F80088000000000000000000F000F86D
:100B200000F800F800F800F800F800F800F800F805
:100B300000F800F800F800F800F800F800F800F8F5
:100B400000F800F800F800F800F800F800F8008855
:100B5000000000000000000000F000F800F800F8BD
:100B600000F800F800F800F800F800F800F800F8C5
:100B700000F800F800F800F800F800F800F800F8B5
:100B800000F800F800F800F800F800880000000005
:100B90000000000000F000F800F800F800F800F88D
:100BA00000F800F800F800F800F800F800F800F885
:100BB00000F800F800F800F800F800F800F800F875
:100BC00000F800F800F800880000000000000000B5
:100BD00000F000F800F800F800F800F800F800F85D
:100BE00000F800F800F800F800F800F800F800F845
:100BF00000F800F800F800F800F800F800F800F835
:100C000000F80088000000000000000000F000F87C
:100C100000F800F800F800F800F800F800F800F814
:100C200000F800F800F800F800F800F800F800F804
:100C300000F800F800F800F800F800F800F8008864
:100C4000000000000000000000F000F800F800F8CC
:100C500000F800F800F800F800F800F800F800F8D4
:100C600000F800F800F800F800F800F800F800F8C4
:100C700000F800F800F800F800F800880000000014
:100C80000000000000F000F800F800F800F800F89C
:100C900000F800F800F800F800F800F800F800F894
:100CA00000F800F800F800F800F800F800F800F884
:100CB00000F800F800F800880000000000000000C4
:100CC00000F000F800F800F800F800F800F800F86C
:100CD00000F800F800F800F800F800F800F800F854
:100CE00000F800F800F800F800F800F800F800F844
:100CF00000F80088000000000000000000F000F88C
:100D000000F800F800F800F800F800F800F800F823
:100D100000F800F800F800F800F800F800F800F813
:100D200000F800F800F800F800F800F800F8008873
:100D3000000000000000000000F000F800F800F8DB
:100D400000F800F800F800F800F800F800F800F8E3
:100D500000F800F800F800F800F800F800F800F8D3
:100D600000F800F800F800F800F800880000000023
:100D70000000000000F000F800F800F800F800F8AB
:100D800000F800F800F800F800F800F800F800F8A3
:100D900000F800F800F800F800F800F800F800F893
:100DA00000F800F800F800880000000000000000D3
:100DB00000F000F800F800F800F800F800F800F87B
:100DC00000F800F800F800F800F800F800F800F863
:100DD00000F800F800F800F800F800F800F800F853
:100DE00000F80088000000000000000000F000F89B
:100DF00000F800F800F800F800F800F800F800F833
:100E000000F800F800F800F800F800F800F800F822
:100E100000F800F800F800F800F800F800F8008882
:100E2000000000000000000000F000F800F800F8EA
:100E300000F800F800F800F800F800F800F800F8F2
:100E400000F800F800F800F800F800F800F800F8E2
:100E500000F800F800F800F800F800880000000032
:100E60000000000000F000F800F800F800F800F8BA
:100E700000F800F800F800F800F800F800F800F8B2
:100E800000F800F800F800F800F800F800F800F8A2
:100E900000F800F800F800880000000000000000E2
:100EA00000F000F800F800F800F800F800F800F88A
:100EB00000F800F800F800F800F800F800F800F872
:100EC00000F800F800F800F800F800F800F800F862
:100ED00000F80088000000000000000000F000F8AA
:100EE00000F800F800F800F800F800F800F800F842
:100EF00000F800F800F800F800F800F800F800F832
:100F000000F800F800F800F800F800F800F8008891
:100F1000000000000000000000F000F800F800F8F9
:100F200000F800F800F800F800F800F800F800F801
:100F300000F800F800F800F800F800780000000061
:100F400000000000000000000000000000000000A1
:100F50000000000000000000000000000000000091
:100F60000000000000E800F800F800F800F800F8C1
:100F700000F800F800F80078000000000000000011
:100F80000000000000000000000000000000000061
:100F90000000000000000000000000000000000051
:100FA00000E800F800F800F800F800F800F800F891
:100FB00000F80078000000000000000000000000C1
:100FC0000000000000000000000000000000000021
:100FD00000000000000000000000000000E800F831
:100FE00000F800F800F800F800F800F800F80078C1
:100FF00000000000000000000000000000000000F1
:1010000000000000000000000000000000000000E0
:10101000000000000000000000E800F800F800F800
:1010200000F800F800F800F800F800F800F800F800
:1010300000F800F800F800F800F800F800F800F8F0
:1010400000F800F800F800F800F800F800F800F8E0
:1010500000F800F800F800F800F800F800F800F8D0
:1015C00000F800F800F800F800A800000000000093
:1015D000000000000000000000000000000000000B
:1015E0000000000000000000000000000000008873
:1015F00000F800F800F800F800F800F800F800F82B
:1016000000F800F800A80000000000000000000042
:1016100000000000000000000000000000000000CA
:1016200000000000000000000000008800F800F842
:1016300000F800F800F800F800F800F800F800F8EA
:1016400000A80000000000000000000000000000F2
:10165000000000000000000000000000000000008A
:10166000000000000000008800F800F800F800F812
:1016700000F800F800F800F800F800F800A80000F2
:10168000000000000000000000000000000000005A
:10169000000000000000000000000000000000004A
:1016A0000000008800F800F800F800F800F800F8E2
:1016B00000F800F800F800F800A8000000000000A2
:1016C000005800F800F800F800F800F800F800F8FA
:1016D00000F800F800F800F800F800F800F800F84A
:1016E00000F800F800F800F800F800F800F800F83A
:1016F00000F800F800A8000000000000005800F802
:1017000000F800F800F800F800F800F800F800F819
:1017100000F800F800F800F800F800F800F800F809
:1017200000F800F800F800F800F800F800F800F8F9
:1017300000A8000000000000005800F800F800F8C1
:1017400000F800F800F800F800F800F800F800F8D9
:1017500000F800F800F800F800F800F800F800F8C9
:1017600000F800F800F800F800F800F800A8000001
:1017700000000000005800F800F800F800F800F839
:1017800000F800F800F800F800F800F800F800F899
:1017900000F800F800F800F800F800F800F800F889
:1017A00000F800F800F800F800A8000000000000B1
:1017B000005800F800F800F800F800F800F800F809
:1017C00000F800F800F800F800F800F800F800F859
:1017D00000F800F800F800F800F800F800F800F849
:1017E00000F800F800A8000000000000005800F811
:1017F00000F800F800F800F800F800F800F800F829
:1018000000F800F800F800F800F800F800F800F818
:1018100000F800F800F800F800F800F800F800F808
:1018200000A8000000000000005800F800F800F8D0
:1018300000F800F800F800F800F800F800F800F8E8
:1018400000F800F800F800F800F800F800F800F8D8
:1018500000F800F800F800F800F800F800A8000010
:1018600000000000005800F800F800F800F800F848
:1018700000F800F800F800F800F800F800F800F8A8
:1018800000F800F800F800F800F800F800F800F898
:1018900000F800F800F800F800A8000000000000C0
:1018A000004800C8009800680040003000580070F0
:1018B000009800C800F000F800F800F800F800F800
:1018C00000F800F800F800F800F800F800F800F858
:1018D00000F800F800A80000000000000000000070
:1018E00000000000000000000000000000000000F8
:1018F0000000008000E000F800F800F800F800F8B0
:1019000000F800F800F800F800F800F800F800F817
:1019100000A800000000000000000000000000001F
:1019200000000000000000000000000000000000B7
:101930000000009800F800F800F800F800F800F83F
:1019400000F800F800F800F800F800F800A800001F
:101950000000000000000000000000000000000087
:101960000000000000000000000000000000000077
:10197000006800F800F800F800F800F800F800F837
:1019800000F800F800F800F800A800000018008037
:1019900000C000E000F800F800F800F800F000C80F
:1019A000008800000000000000000000000000802F
:1019B00000F800F800F800F800F800F800F800F867
:1019C00000F800F800B800B800F800F800F800F8D7
:1019D00000F800F800F800F800F800F800F800E857
:1019E00000700000000000000000000000B000F8DF
:1019F00000F800F800F800F800F800F800F800F827
:101A000000F800F800F800F800F800F800F800F816
:101A100000F800F800F800F800F800F800F8008876
:101A20000000000000000000002800F800F800F8A6
:101A300000F800F800F800F800F800F800F800F8E6
:101A400000F800F800F800F800F800F800F800F8D6
:101A500000F800F800F800F800F800F80060000056
:101A600000000000000000B000F800F800F800F8E6
:101A700000F800F800F800F800F800F800F800F8A6
:101A800000F800F800F800F800F800F800F800F896
:101A900000F800F800F800F800D000000000000096
:101AA0000000006800F800F800F800F800F800F8FE
:101AB00000F800F800F800F800F800F800F800F866
:101AC00000F800F800F800F800F800F800F800F856
:101AD00000F800F800F800400000000000000000DE
:101AE00000F000F800F800F800F800F800F800F83E
:101AF00000F800F800F800F800F800F800F800F826
:101B000000F800F800F800F800F800F800F800F815
:101B100000F80098000000000000000000E000F85D
:101B200000F800F800F800F800F800F800F800F8F5
:101B300000F800F800F800F800F800F800F800F8E5
:101B400000F800F800F800F800F800F800F800B01D
:101B5000000000000000000000D800F800F800F8C5
:101B600000F800F800F800F800F800F800F800F8B5
:101B700000F800F800F800F800F800F800F800F8A5
:101B800000F800F800F800F800F800C000000000BD
:101B90000000000000C800F800F800F800F800F8A5
:101BA00000F800F800F800F800F800F800F800F875
:101BB00000F800F800F800F800F800F800F800F865
:101BC00000F800F800F800B000000000000000007D
:101BD00000D800F800F800F800F800F800F800F865
:101BE00000F800F800F800F800F800F800F800F835
:101BF00000F800F800F800F800F800F800F800F825
:101C000000F80098000000000000000000E000F86C
:101C100000F800F800F800F800F800F800F800F804
:101C200000F800F800F800F800F800F800F800F8F4
:101C300000F800F800F800F800F800F800F8004894
:101C4000000000000000000000F000F800F800F8BC
:101C500000F800F800F800F800F800F800F800F8C4
:101C600000F800F800F800F800F800F800F800F8B4
:101C700000F800F800F800F800D0000000000000B4
:101C80000000006000F800F800F800F800F800F824
:101C900000F800F800F800F800F800F800F800F884
:101CA00000F800F800F800F800F800F800F800F874
:101CB00000F800F80060000000000000000000B024
:101CC00000F800F800F800F800F800F800F000A8AC
:101CD00000F800F800F800F800F800F800F800F844
:101CE00000F800F800F800F800F800F800F80088A4
:101CF0000000000000000000002800F000F800F8DC
:101D000000F800F800F800F800F00000004800B803
:101D100000F800F800F800F800F800F800F800F803
:101D200000F800F800F800E8007000000000000073
:101D30000000000000A800F800F800F800F800F823
:101D400000F800F800F00000000000000020009003
:101D500000C000E000F000F800F800F800F000C853
:101D60000088000000000000000000000000007873
:101D700000F800F800F800F800F800F800F800F8A3
:101D800000F0000000000000000000000000000063
:101D90000000000000000000000000000000000043
:101DA0000000000000000000006800F800F800F8E3
:101DB00000F800F800F800F800F800F800F0000063
:101DC0000000000000000000000000000000000013
:101DD0000000000000000000000000000000000003
:101DE000000000A800F800F800F800F800F800F87B
:101DF00000F800F800F800F800F800E800B000581B
:101E000000000000000000000000000000000000D2
:101E100000000000000000000018009800E000F83A
:101E200000F800F800F800F800F800F800F800F8F2
:101E300000F800F800F800F800F800F800F000C81A
:101E400000A8008000580040002000480068008082
:101E500000A800D000F800F800F800F800F800F83A
:101E600000F800F800F800F800F800F800F800F8B2
:101E700000F800F800F800F800F800F800F800F8A2
:101E800000F800F800F800F800F800F800F800F892
:101E900000F800F800F800F800F800F800F800F882
:1021B00000F800F800300040140700502000000034
:1021C00000300040640700500000000203000000DF
:1021D00000000400040000000200000000000004F1
:1021E0000000020060DEFF7F010000005CDEFF7F78
:1021F0000100000058DEFF7F010000008CE0FF7F3F
:1022000001000000C0E0FF7F010000003CE1FF7F13
:1022100001000000ACE1FF7F01000000D0E1FF7F82
:10222000010000001CE2FF7F0100000060E2FF7F70
:102230000100000084E2FF7F0100000090E2FF7FC8
:1022400001000000D8E2FF7F01000000F0E2FF7F04
:102250000100000006E3FF7F010000001CE3FF7F98
:10226000010000001CE3FF7F010000001CE3FF7F72
:10227000010000001EE3FF7F0100000000F800F8ED
:1022800000F800F800F800F800F800F800F800F88E
:1022900000F800F800F800F800F800F800F800F87E
:1022A00000F800F800F800F800F800F800F800F86E
:1022B00000F800F800F800F800F800F800F800F85E
:1022C00000F800F800F800F800F800F800F800F84E
:1022D00000F800F800F800F800F800F800F800F83E
:1022E00000F800F800F800F800F800F800F800F82E
:1022F00000F800F800F800F800F800F800F800F81E
:1023000000F800F800F800F800F800F800F800F80D
:1023100000F800F800F800F800F800F800F800F8FD
:1023200000F800F800F800F800F800F800F800F8ED
:1023300000F800F800F800F800F800F800F800F8DD
:1023400000F800F800F800F800F800F800F800F8CD
:1023500000F800F800F800F800F800F800F800F8BD
:1023600000F800F800F800F800F800F800F800F8AD
:1023700000F800F800F800F800F800F800F800F89D
:1023800000F800F800F800F800F800F800F800F88D
:1023900000F800F800F800F800F800F800F800F87D
:1023A00000F800F800F800F800F800F800F800F86D
:1023B00000F800F800F800F800F800F800F800F85D
:1023C00000F800F800F800F800F800F800F800F84D
:1023D00000F800F800F800F800F800F800F800F83D
:1023E00000F800F800F800F800F800F800F800F82D
:1023F00000F800F800F800F800F800F800F800F81D
:1024000000F800F800F800F800F800F800F800F80C
:1024100000F800F800F800F800F800F800F800F8FC
:1024200000F800F800F800F800F800F800F800F8EC
:1024300000F800F800F800F800F800F800F800F8DC
:1024400000F800F800F800F800F800F800F800F8CC
:1024500000F800F800F800F800F800F800F800F8BC
:1024600000F800F800F800F800F800E000C000A054
:10247000007800580038002800500070009800C014
:1024800000E800F800F800F800F800F800F800F89C
:1024900000F800F800F800F800F800F800F800F084
:1024A00000C00080002800000000000000000000C4
:1024B000000000000000000000000000000000809C
:1024C00000D800F800F800F800F800F800F800F86C
:1024D00000F800F800F800F800F800000000000024
:1024E00000000000000000000000000000000000EC
:1024F000000000000000000000000000000000A03C
:1025000000F800F800F800F800F800F800F800F80B
:1025100000F800F800F800000000000000000000D3
:1025200000000000000000000000000000000000AB
:10253000000000000000000000000000007800F82B
:1025400000F800F800F800F800F800F800F800F8CB
:1025500000F800000000000000000028008800B81B
:1025600000E000F000F800F800F800E000B00038EB
:1025700000000000000000000000008800F800F8E3
:1025800000F800F800F800F800F800F800F8000083
:102590000000007800C800F800F800F800F800F823
:1025A00000F800F800F800F800F800F800880000D3
:1025B000000000000000000000D000F800F800F863
:1025C00000F800F800F800F800F8009000E000F8CB
:1025D00000F800F800F800F800F800F800F800F83B
:1025E00000F800F800F800F800F800800000000093
:1025F00000000000006000F800F800F800F800F8A3
:1026000000F800F800F800F800F800F800F800F80A
:1026100000F800F800F800F800F800F800F800F8FA
:1026200000F800F800F800F00030000000000000A2
:10263000000000F000F800F800F800F800F800F8DA
:1026400000F800F800F800F800F800F800F800F8CA
:1026500000F800F800F800F800F800F800F800F8BA
:1026600000F800F80098000000000000000000C81A
:1026700000F800F800F800F800F800F800F800F89A
:1026800000F800F800F800F800F800F800F800F88A
:1026900000F800F800F800F800F800F800F800F87A
:1026A00000C8000000000000000000B800F800F8BA
:1026B00000F800F800F800F800F800F800F800F85A
:1026C00000F800F800F800F800F800F800F800F84A
:1026D00000F800F800F800F800F800F800D000005A
:1026E00000000000000000B000F800F800F800F85A
:1026F00000F800F800F800F800F800F800F800F81A
:1027000000F800F800F800F800F800F800F800F809
:1027100000F800F800F800F800C000000000000019
:10272000000000C000F800F800F800F800F800F819
:1027300000F800F800F800F800F800F800F800F8D9
:1027400000F800F800F800F800F800F800F800F8C9
:1027500000F800F800A0000000000000000000D019
:1027600000F800F800F800F800F800F800F800F8A9
:1027700000F800F800F800F800F800F800F800F899
:1027800000F800F800F800F800F800F800F800F889
:102790000040000000000000000000F800F800F811
:1027A00000F800F800F800F800F800F800F800F869
:1027B00000F800F800F800F800F800F800F800F859
:1027C00000F800F800F800F800F800C80000000069
:1027D00000000000007800F800F800F800F800F8A9
:1027E00000F800F800F800F800F800F800F800F829
:1027F00000F800F800F800F800F800F800F800F819
:1028000000F800F800F80048000000000000000098
:1028100000D000F800F800F800F800F800F800F820
:1028200000F800F800F800F800F800F800F800F8E8
:1028300000F800F800F800F800F800F800F800F8D8
:1028400000900000000000000000008000F800F888
:1028500000F800F800F800F800F800F800F800F8B8
:1028600000F800F800F800F800F800F800F800F8A8
:1028700000F800F800F800F800F800C000000000C0
:1028800000000000003000F000F800F800F800F848
:1028900000F800F800F800F800F800F800F800F878
:1028A00000F800F800F800F800F800F800F800F868
:1028B00000F800F800D80010000000000000000040
:1028C00000C800F800F800F800F800F800F800F878
:1028D00000F800F800F800F800F800F800F800F838
:1028E00000F800F800F800F800F800F800F800E040
:1028F0000030000000000000000000A000F800F818
:1029000000F800F800F800F800F800F800F800F807
:1029100000F800F800F800F800F800F800F800F8F7
:1029200000F800F800F800F800E80040000000009F
:1029300000000000009800F800F800F800F800F827
:1029400000F800F800F800F800F800F800F800F8C7
:1029500000F800F800F800F800F800F800F800F8B7
:1029600000F800E8004800000000000000000088B7
:1029700000F800F800F800F800F800F800F800F897
:1029800000F800F800F800F800F800F800F800F887
:1029900000F800F800F800F800F800F800F0005027
:1029A0000000000000000000008800F800F800F8B7
:1029B00000F800F800F800F800F800F800F800F857
:1029C00000F800F800F800F800F800F800F800F847
:1029D00000F800F800F800F00058000000000000C7
:1029E0000000008000F800F800F800F800F800F897
:1029F00000F800F800F800F800F800F800F800F817
:102A000000F800F800F800F800F800F800F800F806
:102A100000F000580000000000000000007800F8FE
:102A200000F800F800F800F800F800F800F800F8E6
:102A300000F800F800F800F800F800F800F800F8D6
:102A400000F800F800F800F800F800F0006000005E
:102A5000000000000000007000F800F800F800F826
:102A600000F800F800F800F800F800F800F800F8A6
:102A700000F800F800F800F800F800F800F800F896
:102A800000F800F800F800600000000000000000FE
:102A9000007000F800F800F800F800F800F800F8FE
:102AA00000F800F800F800F800F800F800F800F866
:102AB00000F800F800F800F800F800F800F800F856
:102AC00000600000000000000000006800F800F84E
:102AD00000F800F800F800F800F800F800F800F836
:102AE00000F800F800F800F800F800F800F800F826
:102AF00000F800F800F800F800F800680000000096
:102B000000000000006800F800F800F800F800F885
:102B100000F800F800F800F800F800F800F800F8F5
:102B200000F800F800F800F800F800F800F800F8E5
:102B300000F800F8006800000000000000000060DD
:102B400000F800F800F800F800F800F800F800F8C5
:102B500000F800F800F800F800F800F800F800F8B5
:102B600000F800F800F800F800F800F800F800702D
:102B70000000000000000000005800F000F800F81D
:102B800000F800F800F800F800F800F800F800F885
:102B900000F800F800F800F800F800F800F800F875
:102BA00000F800F800F800F80078000000000000CD
:102BB0000000005800F000F800F800F800F800F8F5
:102BC00000F800F800F800F800F800F800F800F845
:102BD00000F800F800F800F800F800F800F800F835
:102BE00000F800780000000000000000005000F035
:102BF00000F800F800F800F800F800F800F800F815
:102C000000F800F800F800F800F800F800F800F804
:102C100000F800F800F800F800F800F800D800000C
:102C200000000000000000000000000000000000A4
:102C30000000000000000000000000000000000094
:102C400000000000000000000000007800F800F81C
:102C500000F800F800F800F800D8000000000000BC
:102C60000000000000000000000000000000000064
:102C70000000000000000000000000000000000054
:102C8000000000000000007800F800F800F800F8EC
:102C900000F800F800D8000000000000000000006C
:102CA0000000000000000000000000000000000024
:102CB0000000000000000000000000000000000014
:102CC0000000007800F800F800F800F800F800F8BC
:102CD00000D800000000000000000000000000001C
:102CE00000000000000000000000000000000000E4
:102CF000000000000000000000000000000000785C
:102D000000F800F800F800F800F800F800F800F803
:102D100000F800F800F800F800F800F800F800F8F3
:102D200000F800F800F800F800F800F800F800F8E3
:102D300000F800F800F800F800F800F800F800F8D3
:1032700000F800F800F800F800F800F800D800B0F6
:10328000009000680048002800400058007800A026
:1032900000C800F800F800F800F800F800F800F89E
:1032A00000F800F800F800F800F800F800F800F85E
:1032B00000F000B8007000000000000000000000F6
:1032C00000000000000000000000000000000010EE
:1032D000008800E800F800F800F800F800F800F8AE
:1032E00000F800F800F800F800F800F8000000000E
:1032F00000000000000000000000000000000000CE
:1033000000000000000000000000000000000000BD
:1033100000A800F800F800F800F800F800F800F83D
:1033200000F800F800F800F80000000000000000BD
:10333000000000000000000000000000000000008D
:1033400000000000000000000000000000000090ED
:1033500000F800F800F800F800F800F800F800F8AD
:1033600000F800F8000000000000006800A800D08D
:1033700000E800F800F800F800F800F000D800A01D
:1033800000280000000000000000000000B000F86D
:1033900000F800F800F800F800F800F800F800F86D
:1033A000007800C000F000F800F800F800F800F81D
:1033B00000F800F800F800F800F800F800F00078D5
:1033C0000000000000000000001800F000F800F805
:1033D00000F800F800F800F800F800F800F800F82D
:1033E00000F800F800F800F800F800F800F800F81D
:1033F00000F800F800F800F800F800F80068000095
:1034000000000000000000B800F800F800F800F824
:1034100000F800F800F800F800F800F800F800F8EC
:1034200000F800F800F800F800F800F800F800F8DC
:1034300000F800F800F800F800D0000000000000DC
:103440000000008000F800F800F800F800F800F82C
:1034500000F800F800F800F800F800F800F800F8AC
:1034600000F800F800F800F800F800F800F800F89C
:1034700000F800F800F80000000000000000006004
:1034800000F800F800F800F800F800F800F800F87C
:1034900000F800F800F800F800F800F800F800F86C
:1034A00000F800F800F800F800F800F800F800F85C
:1034B00000F80028000000000000005000F800F8AC
:1034C00000F800F800F800F800F800F800F800F83C
:1034D00000F800F800F800F800F800F800F800F82C
:1034E00000F800F800F800F800F800F800F8000014
:1034F000000000000000007800F800F800F800F874
:1035000000F800F800F800F800F800F800F800F8FB
:1035100000F800F800F800F800F800F800F800F8EB
:1035200000F800F800F800F800D8000000000000E3
:10353000000000A800F800F800F800F800F800F813
:1035400000F800F800F800F800F800F800F800F8BB
:1035500000F800F800F800F800F800F800F800F8AB
:1035600000F800F80078000000000000000000E80B
:1035700000F800F800F800F800F800F800F800F88B
:1035800000F800F800F800F800F800F800F800F87B
:1035900000F800F800F800F800F800F800F80090D3
:1035A000000000000000000000A800F800F800F88B
:1035B00000F800F800F800F800F800F800F800F84B
:1035C00000F800F800F800F800F800F800F800F83B
:1035D00000F800F800D800A800400000000000003B
:1035E0000000009000F800F800F800F800F800F87B
:1035F00000F800F800F800F800F800F800F800F80B
:1036000000F800580000000000000000000000006A
:1036100000000000000000000000004000C000F8B2
:1036200000F800F800F800F800F800F800F800F8DA
:1036300000F800F800F800F800F800F800F800586A
:10364000000000000000000000000000000000007A
:103650000000007000C800F800F800F800F800F85A
:1036600000F800F800F800F800F800F800F800F89A
:1036700000F800F800F800F800F80058000000001A
:10368000000000000000000000000000000000003A
:10369000007800C800F800F800F800F800F800F81A
:1036A00000F800F800F800F800F800F800F800F85A
:1036B00000F800F800F800580000000000000000CA
:1036C00000000000000000000000000000000000FA
:1036D000006800E800F800F800F800F800F800F8CA
:1036E00000F800F800F800F800F800F800F800F81A
:1036F00000F800F800F800F800F800F800F800F012
:1037000000D0009000100000000000000000003019
:1037100000E000F800F800F800F800F800F800F801
:1037200000F800F800F800F800F800F800F800F8D9
:1037300000F800F800F800F800F800F800F800F8C9
:1037400000E800700000000000000000004000F8E9
:1037500000F800F800F800F800F800F800F800F8A9
:1037600000F800F800F800F800F800F800F800F899
:1037700000F800F800F800F800F800F800F800F889
:1037800000780000000000000000009800F800F839
:1037900000F800F800F800F800F800F800F800F869
:1037A00000F800F800F800F800F800F800F800F859
:1037B00000F800F800F800F800F800F800F8003011
:1037C000000000000000001000F000F800F800F811
:1037D00000F800F800F800F800F800F800F800F829
:1037E00000F800F800F800F800F800F800F800F819
:1037F00000F800F800F800F800F800A80000000049
:103800000000000000C800F800F800F800F800F818
:1038100000F800F800F800F800F800F800F800F8E8
:1038200000F800F800F800F800F800F800F800F8D8
:1038300000F800F800F800D80000000000000000C8
:1038400000A000F800F800F800F800F800F800F810
:1038500000F800F800F800F800F800F800F800F8A8
:1038600000F800F800F800F800F800F800F800F898
:1038700000F800F00000000000000000008800F8E0
:1038800000F800F800F800F800F800F800F800F878
:1038900000F800F800F800F800F800F800F800F868
:1038A00000F800F800F800F800F800F800F800F858
:1038B0000000000000000000008000F800F800F8A0
:1038C00000F800F800F800F800F800F800F800F838
:1038D00000F800F800F800F800F800F800F800F828
:1038E00000F800F800F800F800F800E80000000018
:1038F00000000000009800F800F800F800F800F858
:1039000000F800F800F800F800F800F800F800F8F7
:1039100000F800F800F800F800F800F800F800F8E7
:1039200000F800F800F800D00000000000000000DF
:1039300000A800F800F800F800F800F800F800F817
:1039400000F800F800F800F800F800F800F800F8B7
:1039500000F800F800F800F800F800F800F800F8A7
:1039600000F80098000000000000000000D000F8FF
:1039700000F800F800F800F800F800F800F800F887
:1039800000F800F800F800F800F800F800F800F877
:1039900000F800F800F800F800F800F800E800105F
:1039A000000000000000001000F800F800F800F827
:1039B00000F800F800F000B000F800F800F800F897
:1039C00000F800F800F800F800F800F800F800F837
:1039D00000F800F800F800F80060000000000000A7
:1039E0000000009000F800F800F800F800F800F877
:1039F00000F00000005800C000F800F800F800F8DF
:103A000000F800F800F800F800F800F800F800F8F6
:103A100000D800580000000000000000002800F05E
:103A200000F800F800F800F800F800F800F00000D6
:103A3000000000000028009000C000E000F000F846
:103A400000F800F800F800E000B80068000000008E
:103A5000000000000000000000C000F800F800F8BE
:103A600000F800F800F800F800F000000000000086
:103A70000000000000000000000000000000000046
:103A80000000000000000000000000000000000036
:103A9000000000B800F800F800F800F800F800F89E
:103AA00000F800F800F00000000000000000000036
:103AB0000000000000000000000000000000000006
:103AC00000000000000000000000005800D800F8CE
:103AD00000F800F800F800F800F800F800F800F826
:103AE00000F800E800B000580000000000000000EE
:103AF00000000000000000000000000000000000C6
:103B00000000006000C000F800F800F800F800F8BD
:103B100000F800F800F800F800F800F800F800F8E5
:103B200000F800F800F000C800A80088006000401D
:103B3000002000400060007800A000C000E800F80D
:103B400000F800F800F800F800F800F800F800F8B5
:103B500000F800F800F800F800F800F800F800F8A5
:103B600000F800F800F800F800F800F800F800F895
:103B700000F800F800F800F800F800F800F800F885
:00000001FF
