:1000000000200020450000004900000049000000D9
:1000100049000000490000004900000049000000BC
:1000200049000000490000004900000049000000AC
:10003000490000004900000049000000490000009C
:100040004900000000F002B8FEE700BF2DE9F04FC4
:1000500085B08D4C8B4D8D498D4A8E4B2046009539
:1000600000F084F99F20AB21039000208DF8100050
:1000700001908DF80800204600F046FA8648814637
:1000800000F0B0F9A068854F0522386003A920462A
:1000900000F062FA01A92046052200F06DFA8148BD
:1000A0007F490122425001680029FCD0A1687E4EA0
:1000B0003160002101609DF805000B2840F091801F
:1000C0009DF80600402840F08D807848784ADFF897
:1000D000EC81704B01681160764A016811607649C5
:1000E0006B4A0068086069494046009500F03EF997
:1000F0007348744DA847744C206838607348A8470B
:100100002068306047F66C30A847DFF8C4A1DFF8FC
:10011000C4B10121DAF8000000F03DFA6E48A847AA
:10012000DAF80000112100F036FA6C4C2046A8479E
:10013000DAF800003A2100F02EFADAF80000552132
:1001400030604046D8472046A847DAF800003621FC
:1001500000F021FADAF80000002130604046D8476C
:10016000F02000F055F9F02000F078F9DAF80000FE
:10017000132100F010FADAF80000212100F00BFA48
:1001800000F092F9DAF80000292100F004FADAF818
:100190000000332100F0FFF9DAF8000000213446B6
:1001A00030604046D84740460021D84740460121AC
:1001B000D84740464021D84740460021D8474046CE
:1001C0000021D847F0204FF4A07100F083F9444D8E
:1001D0004FF461463EB14046294600F085F9013EA4
:1001E000F8E7FEE7FEE7354E4FF416452DB13046F1
:1001F000002100F089F9013DF8E748464D4600F03E
:10020000F1F8484600F0EEF81E203C2100F062F9BB
:10021000DFF8D090DFF8A4800026B6F5E16F0FD0AC
:1002200039F8165009EB45004178404600F06CF96A
:10023000E8B219F81010404600F066F90136ECE714
:100240001F481E4E0025A0468146DAF800003721DF
:1002500038603046D847DAF800003C46AFB2390A79
:10026000C8F800003046D84730462946D8474846A7
:1002700000F0B8F80135B7F59F7F274688BF002505
:10028000E3E700BFF4130000D0130000F4130000F4
:10029000E8130000F0130000F00EF1000C05005010
:1002A000F8FEFFFF1831004008050050E813000079
:1002B000680700504807005038070050DC13000062
:1002C0008C0D0C00E5030000F8130000AA9D03004C
:1002D000EC13000009050000A42824001C6902009A
:1002E000C8130000B005000019481E4B19491C4AEC
:1002F00000240325012600689C461B4B0860164815
:1003000016499E4613686746CCF80030C1F8404154
:10031000C1F80855C1F81045C1F84005CE600E601F
:10032000D1F84031002BFBD013687746CEF800306F
:10033000C1F84041C1F80855C1F81045C1F8400561
:10034000CE600E60D1F84031002BFBD0DAE700BF61
:10035000E8130000440700500024F400008000402F
:10036000FC130000080500500C050050B0B51A4DF4
:1003700044682D682560194D84682C60184D846888
:100380002C6004680968C4F8081501681268C1F88F
:100390000C2501681A68C1F810254FF00042016869
:1003A000C1F82425049A01681268C1F84425002286
:1003B0000168C1F804210168C1F810210168C1F881
:1003C00018210168C1F820210168C1F84C210721DA
:1003D0000068C0F80015B0BDE81300000805005023
:1003E0000C050050094900220323C1F84021C1F83F
:1003F0000835C1F81025C1F840050120C860086023
:10040000D1F840010028FBD0704700BF00800040B9
:100410007FB50E4E04460E490E4D306808602846E2
:100420002A2100F071F830680B4900F0B7F800207D
:100430008DF80E00ADF80C000420029003A8019086
:1004400001A9284600F050F87FBD00BFEC13000062
:100450000C050050DC130000080500507FB50E4E5F
:1004600004460E490E4D3068086028462B2100F0E6
:100470004BF830680B4900F091F8200A8DF80E0017
:100480000020ADF80C000420029003A8019001A9FF
:10049000284600F029F87FBDEC1300000C05005041
:1004A000DC1300000805005010B5064C0649206812
:1004B000086006482C2100F027F8206804490860ED
:1004C00010BD00BFEC1300000C050050DC13000051
:1004D0000805005010B50C46FFF79AFF2046FFF7BD
:1004E000BDFFBDE81040DFE7F8B54E680C46054695
:1004F0000027BE4208BFF8BD2068C15D284600F055
:1005000003F80137F5E700BF7CB505460446104AFD
:10051000012655F8080F10608DF807100DF107013E
:100520002046012200F018F820460021002200F0A9
:1005300023F8206806612068D0F818110029FBD044
:1005400028680449086000212068C0F818117CBDA3
:100550000C0500500805005010B503680024D2B205
:10056000C3F850450368C3F848250268C2F844152B
:100570000068C0F8184110BD0368C3F83415D1B243
:100580000268C2F8381500220168C1F840250068E9
:10059000C0F8182170473860404658470860A0B23C
:1005A000FF21B0FBF1F020448DF80F007047D4D448
:1005B00000F800F800F800F800F800F800F800F87B
:1005C00000F800F800F800F800F800F800F800F86B
:1005D00000F800F800F800F800F800F800F800F85B
:1005E00000F800F800F800F800F800F800F800F84B
:1007D00000F800F800F800F800F800F800F800F061
:1007E00000D000A800700010000000000000000011
:1007F00000F000F800F800F800F800F800F800F841
:1008000000F800F800F800F800F800F800F800F828
:1008100000F800E800C00098005000000000000050
:1008200000000000000000000000000000F000F8E0
:1008300000F800F800F800F800F800F800F800F8F8
:1008400000F800F800F800F800F800F800C0000018
:100850000000000000000000000000000000000098
:10086000000000000000000000F000F800F800F8B0
:1008700000F800F800F800F800F800F800F800F8B8
:1008800000F800F800F800F800C0000000000000C8
:100890000000000000000000000000000000000058
:1008A0000000000000F000F800F800F800F800F880
:1008B00000F800F800F800F800F800F800F800F878
:1008C00000F800F800C00000000000000000006810
:1008D00000A000D000F00088000000000000000030
:1008E00000F000F800F800F800F800F800F800F850
:1008F00000F800F800F800F800F800F800F800F838
:1009000000C0008000B800D800F800F800F800F837
:1009100000F80088000000000000000000F000F86F
:1009200000F800F800F800F800F800F800F800F807
:1009300000F800F800F800F800F800F800F800F8F7
:1009400000F800F800F800F800F800F800F8008857
:10095000000000000000000000F000F800F800F8BF
:1009600000F800F800F800F800F800F800F800F8C7
:1009700000F800F800F800F800F800F800F800F8B7
:1009800000F800F800F800F800F800880000000007
:100990000000000000F000F800F800F800F800F88F
:1009A00000F800F800F800F800F800F800F800F887
:1009B00000F800F800F800F800F800F800F800F877
:1009C00000F800F800F800880000000000000000B7
:1009D00000F000F800F800F800F800F800F800F85F
:1009E00000F800F800F800F800F800F800F800F847
:1009F00000F800F800F800F800F800F800F800F837
:100A000000F80088000000000000000000F000F87E
:100A100000F800F800F800F800F800F800F800F816
:100A200000F800F800F800F800F800F800F800F806
:100A300000F800F800F800F800F800F800F8008866
:100A4000000000000000000000F000F800F800F8CE
:100A500000F800F800F800F800F800F800F800F8D6
:100A600000F800F800F800F800F800F800F800F8C6
:100A700000F800F800F800F800F800880000000016
:100A80000000000000F000F800F800F800F800F89E
:100A900000F800F800F800F800F800F800F800F896
:100AA00000F800F800F800F800F800F800F800F886
:100AB00000F800F800F800880000000000000000C6
:100AC00000F000F800F800F800F800F800F800F86E
:100AD00000F800F800F800F800F800F800F800F856
:100AE00000F800F800F800F800F800F800F800F846
:100AF00000F80088000000000000000000F000F88E
:100B000000F800F800F800F800F800F800F800F825
:100B100000F800F800F800F800F800F800F800F815
:100B200000F800F800F800F800F800F800F8008875
:100B3000000000000000000000F000F800F800F8DD
:100B400000F800F800F800F800F800F800F800F8E5
:100B500000F800F800F800F800F800F800F800F8D5
:100B600000F800F800F800F800F800880000000025
:100B70000000000000F000F800F800F800F800F8AD
:100B800000F800F800F800F800F800F800F800F8A5
:100B900000F800F800F800F800F800F800F800F895
:100BA00000F800F800F800880000000000000000D5
:100BB00000F000F800F800F800F800F800F800F87D
:100BC00000F800F800F800F800F800F800F800F865
:100BD00000F800F800F800F800F800F800F800F855
:100BE00000F80088000000000000000000F000F89D
:100BF00000F800F800F800F800F800F800F800F835
:100C000000F800F800F800F800F800F800F800F824
:100C100000F800F800F800F800F800F800F8008884
:100C2000000000000000000000F000F800F800F8EC
:100C300000F800F800F800F800F800F800F800F8F4
:100C400000F800F800F800F800F800F800F800F8E4
:100C500000F800F800F800F800F800880000000034
:100C60000000000000F000F800F800F800F800F8BC
:100C700000F800F800F800F800F800F800F800F8B4
:100C800000F800F800F800F800F800F800F800F8A4
:100C900000F800F800F800880000000000000000E4
:100CA00000F000F800F800F800F800F800F800F88C
:100CB00000F800F800F800F800F800F800F800F874
:100CC00000F800F800F800F800F800F800F800F864
:100CD00000F80088000000000000000000F000F8AC
:100CE00000F800F800F800F800F800F800F800F844
:100CF00000F800F800F800F800F800F800F800F834
:100D000000F800F800F800F800F800F800F8008893
:100D1000000000000000000000F000F800F800F8FB
:100D200000F800F800F800F800F800F800F800F803
:100D300000F800F800F800F800F800F800F800F8F3
:100D400000F800F800F800F800F800880000000043
:100D50000000000000F000F800F800F800F800F8CB
:100D600000F800F800F800F800F800F800F800F8C3
:100D700000F800F800F800F800F800F800F800F8B3
:100D800000F800F800F800880000000000000000F3
:100D900000F000F800F800F800F800F800F800F89B
:100DA00000F800F800F800F800F800F800F800F883
:100DB00000F800F800F800F800F800F800F800F873
:100DC00000F80088000000000000000000F000F8BB
:100DD00000F800F800F800F800F800F800F800F853
:100DE00000F800F800F800F800F800F800F800F843
:100DF00000F800F800F800F800F800F800F80088A3
:100E0000000000000000000000F000F800F800F80A
:100E100000F800F800F800F800F800F800F800F812
:100E200000F800F800F800F800F800F800F800F802
:100E300000F800F800F800F800F800880000000052
:100E40000000000000F000F800F800F800F800F8DA
:100E500000F800F800F800F800F800F800F800F8D2
:100E600000F800F800F800F800F800F800F800F8C2
:100E700000F800F800F80088000000000000000002
:100E800000F000F800F800F800F800F800F800F8AA
:100E900000F800F800F800F800F800F800F800F892
:100EA00000F800F800F800F800F800F800F800F882
:100EB00000F80088000000000000000000F000F8CA
:100EC00000F800F800F800F800F800F800F800F862
:100ED00000F800F800F800F800F800F800F800F852
:100EE00000F800F800F800F800F800F800F80088B2
:100EF000000000000000000000F000F800F800F81A
:100F000000F800F800F800F800F800F800F800F821
:100F100000F800F800F800F800F800F800F800F811
:100F200000F800F800F800F800F800880000000061
:100F30000000000000F000F800F800F800F800F8E9
:100F400000F800F800F800F800F800F800F800F8E1
:100F500000F800F800F80078000000000000000031
:100F60000000000000000000000000000000000081
:100F70000000000000000000000000000000000071
:100F800000E800F800F800F800F800F800F800F8B1
:100F900000F80078000000000000000000000000E1
:100FA0000000000000000000000000000000000041
:100FB00000000000000000000000000000E800F851
:100FC00000F800F800F800F800F800F800F80078E1
:100FD0000000000000000000000000000000000011
:100FE0000000000000000000000000000000000001
:100FF000000000000000000000E800F800F800F821
:1010000000F800F800F800F800F800780000000090
:1010100000000000000000000000000000000000D0
:1010200000000000000000000000000000000000C0
:101030000000000000E800F800F800F800F800F8F0
:1010400000F800F800F800F800F800F800F800F8E0
:1010500000F800F800F800F800F800F800F800F8D0
:1010600000F800F800F800F800F800F800F800F8C0
:1010700000F800F800F800F800F800F800F800F8B0
:1013C0009F00000000FFFF00C513000002000000A6
:1013D00000300040140700502000000000300040A2
:1013E0006407005000000002030000000000040039
:1013F00004000000020000000000000400000200E1
:1014000044ECFF7F0100000040ECFF7F0100000082
:101410003CECFF7F01000000D0EEFF7F01000000E8
:101420004CEFFF7F01000000BCEFFF7F01000000D8
:10143000E0EFFF7F0100000024F0FF7F01000000CB
:1014400068F0FF7F010000008CF0FF7F01000000CA
:1014500098F0FF7F01000000B0F0FF7F0100000066
:10146000F8F0FF7F0100000010F1FF7F0100000095
:1014700026F1FF7F0100000024F1FF7F0100000042
:081480002EF1FF7F01000000C6
:00000001FF
