:1000000000200020450000004900000049000000D9
:1000100049000000490000004900000049000000BC
:1000200049000000490000004900000049000000AC
:10003000490000004900000049000000490000009C
:100040004900000000F002B8FEE700BF2DE9FE4FB6
:10005000694D684C69496A4A6A4B2846009400F029
:100060003DF99F20AB21029000200190284600F02E
:10007000F3F9654E304600F06DF9A868634F04222D
:10008000386002A9284600F00FFA01A92846042288
:1000900000F01AFA5F485E490122425001680029C7
:1000A000FCD0A9685C4A1160002101609DF8050040
:1000B0001B287ED19DF8060040287BD157489246E8
:1000C000574A5A4D4F4BB14601681160554A016875
:1000D000116055494A4A006808604849284600941A
:1000E00000F0FCF85248DFF84C81C047524C2068C1
:1000F00038605248C0472068CAF8000047F66C30A4
:10010000C0474F4E4F4C0121306800F0FCF94E487B
:10011000C0473068112100F0F6F94C488346C047CB
:1001200030683A2100F0EFF930685521CAF8000034
:100130002846A0475846C0473068362100F0E3F90A
:1001400000F0E4F9F02000F01BF9F02000F036F99F
:100150003068132100F0D7F93068212100F0D3F97D
:1001600000F04AF93068292100F0CDF930683321D8
:1001700000F0C9F900F0CAF928460021A047284636
:100180000121A04728464021A04728460021A0473A
:1001900028460021A047F020F02100F043F92C4E22
:1001A0004FF461443CB12846314600F045F9013C2A
:1001B000F8E7FEE7FEE7484600F0CCF81D203B21BB
:1001C00000F030F9234E194C0025B5F5E16F08BF5A
:1001D000BDE8FE8F36F81570204616F8171000F0AF
:1001E0003BF9380A16F81010204600F035F90135B1
:1001F000EBE700BF58130000341300005813000051
:100200004C13000054130000F00EF1000C050050D8
:10021000F8FEFFFF18310040080500504C130000A5
:10022000680700504807005038070050401300008E
:100230008C0D0C00550300005C130000AA9D030008
:100240005013000059040000A42824001C69020077
:100250002C1300001805000019481E4B19491C4AB0
:1002600000240325012600689C461B4B08601648A5
:1002700016499E4613686746CCF80030C1F84041E5
:10028000C1F80855C1F81045C1F84005CE600E60B0
:10029000D1F84031002BFBD013687746CEF8003000
:1002A000C1F84041C1F80855C1F81045C1F84005F2
:1002B000CE600E60D1F84031002BFBD0DAE700BFF2
:1002C0004C130000440700500024F400008000405C
:1002D00060130000080500500C050050B0B51A4D21
:1002E00044682D682560194D84682C60184D846819
:1002F0002C6004680968C4F8081501681268C1F820
:100300000C2501681A68C1F810254FF000420168F9
:10031000C1F82425049A01681268C1F84425002216
:100320000168C1F804210168C1F810210168C1F811
:1003300018210168C1F820210168C1F84C2107216A
:100340000068C0F80015B0BD4C130000080500504F
:100350000C050050094900220323C1F84021C1F8CF
:100360000835C1F81025C1F840050120C8600860B3
:10037000D1F840010028FBD0704700BF008000404A
:100380007FB50A4E04460A490A4D3068086028467F
:100390002A2100F061F83068074900F0A4F803A8AA
:1003A000019001A9284600F047F87FBD50130000D6
:1003B0000C05005040130000080500507FB50A4EA0
:1003C00004460A490A4D3068086028462B2100F08F
:1003D00043F83068074900F086F803A8019001A9A6
:1003E000284600F029F87FBD501300000C0500508E
:1003F000401300000805005010B5064C064920685F
:10040000086006482C2100F027F82068044908609D
:1004100010BD00BF501300000C0500504013000039
:100420000805005010B50C46FFF7AAFF2046FFF75D
:10043000C5FFBDE81040DFE7F8B54E680C4605463D
:100440000027BE4208BFF8BD2068C15D284600F005
:1004500003F80137F5E700BF7CB505460446104AAE
:10046000012655F8080F10608DF807100DF10701EF
:100470002046012200F018F820460021002200F05A
:1004800023F8206806612068D0F818110029FBD0F5
:1004900028680449086000212068C0F818117CBD54
:1004A0000C0500500805005010B503680024D2B2B6
:1004B000C3F850450368C3F848250268C2F84415DC
:1004C0000068C0F8184110BD0368C3F83415D1B2F4
:1004D0000268C2F8381500220168C1F8402500689A
:1004E000C0F8182170470860A0B2FF21B0FBF1F0FE
:1004F00020448DF80F0000208DF80E00ADF80C00A0
:100500000420029070473860284620473068002158
:10051000CAF800002846204700F800F800F800F864
:1005200000F800F800F800F800F800F800F800F80B
:1005300000F800F800F800F800F800F800F800F8FB
:1005400000F800F800F800F800F800F800F800F8EB
:1005500000F800F800F800F800F800F800F800F8DB
:1005600000F800F800F800F800F800F800F800F8CB
:1005700000F800F800F800F800F800F800F800F8BB
:1005800000F800F800F800F800F800F800F800F8AB
:1005900000F800F800F800F800F800F800F800F89B
:1005A00000F800F800F800F800F800F800F800F88B
:1005B00000F800F800F800F800F800F800F800F87B
:1005C00000F800F800F800F800F800F800F800F86B
:1005D00000F800F800F800F800F800F800F800F85B
:1005E00000F800F800F800F800F800F800F800F84B
:1005F00000F800F800F800F800F800F800F800F83B
:1006000000F800F800F800F800F800F800F800F82A
:1006100000F800F800F800F800F800F800F800F81A
:1006200000F800F800F800F800F800F800F800F80A
:1006300000F800F800F800F800F800F800F800F8FA
:1006400000F800F800F800F800F800F800F800F8EA
:1006500000F800F800F800F800F800F800F800F8DA
:1006600000F800F800F800F800F800F800F800F8CA
:1006700000F800F800F800F800F800F800F800F8BA
:1006800000F800F800F800F800F800F800F800F8AA
:1006900000F800F800F800F800F800F800F800F89A
:1006A00000F800F800F800F800F800F800F800F88A
:1006B00000F800F800F800F800F800F800F800F87A
:1006C00000F800F800F800F800F800F800F800F86A
:1006D00000F800F800F800F800F800F800F800F85A
:1006E00000F800F800F800F800F800F800F800F84A
:1006F00000F800F800F800F800F800F800F800F83A
:1007000000F800F800F800E000C000A000780058F1
:100710000038002800500070009800C000E800F881
:1007200000F800F800F800F800F800F800F800F809
:1007300000F800F800F800F800F800F000C00080B1
:100740000028000000000000000000000000000081
:1007500000000000000000000000008000D800F849
:1007600000F800F800F800F800F800F800F800F8C9
:1007700000F800F800F80000000000000000000091
:100780000000000000000000000000000000000069
:100790000000000000000000000000A000F800F8C9
:1007A00000F800F800F800F800F800F800F800F889
:1007B00000F8000000000000000000000000000041
:1007C0000000000000000000000000000000000029
:1007D0000000000000000000007800F800F800F8B9
:1007E00000F800F800F800F800F800F800F8000041
:1007F0000000000000000028008800B800E000F0C1
:1008000000F800F800F800E000B000380000000038
:10081000000000000000008800F800F800F800F870
:1008200000F800F800F800F800F800000000007878
:1008300000C800F800F800F800F800F800F800F828
:1008400000F800F800F800F8008800000000000040
:100850000000000000D000F800F800F800F800F8F0
:1008600000F800F800F8009000E000F800F800F848
:1008700000F800F800F800F800F800F800F800F8B8
:1008800000F800F800F80080000000000000000000
:10089000006000F800F800F800F800F800F800F830
:1008A00000F800F800F800F800F800F800F800F888
:1008B00000F800F800F800F800F800F800F800F878
:1008C00000F800F00030000000000000000000F020
:1008D00000F800F800F800F800F800F800F800F858
:1008E00000F800F800F800F800F800F800F800F848
:1008F00000F800F800F800F800F800F800F800F838
:100900000098000000000000000000C800F800F897
:1009100000F800F800F800F800F800F800F800F817
:1009200000F800F800F800F800F800F800F800F807
:1009300000F800F800F800F800F800F800C800001F
:1009400000000000000000B800F800F800F800F80F
:1009500000F800F800F800F800F800F800F800F8D7
:1009600000F800F800F800F800F800F800F800F8C7
:1009700000F800F800F800F800D0000000000000C7
:10098000000000B000F800F800F800F800F800F8E7
:1009900000F800F800F800F800F800F800F800F897
:1009A00000F800F800F800F800F800F800F800F887
:1009B00000F800F800C0000000000000000000C0C7
:1009C00000F800F800F800F800F800F800F800F867
:1009D00000F800F800F800F800F800F800F800F857
:1009E00000F800F800F800F800F800F800F800F847
:1009F00000A0000000000000000000D000F800F897
:100A000000F800F800F800F800F800F800F800F826
:100A100000F800F800F800F800F800F800F800F816
:100A200000F800F800F800F800F800F800400000B6
:100A300000000000000000F800F800F800F800F8DE
:100A400000F800F800F800F800F800F800F800F8E6
:100A500000F800F800F800F800F800F800F800F8D6
:100A600000F800F800F800C80000000000000000D6
:100A7000007800F800F800F800F800F800F800F836
:100A800000F800F800F800F800F800F800F800F8A6
:100A900000F800F800F800F800F800F800F800F896
:100AA00000F80048000000000000000000D000F83E
:100AB00000F800F800F800F800F800F800F800F876
:100AC00000F800F800F800F800F800F800F800F866
:100AD00000F800F800F800F800F800F800900000B6
:100AE000000000000000008000F800F800F800F8A6
:100AF00000F800F800F800F800F800F800F800F836
:100B000000F800F800F800F800F800F800F800F825
:100B100000F800F800F800C000000000000000002D
:100B2000003000F000F800F800F800F800F800F8D5
:100B300000F800F800F800F800F800F800F800F8F5
:100B400000F800F800F800F800F800F800F800F8E5
:100B500000D80010000000000000000000C800F8ED
:100B600000F800F800F800F800F800F800F800F8C5
:100B700000F800F800F800F800F800F800F800F8B5
:100B800000F800F800F800F800F800E0003000007D
:100B900000000000000000A000F800F800F800F8D5
:100BA00000F800F800F800F800F800F800F800F885
:100BB00000F800F800F800F800F800F800F800F875
:100BC00000F800F800E8004000000000000000000D
:100BD000009800F800F800F800F800F800F800F8B5
:100BE00000F800F800F800F800F800F800F800F845
:100BF00000F800F800F800F800F800F800F800E845
:100C000000480000000000000000008800F800F824
:100C100000F800F800F800F800F800F800F800F814
:100C200000F800F800F800F800F800F800F800F804
:100C300000F800F800F800F800F000500000000094
:100C400000000000008800F800F800F800F800F844
:100C500000F800F800F800F800F800F800F800F8D4
:100C600000F800F800F800F800F800F800F800F8C4
:100C700000F800F0005800000000000000000080B4
:100C800000F800F800F800F800F800F800F800F8A4
:100C900000F800F800F800F800F800F800F800F894
:100CA00000F800F800F800F800F800F800F000582C
:100CB0000000000000000000007800F800F800F8D4
:100CC00000F800F800F800F800F800F800F800F864
:100CD00000F800F800F800F800F800F800F800F854
:100CE00000F800F800F800F00060000000000000CC
:100CF0000000007000F800F800F800F800F800F8B4
:100D000000F800F800F800F800F800F800F800F823
:100D100000F800F800F800F800F800F800F800F813
:100D200000F800600000000000000000007000F803
:100D300000F800F800F800F800F800F800F800F8F3
:100D400000F800F800F800F800F800F800F800F8E3
:100D500000F800F800F800F800F800F80060000063
:100D6000000000000000006800F800F800F800F83B
:100D700000F800F800F800F800F800F800F800F8B3
:100D800000F800F800F800F800F800F800F800F8A3
:100D900000F800F800F80068000000000000000003
:100DA000006800F800F800F800F800F800F800F813
:100DB00000F800F800F800F800F800F800F800F873
:100DC00000F800F800F800F800F800F800F800F863
:100DD00000680000000000000000006000F800F85B
:100DE00000F800F800F800F800F800F800F800F843
:100DF00000F800F800F800F800F800F800F800F833
:100E000000F800F800F800F800F80070000000009A
:100E100000000000005800F000F800F800F800F8AA
:100E200000F800F800F800F800F800F800F800F802
:100E300000F800F800F800F800F800F800F800F8F2
:100E400000F800F8007800000000000000000058E2
:100E500000F000F800F800F800F800F800F800F8DA
:100E600000F800F800F800F800F800F800F800F8C2
:100E700000F800F800F800F800F800F800F8007832
:100E80000000000000000000005000F000F800F832
:100E900000F800F800F800F800F800F800F800F892
:100EA00000F800F800F800F800F800F800F800F882
:100EB00000F800F800F800F800D80000000000007A
:100EC0000000000000000000000000000000000022
:100ED0000000000000000000000000000000000012
:100EE000000000000000007800F800F800F800F8AA
:100EF00000F800F800D8000000000000000000002A
:100F000000000000000000000000000000000000E1
:100F100000000000000000000000000000000000D1
:100F20000000007800F800F800F800F800F800F879
:100F300000D80000000000000000000000000000D9
:100F400000000000000000000000000000000000A1
:100F50000000000000000000000000000000007819
:100F600000F800F800F800F800F800F800D80000D9
:100F70000000000000000000000000000000000071
:100F80000000000000000000000000000000000061
:100F900000000000000000000000007800F800F8E9
:100FA00000F800F800F800F800F800F800F800F881
:100FB00000F800F800F800F800F800F800F800F871
:100FC00000F800F800F800F800F800F800F800F861
:100FD00000F800F800F800F800F800F800F800F851
:1013200000F800F800F800F8FFFF000028130000A4
:1013300002000000003000401407005020000000B0
:10134000003000406407005000000002030000006D
:10135000000004000400000002000000000000047F
:1013600000000200E0ECFF7F01000000DCECFF7FEA
:1013700001000000D8ECFF7F01000000DCEEFF7FE1
:101380000100000058EFFF7F01000000C8EFFF7F61
:1013900001000000ECEFFF7F0100000020F0FF7F64
:1013A0000100000054F0FF7F0100000078F0FF7F93
:1013B0000100000084F0FF7F010000009CF0FF7F2F
:1013C00001000000E4F0FF7F01000000FCF0FF7F5F
:1013D0000100000012F1FF7F010000002AF1FF7FF1
:1013E0000100000028F1FF7F010000002CF1FF7FC9
:0413F00001000000F8
:00000001FF
