:1000000000200020450000004900000049000000D9
:1000100049000000490000004900000049000000BC
:1000200049000000490000004900000049000000AC
:10003000490000004900000049000000490000009C
:100040004900000000F002B8FEE700BF2DE9F04FC4
:10005000C5B07C4D7A4C7C497C4A7D4B2846009447
:1000600000F064F99F20AB21449000204390284683
:1000700000F01AFA7748824600F094F9A868764FA3
:100080000422386044A9284600F036FA43A92846DD
:10009000042200F041FA7249704A01208850086831
:1000A0000028FCD0A8686F4E3060002008609DF8E2
:1000B0000D010B287ED19DF80E0140287BD16A48A6
:1000C0006A4A6D4D624B01681160694A01681160AE
:1000D00068495E4A006808605B492846009400F061
:1000E00025F96648DFF89881C047664C206838607B
:1000F0006548C0472068306047F66C30C047B3465B
:10010000624E634C0121306800F015FA6148C04727
:100110003068112100F00FFA5F488146C04730680F
:100120003A2100F008FA3068552100F012FA4846EA
:10013000C0473068362100F0FEF93068002100F039
:1001400008FAF02000F044F9F02000F05FF9306880
:10015000132100F0F0F93068212100F0ECF900F0F3
:1001600073F93068292100F0E6F93068332100F096
:10017000E2F93068002100F0ECF928460021A047A0
:1001800028460121A04728464021A04728460021B3
:10019000A04728460021A047F020F02100F06AF98E
:1001A0003E4E4FF461443CB12846314600F06CF9B4
:1001B000013CF8E7FEE7FEE75046B84600F0F2F8EB
:1001C0001D203B2100F056F9354F2B4C0026B6F58B
:1001D000E16F0DD037F8160037F810502046290A85
:1001E00000F062F92046294600F05EF90136EEE79C
:1001F00004ADFA21FA26284600F0AFF907200721BE
:10020000CDE9025600F036F926480121C16046606A
:1002100002AA0260124A002010609146A068C8F845
:1002200000000E481150D9F800000028FBD0A0684B
:100230000C4908600020C9F8000045B0BDE8F08F07
:10024000B01300008C130000B0130000A4130000D2
:10025000AC130000F00EF1000C050050F8FEFFFF9B
:100260001831004008050050A41300006807005032
:100270004807005038070050981300008C0D0C0000
:10028000A5030000B4130000AA9D0300A8130000FA
:10029000A9040000A42824001C69020084130000A3
:1002A000700500004435004019481E4B19491C4A8E
:1002B00000240325012600689C461B4B0860164855
:1002C00016499E4613686746CCF80030C1F8404195
:1002D000C1F80855C1F81045C1F84005CE600E6060
:1002E000D1F84031002BFBD013687746CEF80030B0
:1002F000C1F84041C1F80855C1F81045C1F84005A2
:10030000CE600E60D1F84031002BFBD0DAE700BFA1
:10031000A4130000440700500024F40000800040B3
:10032000B8130000080500500C050050B0B51A4D78
:1003300044682D682560194D84682C60184D8468C8
:100340002C6004680968C4F8081501681268C1F8CF
:100350000C2501681A68C1F810254FF000420168A9
:10036000C1F82425049A01681268C1F844250022C6
:100370000168C1F804210168C1F810210168C1F8C1
:1003800018210168C1F820210168C1F84C2107211A
:100390000068C0F80015B0BDA413000008050050A7
:1003A0000C050050094900220323C1F84021C1F87F
:1003B0000835C1F81025C1F840050120C860086063
:1003C000D1F840010028FBD0704700BF00800040FA
:1003D0007FB50A4E04460A490A4D3068086028462F
:1003E0002A2100F061F83068074900F0A7F803A857
:1003F000019001A9284600F047F87FBDA81300002E
:100400000C05005098130000080500507FB50A4EF7
:1004100004460A490A4D3068086028462B2100F03E
:1004200043F83068074900F089F803A8019001A952
:10043000284600F029F87FBDA81300000C050050E5
:10044000981300000805005010B5064C06492068B6
:10045000086006482C2100F027F82068044908604D
:1004600010BD00BFA81300000C0500509813000039
:100470000805005010B50C46FFF7AAFF2046FFF70D
:10048000C5FFBDE81040DFE7F8B54E680C460546ED
:100490000027BE4208BFF8BD2068C15D284600F0B5
:1004A00003F80137F5E700BF7CB505460446104A5E
:1004B000012655F8080F10608DF807100DF107019F
:1004C0002046012200F018F820460021002200F00A
:1004D00023F8206806612068D0F818110029FBD0A5
:1004E00028680449086000212068C0F818117CBD04
:1004F0000C0500500805005010B503680024D2B266
:10050000C3F850450368C3F848250268C2F844158B
:100510000068C0F8184110BD0368C3F83415D1B2A3
:100520000268C2F8381500220168C1F84025006849
:10053000C0F818217047386028462047086000201E
:100540008DF80F408DF80E00ADF80C0004200290DD
:100550007047CBF80000284620470A46002100F0EB
:1005600000B800239A4208BF7047C1540133F9E72D
:1005700000F800F800F800F800F800F800F800F8BB
:1005800000F800F800F800F800F800F800F800F8AB
:1005900000F800F800F800F800F800F800F800F89B
:1005A00000F800F800F800F800F800F800F800F88B
:1007A00000F800F800F800F800F800F800880000F1
:1007B0000000000000000000007800F800F800F8D9
:1007C00000F800F800F800F800F800F800F800F869
:1007D00000F800F800F800F800F800F800F800F859
:1007E00000F800F800F800C8000000000000000059
:1007F00000000000007800F800F800F800F800F8A9
:1008000000F800F800F800F800F800F800F800F828
:1008100000F800F800F800F800F800F800F800F818
:1008200000F00038000000000000000000000000A0
:10083000007800F800F800F800F800F800F800F878
:1008400000F800F800F800F800F800F800F800F8E8
:1008500000F800F800F800F800F800F80080000048
:10086000000000000000000000000000007800F818
:1008700000F800F800F800F800F800F800F800F8B8
:1008800000F800F800F800F800F800F800F800F8A8
:1008900000F800F800F800C8000000000000008820
:1008A0000000000000000000007800F800F800F8E8
:1008B00000F800F800F800F800F800F800F800F878
:1008C00000F800F800F800F800F800F800F800F868
:1008D00000F0003000000000005000E800000000C0
:1008E00000000000007800F800F800F800F800F8B8
:1008F00000F800F800F800F800F800F800F800F838
:1009000000F800F800F800F800F800F80080000097
:100910000000000000D800F8000000000000000007
:10092000007800F800F800F800F800F800F800F887
:1009300000F800F800F800F800F800F800F800F8F7
:1009400000F800F800F800C0000000000000009867
:1009500000F800F80000000000000000007800F837
:1009600000F800F800F800F800F800F800F800F8C7
:1009700000F800F800F800F800F800F800F800F8B7
:1009800000F0002800000000004800F800F800F81F
:100990000000000000000000007800F800F800F8F7
:1009A00000F800F800F800F800F800F800F800F887
:1009B00000F800F800F800F800F800F800780000EF
:1009C0000000000000D000F800F800F8000000006F
:1009D00000000000007800F800F800F800F800F8C7
:1009E00000F800F800F800F800F800F800F800F847
:1009F00000F800F800F800B80000000000000098BF
:100A000000F800F800F800F8000000000000000006
:100A1000007800F800F800F800F800F800F800F896
:100A200000F800F800F800F800F800F800F800F806
:100A300000E8002800000000004800F800F800F876
:100A400000F800F80000000000000000007800F846
:100A500000F800F800F800F800F800F800F800F8D6
:100A600000F800F800F800F800F800F80070000046
:100A70000000000000D000F800F800F800F800F8CE
:100A80000000000000000000007800F800F800F806
:100A900000F800F800F800F800F800F800F800F896
:100AA00000F800F800F800B000000000000000901E
:100AB00000F800F800F800F800F800F80000000066
:100AC00000000000007800F800F800F800F800F8D6
:100AD00000F800F800F800F800F800F800F800F856
:100AE00000E8001800000000004000F800F800F8DE
:100AF00000F800F800F800F8000000000000000016
:100B0000007800F800F800F800F800F800F800F8A5
:100B100000F800F800F800F800F800F8006800009D
:100B20000000000000D000F800F800F800F800F81D
:100B300000F800F80000000000000000007800F855
:100B400000F800F800F800F800F800F800F800F8E5
:100B500000F800F800F800B0000000000000008875
:100B600000F800F800F800F800F800F800F800F8C5
:100B70000000000000000000007800F800F800F815
:100B800000F800F800F800F800F800F800F800F8A5
:100B900000E0001000000000004000F800F800F83D
:100BA00000F800F800F800F800F800F80000000075
:100BB00000000000007800F800F800F800F800F8E5
:100BC00000F800F800F800F800F800F800600000F5
:100BD0000000000000C800F800F800F800F800F875
:100BE00000F800F800F800F8000000000000000025
:100BF000007800F800F800F800F800F800F800F8B5
:100C000000F800F800F800A80000000000000088CC
:100C100000F800F800F800F800F800F800F800F814
:100C200000F800F80000000000000000007800F864
:100C300000F800F800F800F800F800F800F800F8F4
:100C400000E0000000000000003800F000F800F8AC
:100C500000F800F800F800F800F800F800F800F8D4
:100C60000000000000000000007800F800F800F824
:100C700000F800F800F800F800F800F8005800004C
:100C80000000000000C800F800F800F800F800F8C4
:100C900000F800F800F800F800F800F80000000084
:100CA00000000000007800F800F800F800F800F8F4
:100CB00000F800F800F800B8000000000000008014
:100CC00000F800F800F800F800F800F800F800F864
:100CD00000F800F800F800F8000000000000000034
:100CE000007800F800F800F800F800F800F800F8C4
:100CF00000F800B00000000000000000000000004C
:100D000000000000000000000000000000000000E3
:100D100000000000000000000000000000000000D3
:100D2000000000000000000000F800F800F800B02B
:100D300000000000000000000000000000000000B3
:100D400000000000000000000000000000000000A3
:100D50000000000000000000000000000000000093
:100D60000000000000F800F800F800B000000000EB
:100D70000000000000000000000000000000000073
:100D80000000000000000000000000000000000063
:100D90000000000000000000000000000000000053
:100DA00000F800F800F800B00000000000000000AB
:100DB0000000000000000000000000000000000033
:100DC0000000000000000000000000000000000023
:100DD00000000000000000000000000000F800F823
:100DE00000F800F800F800F800F800F800F800F843
:100DF00000F800F800F800F800F800F800F800F833
:100E000000F800F80000000000000000007800F882
:100E100000F800F800F800F800F800F800F800F812
:100E200000F800F800F800F800F800F800F800F802
:100E300000F800F800F800F800F800F800F800F8F2
:100E40000000000000000000007800F800F800F842
:100E500000F800F800F800F800F800F800F800F8D2
:100E600000F800F800F800F800F800F800F800F8C2
:100E700000F800F800F800F800F800F800000000A2
:100E800000000000007800F800F800F800F800F812
:100E900000F800F800F800F800F800F800F800F892
:100EA00000F800F800F800F800F800F800F800F882
:100EB00000F800F800F800F8000000000000000052
:100EC000007800F800F800F800F800F800F800F8E2
:100ED00000F800F800F800F800F800F800F800F852
:100EE00000F800F800F800F800F800F800F800F842
:100EF00000F800F80000000000000000007800F892
:100F000000F800F800F800F800F800F800F800F821
:100F100000F800F800F800F800F800F800F800F811
:100F200000F800F800F800F800F800F800F800F801
:100F30000000000000000000007800F800F800F851
:100F400000F800F800F800F800F800F800F800F8E1
:100F500000F800F800F800F800F800F800F800F8D1
:100F600000F800F800F800F800F800F800000000B1
:100F700000000000007800F800F800F800F800F821
:100F800000F800F800F800F800F800F800F800F8A1
:100F900000F800F800F800F800F800F800F800F891
:100FA00000F800F800F800F8000000000000000061
:100FB000007800F800F800F800F800F800F800F8F1
:100FC00000F800F800F800F800F800F800F800F861
:100FD00000F800F800F800F800F800F800F800F851
:100FE00000F800F80000000000000000007800F8A1
:100FF00000F800F800F800F800F800F800F800F831
:1010000000F800F800F800F800F800F800F800F820
:1010100000F800F800F800F800F800F800F800F810
:1010200000F800F800F800F800F800F800F800F800
:10138000FFFF00008013000002000000003000405A
:101390001407005020000000003000406407005097
:1013A0000000000203000000000004000400000030
:1013B00002000000000000040000020088ECFF7F33
:1013C0000100000084ECFF7F0100000080ECFF7F43
:1013D00001000000D4EEFF7F0100000050EFFF7F0E
:1013E00001000000C0EFFF7F01000000E4EFFF7F7D
:1013F0000100000018F0FF7F010000004CF0FF7FAB
:101400000100000070F0FF7F010000007CF0FF7F12
:101410000100000094F0FF7F01000000DCF0FF7F7E
:1014200001000000F4F0FF7F010000000AF1FF7FDF
:101430000100000008F1FF7F0100000016F1FF7FAE
:0C144000010000002CF1FF7F0100000003
:00000001FF
