:1000000000200020450000004900000049000000D9
:1000100049000000490000004900000049000000BC
:1000200049000000490000004900000049000000AC
:10003000490000004900000049000000490000009C
:100040004900000000F002B8FEE700BF2DE9F04FC4
:1000500093B07B4D794C7B497B4A7C4B284600947E
:1000600000F076F99F20AB211290002011902846D5
:1000700000F020FA7648834600F012F9A868754E21
:100080000422306012A9284600F03CFA11A9284643
:10009000042200F047FA71486F490122425001687A
:1000A0000029FCD0A9686E4F3960002101609DF8DD
:1000B00045000B2804D19DF84600402801D0FEE7FA
:1000C000FEE76848684A6B4D604B01681160674AFB
:1000D0000168116066495C4A006808605949284611
:1000E000009400F035F96448DFF890A1D047644CE3
:1000F000206830606348D0472068386047F66C302D
:10010000D047DFF88491DFF884810121D9F800001D
:1001100000F017FA5E48D047D9F80000112100F02E
:1001200010FA5C4C2046D047D9F800003A2100F084
:1001300008FAD9F80000552138602846C047204603
:10014000D047D9F80000362100F0FBF900F0FFF9A4
:100150000020F02100F038F90020F02100F056F9DD
:10016000D9F80000132100F0ECF9D9F800002121A2
:1001700000F0E7F900F06CF9D9F80000292100F04F
:10018000E0F9D9F80000332100F0DBF900F0DFF9E5
:1001900000F0DAF928460121C04728464021C0472F
:1001A00000F0D2F900F0D0F900200021F022F02375
:1001B00000F064F9384E4FF461442CB128463146C2
:1001C00000F069F9013CF8E7584600F069F80020B2
:1001D00000211D223B23002400F050F92F4F254D14
:1001E000B4F5E16F0DD037F8140037F810602846E9
:1001F000310A00F05FF92846314600F05BF901341E
:10020000EEE704AD322144223224284600F0B3F94F
:10021000CDE902540A4D06212846C047284602214E
:10022000C04700F091F900F08FF900F08DF902A9B4
:10023000284600F030F9584600F032F8D01300009C
:10024000B8130000D0130000C4130000CC1300004A
:10025000F00EF1000C050050F8FEFFFF18310040D1
:1002600008050050C41300006807005048070050FC
:1002700038070050AC1300008C0D0C00A1020000E8
:10028000D4130000AA9D0300C8130000B5040000A9
:10029000A42824001C690200A4130000900500009B
:1002A000094900220323C1F84021C1F80835C1F8EB
:1002B0001025C1F840050120C8600860D1F8400150
:1002C0000028FBD0704700BF0080004019481E4B3B
:1002D00019491C4A00240325012600689C461B4B33
:1002E0000860164816499E4613686746CCF80030E9
:1002F000C1F84041C1F80855C1F81045C1F84005A2
:10030000CE600E60D1F84031002BFBD013687746E9
:10031000CEF80030C1F84041C1F80855C1F8104589
:10032000C1F84005CE600E60D1F84031002BFBD003
:10033000DAE700BFC4130000440700500024F400B3
:1003400000800040D8130000080500500C05005044
:10035000B0B51A4D44682D682560194D84682C602D
:10036000184D84682C6004680968C4F80815016891
:100370001268C1F80C2501681A68C1F810254FF001
:1003800000420168C1F82425049A01681268C1F886
:10039000442500220168C1F804210168C1F8102138
:1003A0000168C1F818210168C1F820210168C1F86D
:1003B0004C2107210068C0F80015B0BDC41300002F
:1003C000080500500C050050FEB50C4F0C460546C4
:1003D0000B490C4E3868086030462A2100F06AF854
:1003E0003868094900F0C0F8694600F0B6F802A87C
:1003F0000090304600F04FF8FEBD00BFC81300006B
:100400000C050050AC13000008050050FEB50C4F61
:100410000C4605460B490C4E3868086030462B21C7
:1004200000F048F83868094900F09EF8694600F085
:1004300094F802A80090304600F02DF8FEBD00BFF1
:10044000C81300000C050050AC1300000805005054
:1004500010B5064C06492068086006482C2100F0BB
:1004600029F820680449086010BD00BFC8130000C7
:100470000C050050AC13000008050050B0B50D4647
:1004800011461C46FFF7A0FF28462146FFF7BEFF96
:10049000BDE8B040DCE7F8B54E680C4605460027DD
:1004A000BE4208BFF8BD2068C15D284600F002F8D2
:1004B0000137F5E77CB505460446104A012655F894
:1004C000080F10608DF807100DF10701204601227A
:1004D00000F018F820460021002200F023F82068E0
:1004E00006612068D0F818110029FBD0286804495B
:1004F000086000212068C0F818117CBD0C05005070
:100500000805005010B503680024D2B2C3F8504566
:100510000368C3F848250268C2F844150068C0F8AB
:10052000184110BD0368C3F83415D1B20268C2F88F
:10053000381500220168C1F840250068C0F818216C
:100540007047306028464047284600214047D9F888
:10055000000000213860284640478DF80A008DF8D9
:100560000800042001907047086000208DF80B40BF
:100570008DF8095070470B4611461A4600F000B836
:1005800000239A4208BF7047C1540133F9E7D4D41D
:1005900000F800F800F800F800F800F800F800F89B
:1005A00000F800F800F800F800F800F800F800F88B
:1005B00000F800F800F800F800F800F800F800F87B
:1005C00000F800F800F800F800F800F800F800F86B
:1005D00000F800F800F800F800F800F800F800F85B
:1005E00000F800F800F800F800F800F800F800F84B
:1005F00000F800F800F800F800F800F800F800F83B
:1006000000F800F800F800F800F800F800F800F82A
:1006100000F800F800F800F800F800F800F800F81A
:1006200000F800F800F800F800F800F800F800F80A
:1006300000F800F800F800F800F800F800F800F8FA
:1006400000F800F800F800F800F800F800F800F8EA
:1006500000F800F800F800F800F800F800F800F8DA
:1006600000F800F800F800F800F800F800F800F8CA
:1006700000F800F800F800F800F800F800F800F8BA
:1006800000F800F800F800F800F800F800F800F8AA
:1006900000F800F800F800F800F800F800F800F89A
:1006A00000F800F800F800F800F800F800F800F88A
:1006B00000F800F800F800F800F800F800F800F87A
:1006C00000F800F800F800F800F800F800F800F86A
:1006D00000F800F800F800F800F800F800F800F85A
:1006E00000F800F800F800F800F800F800F800F84A
:1006F00000F800F800F800F800F800F800F800F83A
:1007000000F800F800F800F800F800F800F800F829
:1007100000F800F800F800F800F800F800F800F819
:1007200000F800F800F800F800F800F800F800F809
:1007300000F800F800F800F800F800F800F800F8F9
:1007400000F800F800F800F800F800F800F800F8E9
:1007500000F800F800F800F800F800F800F800F8D9
:1007600000F800F800F800F800F800F800F800F8C9
:1007700000F800F800F800F800F800F800F800E0D1
:1007800000C000A000780058003800280050007019
:10079000009800C000E800F800F800F800F800F841
:1007A00000F800F800F800F800F800F800F800F889
:1007B00000F800F000C000800028000000000000E9
:1007C0000000000000000000000000000000000029
:1007D0000000008000D800F800F800F800F800F8E9
:1007E00000F800F800F800F800F800F800F8000041
:1007F00000000000000000000000000000000000F9
:1008000000000000000000000000000000000000E8
:10081000000000A000F800F800F800F800F800F868
:1008200000F800F800F800F800F8000000000000F0
:1008300000000000000000000000000000000000B8
:1008400000000000000000000000000000000000A8
:10085000007800F800F800F800F800F800F800F858
:1008600000F800F800F80000000000000000002878
:10087000008800B800E000F000F800F800F800E0A0
:1008800000B00038000000000000000000000088F8
:1008900000F800F800F800F800F800F800F800F898
:1008A00000F800000000007800C800F800F800F828
:1008B00000F800F800F800F800F800F800F800F878
:1008C00000880000000000000000000000D000F8D8
:1008D00000F800F800F800F800F800F800F80090C0
:1008E00000E000F800F800F800F800F800F800F860
:1008F00000F800F800F800F800F800F800F80080B0
:100900000000000000000000006000F800F800F89F
:1009100000F800F800F800F800F800F800F800F817
:1009200000F800F800F800F800F800F800F800F807
:1009300000F800F800F800F800F800F000300000BF
:1009400000000000000000F000F800F800F800F8D7
:1009500000F800F800F800F800F800F800F800F8D7
:1009600000F800F800F800F800F800F800F800F8C7
:1009700000F800F800F800F80098000000000000FF
:10098000000000C800F800F800F800F800F800F8CF
:1009900000F800F800F800F800F800F800F800F897
:1009A00000F800F800F800F800F800F800F800F887
:1009B00000F800F800C8000000000000000000B8C7
:1009C00000F800F800F800F800F800F800F800F867
:1009D00000F800F800F800F800F800F800F800F857
:1009E00000F800F800F800F800F800F800F800F847
:1009F00000D0000000000000000000B000F800F887
:100A000000F800F800F800F800F800F800F800F826
:100A100000F800F800F800F800F800F800F800F816
:100A200000F800F800F800F800F800F800C0000036
:100A300000000000000000C000F800F800F800F816
:100A400000F800F800F800F800F800F800F800F8E6
:100A500000F800F800F800F800F800F800F800F8D6
:100A600000F800F800F800F800A000000000000006
:100A7000000000D000F800F800F800F800F800F8D6
:100A800000F800F800F800F800F800F800F800F8A6
:100A900000F800F800F800F800F800F800F800F896
:100AA00000F800F80040000000000000000000F81E
:100AB00000F800F800F800F800F800F800F800F876
:100AC00000F800F800F800F800F800F800F800F866
:100AD00000F800F800F800F800F800F800F800C886
:100AE0000000000000000000007800F800F800F8A6
:100AF00000F800F800F800F800F800F800F800F836
:100B000000F800F800F800F800F800F800F800F825
:100B100000F800F800F800F800F8004800000000B5
:100B20000000000000D000F800F800F800F800F81D
:100B300000F800F800F800F800F800F800F800F8F5
:100B400000F800F800F800F800F800F800F800F8E5
:100B500000F800F800900000000000000000008095
:100B600000F800F800F800F800F800F800F800F8C5
:100B700000F800F800F800F800F800F800F800F8B5
:100B800000F800F800F800F800F800F800F800C0DD
:100B90000000000000000000003000F000F800F845
:100BA00000F800F800F800F800F800F800F800F885
:100BB00000F800F800F800F800F800F800F800F875
:100BC00000F800F800F800F800D80010000000005D
:100BD0000000000000C800F800F800F800F800F875
:100BE00000F800F800F800F800F800F800F800F845
:100BF00000F800F800F800F800F800F800F800F835
:100C000000F800E00030000000000000000000A03C
:100C100000F800F800F800F800F800F800F800F814
:100C200000F800F800F800F800F800F800F800F804
:100C300000F800F800F800F800F800F800E80040BC
:100C40000000000000000000009800F800F800F824
:100C500000F800F800F800F800F800F800F800F8D4
:100C600000F800F800F800F800F800F800F800F8C4
:100C700000F800F800F800E800480000000000005C
:100C80000000008800F800F800F800F800F800F80C
:100C900000F800F800F800F800F800F800F800F894
:100CA00000F800F800F800F800F800F800F800F884
:100CB00000F000500000000000000000008800F874
:100CC00000F800F800F800F800F800F800F800F864
:100CD00000F800F800F800F800F800F800F800F854
:100CE00000F800F800F800F800F800F000580000E4
:100CF000000000000000008000F800F800F800F894
:100D000000F800F800F800F800F800F800F800F823
:100D100000F800F800F800F800F800F800F800F813
:100D200000F800F800F0005800000000000000008B
:100D3000007800F800F800F800F800F800F800F873
:100D400000F800F800F800F800F800F800F800F8E3
:100D500000F800F800F800F800F800F800F800F0DB
:100D600000600000000000000000007000F800F8C3
:100D700000F800F800F800F800F800F800F800F8B3
:100D800000F800F800F800F800F800F800F800F8A3
:100D900000F800F800F800F800F80060000000001B
:100DA00000000000007000F800F800F800F800F8FB
:100DB00000F800F800F800F800F800F800F800F873
:100DC00000F800F800F800F800F800F800F800F863
:100DD00000F800F80060000000000000000000685B
:100DE00000F800F800F800F800F800F800F800F843
:100DF00000F800F800F800F800F800F800F800F833
:100E000000F800F800F800F800F800F800F80068B2
:100E10000000000000000000006800F800F800F882
:100E200000F800F800F800F800F800F800F800F802
:100E300000F800F800F800F800F800F800F800F8F2
:100E400000F800F800F800F800680000000000005A
:100E50000000006000F800F800F800F800F800F862
:100E600000F800F800F800F800F800F800F800F8C2
:100E700000F800F800F800F800F800F800F800F8B2
:100E800000F800700000000000000000005800F0B2
:100E900000F800F800F800F800F800F800F800F892
:100EA00000F800F800F800F800F800F800F800F882
:100EB00000F800F800F800F800F800F800780000EA
:100EC000000000000000005800F000F800F800F8F2
:100ED00000F800F800F800F800F800F800F800F852
:100EE00000F800F800F800F800F800F800F800F842
:100EF00000F800F800F80078000000000000000092
:100F0000005000F000F800F800F800F800F800F8D1
:100F100000F800F800F800F800F800F800F800F811
:100F200000F800F800F800F800F800F800F800F801
:100F300000D80000000000000000000000000000D9
:100F400000000000000000000000000000000000A1
:100F50000000000000000000000000000000007819
:100F600000F800F800F800F800F800F800D80000D9
:100F70000000000000000000000000000000000071
:100F80000000000000000000000000000000000061
:100F900000000000000000000000007800F800F8E9
:100FA00000F800F800F800F800D800000000000089
:100FB0000000000000000000000000000000000031
:100FC0000000000000000000000000000000000021
:100FD000000000000000007800F800F800F800F8B9
:100FE00000F800F800D80000000000000000000039
:100FF00000000000000000000000000000000000F1
:1010000000000000000000000000000000000000E0
:101010000000007800F800F800F800F800F800F888
:1010200000F800F800F800F800F800F800F800F800
:1010300000F800F800F800F800F800F800F800F8F0
:1010400000F800F800F800F800F800F800F800F8E0
:1010500000F800F800F800F800F800F800F800F8D0
:1013A000FFFF0000A013000002000000003000401A
:1013B0006407005000000002003000401407005095
:1013C00020000000030000000000040004000000F2
:1013D00002000000000000040000020068ECFF7F33
:1013E0000100000064ECFF7F0100000060ECFF7F63
:1013F00001000000ACEEFF7F01000000D0EEFF7F97
:10140000010000004CEFFF7F01000000BCEFFF7FF8
:1014100001000000F8EFFF7F0100000034F0FF7FC3
:101420000100000058F0FF7F010000006AF0FF7F1C
:101430000100000080F0FF7F01000000C8F0FF7F86
:1014400001000000E0F0FF7F01000000F6F0FF7FE8
:1014500001000000F4F0FF7F01000000F2F0FF7FC8
:1014600001000000F6F0FF7F01000000FCF0FF7FAC
:0C147000010000001AF1FF7F01000000E5
:00000001FF
