:1000000000200020450000004900000049000000D9
:1000100049000000490000004900000049000000BC
:1000200049000000490000004900000049000000AC
:10003000490000004900000049000000490000009C
:100040004900000000F002B8FEE700BF2DE9F04FC4
:10005000C3B07B4D794C7B497B4A7C4B284600944E
:1000600000F062F99F20AB21429000204190284689
:1000700000F018FA7648824600F092F9A868754FA9
:100080000422386042A9284600F034FA41A92846E3
:10009000042200F03FFA71496F4A01208850086835
:1000A0000028FCD0A8686E4E3060002008609DF8E3
:1000B00005010B287ED19DF8060140287BD16948B7
:1000C000694A6C4D614B01681160684A01681160B2
:1000D00067495D4A006808605A492846009400F064
:1000E00023F96548DFF89481C047654C2068386083
:1000F0006448C0472068306047F66C30C047B3465C
:10010000614E624C0121306800F013FA6048C0472C
:100110003068112100F00DFA5E488146C047306812
:100120003A2100F006FA3068552100F010FA4846EE
:10013000C0473068362100F0FCF93068002100F03B
:1001400006FAF02000F042F9F02000F05DF9306886
:10015000132100F0EEF93068212100F0EAF900F0F7
:1001600071F93068292100F0E4F93068332100F09A
:10017000E0F93068002100F0EAF928460021A047A4
:1001800028460121A04728464021A04728460021B3
:10019000A04728460021A047F020F02100F068F990
:1001A0003D4E4FF461443CB12846314600F06AF9B7
:1001B000013CF8E7FEE7FEE75046B84600F0F0F8ED
:1001C0001D203B2100F054F9344F2A4C0026B6F58F
:1001D000E16F0DD037F8160037F810502046290A85
:1001E00000F060F92046294600F05CF90136EEE7A0
:1001F00001AD4FF480714422284600F0ACF907208D
:10020000072100F035F9264801210022C160426033
:1002100005601248026002468146A068C8F80000E6
:100220000D48115010680028FCD0A0680C490860E7
:100230000020106043B0BDE8F08F00BFB013000095
:100240008C130000B0130000A4130000AC130000D6
:10025000F00EF1000C050050F8FEFFFF18310040D1
:1002600008050050A413000068070050480700501C
:1002700038070050981300008C0D0C00A1030000FB
:10028000B4130000AA9D0300A8130000A5040000F9
:10029000A42824001C6902008413000070050000DB
:1002A0004435004019481E4B19491C4A00240325B7
:1002B000012600689C461B4B0860164816499E465E
:1002C00013686746CCF80030C1F84041C1F80855C2
:1002D000C1F81045C1F84005CE600E60D1F840313C
:1002E000002BFBD013687746CEF80030C1F84041B0
:1002F000C1F80855C1F81045C1F84005CE600E6040
:10030000D1F84031002BFBD0DAE700BFA413000086
:10031000440700500024F40000800040B81300009F
:10032000080500500C050050B0B51A4D44682D6802
:100330002560194D84682C60184D84682C60046811
:100340000968C4F8081501681268C1F80C2501682D
:100350001A68C1F810254FF000420168C1F8242541
:10036000049A01681268C1F8442500220168C1F8A6
:1003700004210168C1F810210168C1F81821016841
:10038000C1F820210168C1F84C2107210068C0F89C
:100390000015B0BDA4130000080500500C05005066
:1003A000094900220323C1F84021C1F80835C1F8EA
:1003B0001025C1F840050120C8600860D1F840014F
:1003C0000028FBD0704700BF008000407FB50A4E78
:1003D00004460A490A4D3068086028462A2100F080
:1003E00061F83068074900F0A7F803A8019001A957
:1003F000284600F047F87FBDA81300000C05005008
:1004000098130000080500507FB50A4E04460A49BB
:100410000A4D3068086028462B2100F043F8306808
:10042000074900F089F803A8019001A9284600F0C7
:1004300029F87FBDA81300000C0500509813000098
:100440000805005010B5064C0649206808600648AB
:100450002C2100F027F820680449086010BD00BF77
:10046000A81300000C050050981300000805005068
:1004700010B50C46FFF7AAFF2046FFF7C5FFBDE801
:100480001040DFE7F8B54E680C4605460027BE422F
:1004900008BFF8BD2068C15D284600F003F80137A9
:1004A000F5E700BF7CB505460446104A012655F81D
:1004B000080F10608DF807100DF10701204601228A
:1004C00000F018F820460021002200F023F82068F0
:1004D00006612068D0F818110029FBD0286804496B
:1004E000086000212068C0F818117CBD0C05005080
:1004F0000805005010B503680024D2B2C3F8504577
:100500000368C3F848250268C2F844150068C0F8BB
:10051000184110BD0368C3F83415D1B20268C2F89F
:10052000381500220168C1F840250068C0F818217C
:100530007047386028462047086000208DF80F403B
:100540008DF80E00ADF80C00042002907047CBF837
:100550000000284620470B4611461A4600F000B816
:1005600000239A4208BF7047C1540133F9E7D4D43D
:1005700000F800F800F800F800F800F800F800F8BB
:1005800000F800F800F800F800F800F800F800F8AB
:1005900000F800F800F800F800F800F800F800F89B
:1005A00000F800F800F800F800F800F800F800F88B
:1005B00000F800F800F800F800F800F800F800F87B
:1005C00000F800F800F800F800F800F800F800F86B
:1005D00000F800F800F800F800F800F800F800F85B
:1005E00000F800F800F800F800F800F800F800F84B
:1005F00000F800F800F800F800F800F800F800F83B
:1006000000F800F800F800F800F800F800F800F82A
:1006100000F800F800F800F800F800F800F800F81A
:1006200000F800F800F800F800F800F800F800F80A
:1006300000F800F800F800F800F800F800F800F8FA
:1006400000F800F800F800F800F800F800F800F8EA
:1006500000F800F800F800F800F800F800F800F8DA
:1006600000F800F800F800F800F800F800F800F8CA
:1006700000F800F800F800F800F800F800F800F8BA
:1006800000F800F800F800F800F800F800F800F8AA
:1006900000F800F800F800F800F800F800F800F89A
:1006A00000F800F800F800F800F800F800F800F88A
:1006B00000F800F800F800F800F800F800F800F87A
:1006C00000F800F800F800F800F800F800F800F86A
:1006D00000F800F800F800F800F800F800F800F85A
:1006E00000F800F800F800F800F800F800F800F84A
:1006F00000F800F800F800F800F800F800F800F83A
:1007000000F800F800F800F800F800F800F800F829
:1007100000F800F800F800F800F800F800F800F819
:1007200000F800F800F800F800F800F800F800F809
:1007300000F800F800F800F800F800F800F800F8F9
:1007400000F800F800F800F800F800F800F800F8E9
:1007500000F800F800F800F800F800F800F800E0F1
:1007600000C000A000780058003800280050007039
:10077000009800C000E800F800F800F800F800F861
:1007800000F800F800F800F800F800F800F800F8A9
:1007900000F800F000C00080002800000000000009
:1007A0000000000000000000000000000000000049
:1007B0000000008000D800F800F800F800F800F809
:1007C00000F800F800F800F800F800F800F8000061
:1007D0000000000000000000000000000000000019
:1007E0000000000000000000000000000000000009
:1007F000000000A000F800F800F800F800F800F889
:1008000000F800F800F800F800F800000000000010
:1008100000000000000000000000000000000000D8
:1008200000000000000000000000000000000000C8
:10083000007800F800F800F800F800F800F800F878
:1008400000F800F800F80000000000000000002898
:10085000008800B800E000F000F800F800F800E0C0
:1008600000B0003800000000000000000000008818
:1008700000F800F800F800F800F800F800F800F8B8
:1008800000F800000000007800C800F800F800F848
:1008900000F800F800F800F800F800F800F800F898
:1008A00000880000000000000000000000D000F8F8
:1008B00000F800F800F800F800F800F800F80090E0
:1008C00000E000F800F800F800F800F800F800F880
:1008D00000F800F800F800F800F800F800F80080D0
:1008E0000000000000000000006000F800F800F8C0
:1008F00000F800F800F800F800F800F800F800F838
:1009000000F800F800F800F800F800F800F800F827
:1009100000F800F800F800F800F800F000300000DF
:1009200000000000000000F000F800F800F800F8F7
:1009300000F800F800F800F800F800F800F800F8F7
:1009400000F800F800F800F800F800F800F800F8E7
:1009500000F800F800F800F800980000000000001F
:10096000000000C800F800F800F800F800F800F8EF
:1009700000F800F800F800F800F800F800F800F8B7
:1009800000F800F800F800F800F800F800F800F8A7
:1009900000F800F800C8000000000000000000B8E7
:1009A00000F800F800F800F800F800F800F800F887
:1009B00000F800F800F800F800F800F800F800F877
:1009C00000F800F800F800F800F800F800F800F867
:1009D00000D0000000000000000000B000F800F8A7
:1009E00000F800F800F800F800F800F800F800F847
:1009F00000F800F800F800F800F800F800F800F837
:100A000000F800F800F800F800F800F800C0000056
:100A100000000000000000C000F800F800F800F836
:100A200000F800F800F800F800F800F800F800F806
:100A300000F800F800F800F800F800F800F800F8F6
:100A400000F800F800F800F800A000000000000026
:100A5000000000D000F800F800F800F800F800F8F6
:100A600000F800F800F800F800F800F800F800F8C6
:100A700000F800F800F800F800F800F800F800F8B6
:100A800000F800F80040000000000000000000F83E
:100A900000F800F800F800F800F800F800F800F896
:100AA00000F800F800F800F800F800F800F800F886
:100AB00000F800F800F800F800F800F800F800C8A6
:100AC0000000000000000000007800F800F800F8C6
:100AD00000F800F800F800F800F800F800F800F856
:100AE00000F800F800F800F800F800F800F800F846
:100AF00000F800F800F800F800F8004800000000D6
:100B00000000000000D000F800F800F800F800F83D
:100B100000F800F800F800F800F800F800F800F815
:100B200000F800F800F800F800F800F800F800F805
:100B300000F800F8009000000000000000000080B5
:100B400000F800F800F800F800F800F800F800F8E5
:100B500000F800F800F800F800F800F800F800F8D5
:100B600000F800F800F800F800F800F800F800C0FD
:100B70000000000000000000003000F000F800F865
:100B800000F800F800F800F800F800F800F800F8A5
:100B900000F800F800F800F800F800F800F800F895
:100BA00000F800F800F800F800D80010000000007D
:100BB0000000000000C800F800F800F800F800F895
:100BC00000F800F800F800F800F800F800F800F865
:100BD00000F800F800F800F800F800F800F800F855
:100BE00000F800E00030000000000000000000A05D
:100BF00000F800F800F800F800F800F800F800F835
:100C000000F800F800F800F800F800F800F800F824
:100C100000F800F800F800F800F800F800E80040DC
:100C20000000000000000000009800F800F800F844
:100C300000F800F800F800F800F800F800F800F8F4
:100C400000F800F800F800F800F800F800F800F8E4
:100C500000F800F800F800E800480000000000007C
:100C60000000008800F800F800F800F800F800F82C
:100C700000F800F800F800F800F800F800F800F8B4
:100C800000F800F800F800F800F800F800F800F8A4
:100C900000F000500000000000000000008800F894
:100CA00000F800F800F800F800F800F800F800F884
:100CB00000F800F800F800F800F800F800F800F874
:100CC00000F800F800F800F800F800F00058000004
:100CD000000000000000008000F800F800F800F8B4
:100CE00000F800F800F800F800F800F800F800F844
:100CF00000F800F800F800F800F800F800F800F834
:100D000000F800F800F000580000000000000000AB
:100D1000007800F800F800F800F800F800F800F893
:100D200000F800F800F800F800F800F800F800F803
:100D300000F800F800F800F800F800F800F800F0FB
:100D400000600000000000000000007000F800F8E3
:100D500000F800F800F800F800F800F800F800F8D3
:100D600000F800F800F800F800F800F800F800F8C3
:100D700000F800F800F800F800F80060000000003B
:100D800000000000007000F800F800F800F800F81B
:100D900000F800F800F800F800F800F800F800F893
:100DA00000F800F800F800F800F800F800F800F883
:100DB00000F800F80060000000000000000000687B
:100DC00000F800F800F800F800F800F800F800F863
:100DD00000F800F800F800F800F800F800F800F853
:100DE00000F800F800F800F800F800F800F80068D3
:100DF0000000000000000000006800F800F800F8A3
:100E000000F800F800F800F800F800F800F800F822
:100E100000F800F800F800F800F800F800F800F812
:100E200000F800F800F800F800680000000000007A
:100E30000000006000F800F800F800F800F800F882
:100E400000F800F800F800F800F800F800F800F8E2
:100E500000F800F800F800F800F800F800F800F8D2
:100E600000F800700000000000000000005800F0D2
:100E700000F800F800F800F800F800F800F800F8B2
:100E800000F800F800F800F800F800F800F800F8A2
:100E900000F800F800F800F800F800F8007800000A
:100EA000000000000000005800F000F800F800F812
:100EB00000F800F800F800F800F800F800F800F872
:100EC00000F800F800F800F800F800F800F800F862
:100ED00000F800F800F800780000000000000000B2
:100EE000005000F000F800F800F800F800F800F8F2
:100EF00000F800F800F800F800F800F800F800F832
:100F000000F800F800F800F800F800F800F800F821
:100F100000D80000000000000000000000000000F9
:100F200000000000000000000000000000000000C1
:100F30000000000000000000000000000000007839
:100F400000F800F800F800F800F800F800D80000F9
:100F50000000000000000000000000000000000091
:100F60000000000000000000000000000000000081
:100F700000000000000000000000007800F800F809
:100F800000F800F800F800F800D8000000000000A9
:100F90000000000000000000000000000000000051
:100FA0000000000000000000000000000000000041
:100FB000000000000000007800F800F800F800F8D9
:100FC00000F800F800D80000000000000000000059
:100FD0000000000000000000000000000000000011
:100FE0000000000000000000000000000000000001
:100FF0000000007800F800F800F800F800F800F8A9
:1010000000F800F800F800F800F800F800F800F820
:1010100000F800F800F800F800F800F800F800F810
:1010200000F800F800F800F800F800F800F800F800
:1010300000F800F800F800F800F800F800F800F8F0
:10138000FFFF00008013000002000000003000405A
:101390001407005020000000003000406407005097
:1013A0000000000203000000000004000400000030
:1013B00002000000000000040000020088ECFF7F33
:1013C0000100000084ECFF7F0100000080ECFF7F43
:1013D00001000000D0EEFF7F010000004CEFFF7F16
:1013E00001000000BCEFFF7F01000000E0EFFF7F85
:1013F0000100000014F0FF7F0100000048F0FF7FB3
:10140000010000006CF0FF7F0100000078F0FF7F1A
:101410000100000090F0FF7F01000000D8F0FF7F86
:1014200001000000F0F0FF7F0100000006F1FF7FE7
:101430000100000004F1FF7F0100000012F1FF7FB6
:0C144000010000002AF1FF7F0100000005
:00000001FF
