:1000000000200020450000004900000049000000D9
:1000100049000000490000004900000049000000BC
:1000200049000000490000004900000049000000AC
:10003000490000004900000049000000490000009C
:100040004900000000F002B8FEE700BF2DE9F04FC4
:1000500085B06C4D6A4C6C496C4A6D4B28460094D7
:1000600000F042F99F20AB21039000208DF8100092
:1000700001908DF80800284600F0F4F9654E3046EE
:1000800000F06EF9A868644F0522386003A928467D
:1000900000F010FA01A92846052200F01BFA60487A
:1000A0005E490122425001680029FCD0A9685D4ADE
:1000B0001160002101609DF805000B287ED19DF89C
:1000C000060040287BD158489246584A5A4D504B1A
:1000D000B14601681160564A0168116055494B4AA2
:1000E0000068086048492846009400F0FDF853482D
:1000F000DFF84C81C047534C206838605248C047F5
:100100002068CAF8000047F66C30C0474F4E504C8C
:100110000121306800F0FDF94E48C04730681121D8
:1001200000F0F7F94C488346C04730683A2100F0A8
:10013000F0F930685521CAF800002846A047584613
:10014000C0473068362100F0E4F900F0E5F9F0200E
:1001500000F01CF9F02000F037F93068132100F0AE
:10016000D8F93068212100F0D4F900F04BF930685B
:10017000292100F0CEF93068332100F0CAF900F0EF
:10018000CBF928460021A04728460121A047284650
:100190004021A04728460021A04728460021A0472B
:1001A000F020F02100F044F92C4E4FF461443CB1B2
:1001B0002846314600F046F9013CF8E7FEE7FEE745
:1001C000484600F0CDF81E203C2100F031F9244EC5
:1001D000194C0025B5F5E16F0FD036F8157006EB18
:1001E00047004178204600F03DF9F8B216F81010AB
:1001F000204600F037F90135ECE705B0BDE8F08F97
:100200006813000044130000681300005C13000032
:1002100064130000F00EF1000C050050F8FEFFFF23
:1002200018310040080500505C13000068070050BA
:100230004807005038070050501300008C0D0C0088
:10024000610300006C130000AA9D0300601300000E
:1002500065040000A42824001C6902003C1300006F
:100260002405000019481E4B19491C4A0024032587
:10027000012600689C461B4B0860164816499E469E
:1002800013686746CCF80030C1F84041C1F8085502
:10029000C1F81045C1F84005CE600E60D1F840317C
:1002A000002BFBD013687746CEF80030C1F84041F0
:1002B000C1F80855C1F81045C1F84005CE600E6080
:1002C000D1F84031002BFBD0DAE700BF5C1300000F
:1002D000440700500024F400008000407013000028
:1002E000080500500C050050B0B51A4D44682D6843
:1002F0002560194D84682C60184D84682C60046852
:100300000968C4F8081501681268C1F80C2501686D
:100310001A68C1F810254FF000420168C1F8242581
:10032000049A01681268C1F8442500220168C1F8E6
:1003300004210168C1F810210168C1F81821016881
:10034000C1F820210168C1F84C2107210068C0F8DC
:100350000015B0BD5C130000080500500C050050EE
:10036000094900220323C1F84021C1F80835C1F82A
:100370001025C1F840050120C8600860D1F840018F
:100380000028FBD0704700BF008000407FB50A4EB8
:1003900004460A490A4D3068086028462A2100F0C0
:1003A00061F83068074900F0A4F803A8019001A99A
:1003B000284600F047F87FBD601300000C05005090
:1003C00050130000080500507FB50A4E04460A4944
:1003D0000A4D3068086028462B2100F043F8306849
:1003E000074900F086F803A8019001A9284600F00B
:1003F00029F87FBD601300000C0500505013000069
:100400000805005010B5064C0649206808600648EB
:100410002C2100F027F820680449086010BD00BFB7
:10042000601300000C050050501300000805005038
:1004300010B50C46FFF7AAFF2046FFF7C5FFBDE841
:100440001040DFE7F8B54E680C4605460027BE426F
:1004500008BFF8BD2068C15D284600F003F80137E9
:10046000F5E700BF7CB505460446104A012655F85D
:10047000080F10608DF807100DF1070120460122CA
:1004800000F018F820460021002200F023F8206830
:1004900006612068D0F818110029FBD028680449AB
:1004A000086000212068C0F818117CBD0C050050C0
:1004B0000805005010B503680024D2B2C3F85045B7
:1004C0000368C3F848250268C2F844150068C0F8FC
:1004D000184110BD0368C3F83415D1B20268C2F8E0
:1004E000381500220168C1F840250068C0F81821BD
:1004F00070470860A0B2FF21B0FBF1F020448DF8F6
:100500000F0000208DF80E00ADF80C0004200290C2
:10051000704738602846204730680021CAF800003C
:100520002846204700F800F800F800F800F800F826
:1005300000F800F800F800F800F800F800F800F8FB
:1005400000F800F800F800F800F800F800F800F8EB
:1005500000F800F800F800F800F800F800F800F8DB
:1005600000F800F800F800F800F800F800F800F8CB
:1007500000F800F000D000A80070001000000000B9
:100760000000000000F000F800F800F800F800F8C1
:1007700000F800F800F800F800F800F800F800F8B9
:1007800000F800F800F800E800C0009800500000F1
:100790000000000000000000000000000000000059
:1007A00000F000F800F800F800F800F800F800F891
:1007B00000F800F800F800F800F800F800F800F879
:1007C00000C0000000000000000000000000000069
:1007D00000000000000000000000000000F000F831
:1007E00000F800F800F800F800F800F800F800F849
:1007F00000F800F800F800F800F800F800C0000069
:1008000000000000000000000000000000000000E8
:10081000000000000000000000F000F800F800F800
:1008200000F800F800F800F800F800F800F800F808
:1008300000F800F800F800F800C000000000000018
:100840000000006800A000D000F000880000000058
:100850000000000000F000F800F800F800F800F8D0
:1008600000F800F800F800F800F800F800F800F8C8
:1008700000F800F800C0008000B800D800F800F8C8
:1008800000F800F800F800880000000000000000F8
:1008900000F000F800F800F800F800F800F800F8A0
:1008A00000F800F800F800F800F800F800F800F888
:1008B00000F800F800F800F800F800F800F800F878
:1008C00000F80088000000000000000000F000F8C0
:1008D00000F800F800F800F800F800F800F800F858
:1008E00000F800F800F800F800F800F800F800F848
:1008F00000F800F800F800F800F800F800F80088A8
:10090000000000000000000000F000F800F800F80F
:1009100000F800F800F800F800F800F800F800F817
:1009200000F800F800F800F800F800F800F800F807
:1009300000F800F800F800F800F800880000000057
:100940000000000000F000F800F800F800F800F8DF
:1009500000F800F800F800F800F800F800F800F8D7
:1009600000F800F800F800F800F800F800F800F8C7
:1009700000F800F800F80088000000000000000007
:1009800000F000F800F800F800F800F800F800F8AF
:1009900000F800F800F800F800F800F800F800F897
:1009A00000F800F800F800F800F800F800F800F887
:1009B00000F80088000000000000000000F000F8CF
:1009C00000F800F800F800F800F800F800F800F867
:1009D00000F800F800F800F800F800F800F800F857
:1009E00000F800F800F800F800F800F800F80088B7
:1009F000000000000000000000F000F800F800F81F
:100A000000F800F800F800F800F800F800F800F826
:100A100000F800F800F800F800F800F800F800F816
:100A200000F800F800F800F800F800880000000066
:100A30000000000000F000F800F800F800F800F8EE
:100A400000F800F800F800F800F800F800F800F8E6
:100A500000F800F800F800F800F800F800F800F8D6
:100A600000F800F800F80088000000000000000016
:100A700000F000F800F800F800F800F800F800F8BE
:100A800000F800F800F800F800F800F800F800F8A6
:100A900000F800F800F800F800F800F800F800F896
:100AA00000F80088000000000000000000F000F8DE
:100AB00000F800F800F800F800F800F800F800F876
:100AC00000F800F800F800F800F800F800F800F866
:100AD00000F800F800F800F800F800F800F80088C6
:100AE000000000000000000000F000F800F800F82E
:100AF00000F800F800F800F800F800F800F800F836
:100B000000F800F800F800F800F800F800F800F825
:100B100000F800F800F800F800F800880000000075
:100B20000000000000F000F800F800F800F800F8FD
:100B300000F800F800F800F800F800F800F800F8F5
:100B400000F800F800F800F800F800F800F800F8E5
:100B500000F800F800F80088000000000000000025
:100B600000F000F800F800F800F800F800F800F8CD
:100B700000F800F800F800F800F800F800F800F8B5
:100B800000F800F800F800F800F800F800F800F8A5
:100B900000F80088000000000000000000F000F8ED
:100BA00000F800F800F800F800F800F800F800F885
:100BB00000F800F800F800F800F800F800F800F875
:100BC00000F800F800F800F800F800F800F80088D5
:100BD000000000000000000000F000F800F800F83D
:100BE00000F800F800F800F800F800F800F800F845
:100BF00000F800F800F800F800F800F800F800F835
:100C000000F800F800F800F800F800880000000084
:100C10000000000000F000F800F800F800F800F80C
:100C200000F800F800F800F800F800F800F800F804
:100C300000F800F800F800F800F800F800F800F8F4
:100C400000F800F800F80088000000000000000034
:100C500000F000F800F800F800F800F800F800F8DC
:100C600000F800F800F800F800F800F800F800F8C4
:100C700000F800F800F800F800F800F800F800F8B4
:100C800000F80088000000000000000000F000F8FC
:100C900000F800F800F800F800F800F800F800F894
:100CA00000F800F800F800F800F800F800F800F884
:100CB00000F800F800F800F800F800F800F80088E4
:100CC000000000000000000000F000F800F800F84C
:100CD00000F800F800F800F800F800F800F800F854
:100CE00000F800F800F800F800F800F800F800F844
:100CF00000F800F800F800F800F800880000000094
:100D00000000000000F000F800F800F800F800F81B
:100D100000F800F800F800F800F800F800F800F813
:100D200000F800F800F800F800F800F800F800F803
:100D300000F800F800F80088000000000000000043
:100D400000F000F800F800F800F800F800F800F8EB
:100D500000F800F800F800F800F800F800F800F8D3
:100D600000F800F800F800F800F800F800F800F8C3
:100D700000F80088000000000000000000F000F80B
:100D800000F800F800F800F800F800F800F800F8A3
:100D900000F800F800F800F800F800F800F800F893
:100DA00000F800F800F800F800F800F800F80088F3
:100DB000000000000000000000F000F800F800F85B
:100DC00000F800F800F800F800F800F800F800F863
:100DD00000F800F800F800F800F800F800F800F853
:100DE00000F800F800F800F800F8008800000000A3
:100DF0000000000000F000F800F800F800F800F82B
:100E000000F800F800F800F800F800F800F800F822
:100E100000F800F800F800F800F800F800F800F812
:100E200000F800F800F80088000000000000000052
:100E300000F000F800F800F800F800F800F800F8FA
:100E400000F800F800F800F800F800F800F800F8E2
:100E500000F800F800F800F800F800F800F800F8D2
:100E600000F80088000000000000000000F000F81A
:100E700000F800F800F800F800F800F800F800F8B2
:100E800000F800F800F800F800F800F800F800F8A2
:100E900000F800F800F800F800F800F800F8008802
:100EA000000000000000000000F000F800F800F86A
:100EB00000F800F800F800F800F800F800F800F872
:100EC00000F800F800F800F800F8007800000000D2
:100ED0000000000000000000000000000000000012
:100EE0000000000000000000000000000000000002
:100EF0000000000000E800F800F800F800F800F832
:100F000000F800F800F80078000000000000000081
:100F100000000000000000000000000000000000D1
:100F200000000000000000000000000000000000C1
:100F300000E800F800F800F800F800F800F800F801
:100F400000F8007800000000000000000000000031
:100F50000000000000000000000000000000000091
:100F600000000000000000000000000000E800F8A1
:100F700000F800F800F800F800F800F800F8007831
:100F80000000000000000000000000000000000061
:100F90000000000000000000000000000000000051
:100FA000000000000000000000E800F800F800F871
:100FB00000F800F800F800F800F800F800F800F871
:100FC00000F800F800F800F800F800F800F800F861
:100FD00000F800F800F800F800F800F800F800F851
:100FE00000F800F800F800F800F800F800F800F841
:1013300000F800F89F00000000FFFF0039130000D4
:1013400002000000003000401407005020000000A0
:10135000003000406407005000000002030000005D
:10136000000004000400000002000000000000046F
:1013700000000200D0ECFF7F01000000CCECFF7FFA
:1013800001000000C8ECFF7F01000000D8EEFF7FE5
:101390000100000054EFFF7F01000000C4EFFF7F59
:1013A00001000000E8EFFF7F010000001CF0FF7F5C
:1013B0000100000050F0FF7F0100000074F0FF7F8B
:1013C0000100000080F0FF7F0100000098F0FF7F27
:1013D00001000000E0F0FF7F01000000F8F0FF7F57
:1013E000010000000EF1FF7F0100000026F1FF7FE9
:1013F0000100000024F1FF7F0100000028F1FF7FC1
:0414000001000000E7
:00000001FF
