:1000000000200020450000004900000049000000D9
:1000100049000000490000004900000049000000BC
:1000200049000000490000004900000049000000AC
:10003000490000004900000049000000490000009C
:100040004900000000F002B8FEE700BF2DE9F04FC4
:10005000C3B07C4D7A4C7C497C4A7D4B2846009449
:1000600000F066F99F20AB21429000204190284685
:1000700000F01CFA7748824600F096F9A868764F9F
:100080000422386042A9284600F038FA41A92846DF
:10009000042200F043FA7249704A0120885008682F
:1000A0000028FCD0A8686F4E3060002008609DF8E2
:1000B00005010B287ED19DF8060140287BD16A48B6
:1000C0006A4A6D4D624B01681160694A01681160AE
:1000D00068495E4A006808605B492846009400F061
:1000E00027F96648DFF89881C047664C2068386079
:1000F0006548C0472068306047F66C30C047B3465B
:10010000624E634C0121306800F017FA6148C04725
:100110003068112100F011FA5F488146C04730680D
:100120003A2100F00AFA3068552100F014FA4846E6
:10013000C0473068362100F000FA3068002100F036
:100140000AFAF02000F046F9F02000F061F930687A
:10015000132100F0F2F93068212100F0EEF900F0EF
:1001600075F93068292100F0E8F93068332100F092
:10017000E4F93068002100F0EEF928460021A0479C
:1001800028460121A04728464021A04728460021B3
:10019000A04728460021A047F020F02100F06CF98C
:1001A0003E4E4FF461443CB12846314600F06EF9B2
:1001B000013CF8E7FEE7FEE75046B84600F0F4F8E9
:1001C0001D203B2100F058F9354F2B4C0026B6F589
:1001D000E16F0DD037F8160037F810502046290A85
:1001E00000F064F92046294600F060F90136EEE798
:1001F00001AC4FF480714422204600F0B0F9072092
:10020000072100F039F9274801210022C16042602E
:10021000046013488146026023480268C8F8002041
:100220000E4A49F80210D9F800100029FBD00068E6
:100230000C4908600020C9F8000043B0BDE8F08F09
:10024000B813000094130000B8130000AC130000B2
:10025000B4130000F00EF1000C050050F8FEFFFF93
:100260001831004008050050AC130000680700502A
:100270004807005038070050A01300008C0D0C00F8
:10028000A9030000BC130000AA9D0300B0130000E6
:10029000AD040000A42824001C6902008C13000097
:1002A0007805000044350040C413000019481E4B77
:1002B00019491C4A00240325012600689C461B4B53
:1002C0000860164816499E4613686746CCF8003009
:1002D000C1F84041C1F80855C1F81045C1F84005C2
:1002E000CE600E60D1F84031002BFBD0136877460A
:1002F000CEF80030C1F84041C1F80855C1F81045AA
:10030000C1F84005CE600E60D1F84031002BFBD023
:10031000DAE700BFAC130000440700500024F400EB
:1003200000800040C0130000080500500C0500507C
:10033000B0B51A4D44682D682560194D84682C604D
:10034000184D84682C6004680968C4F808150168B1
:100350001268C1F80C2501681A68C1F810254FF021
:1003600000420168C1F82425049A01681268C1F8A6
:10037000442500220168C1F804210168C1F8102158
:100380000168C1F818210168C1F820210168C1F88D
:100390004C2107210068C0F80015B0BDAC13000067
:1003A000080500500C050050094900220323C1F83C
:1003B0004021C1F80835C1F81025C1F840050120D9
:1003C000C8600860D1F840010028FBD0704700BF2A
:1003D000008000407FB50A4E04460A490A4D306845
:1003E000086028462A2100F061F83068074900F0CB
:1003F000A7F803A8019001A9284600F047F87FBD9F
:10040000B01300000C050050A013000008050050B8
:100410007FB50A4E04460A490A4D306808602846EE
:100420002B2100F043F83068074900F089F803A851
:10043000019001A9284600F029F87FBDB013000003
:100440000C050050A01300000805005010B5064C24
:1004500006492068086006482C2100F027F820682B
:100460000449086010BD00BFB01300000C05005027
:10047000A01300000805005010B50C46FFF7AAFFB6
:100480002046FFF7C5FFBDE81040DFE7F8B54E682E
:100490000C4605460027BE4208BFF8BD2068C15D76
:1004A000284600F003F80137F5E700BF7CB50546A4
:1004B0000446104A012655F8080F10608DF8071001
:1004C0000DF107012046012200F018F82046002116
:1004D000002200F023F8206806612068D0F8181187
:1004E0000029FBD028680449086000212068C0F872
:1004F00018117CBD0C0500500805005010B50368AC
:100500000024D2B2C3F850450368C3F848250268F6
:10051000C2F844150068C0F8184110BD0368C3F85C
:100520003415D1B20268C2F8381500220168C1F84A
:1005300040250068C0F818217047386028462047D9
:10054000086000208DF80F408DF80E00ADF80C000B
:10055000042002907047CBF80000284620470B4645
:1005600011461A4600F000B800239A4208BF7047AF
:10057000C1540133F9E7D4D400F800F800F800F8CA
:1005800000F800F800F800F800F800F800F800F8AB
:1005900000F800F800F800F800F800F800F800F89B
:1005A00000F800F800F800F800F800F800F800F88B
:1005B00000F800F800F800F800F800F800F800F87B
:1005C00000F800F800F800F800F800F800F800F86B
:1005D00000F800F800F800F800F800F800F800F85B
:1005E00000F800F800F800F800F800F800F800F84B
:1005F00000F800F800F800F800F800F800F800F83B
:1006000000F800F800F800F800F800F800F800F82A
:1006100000F800F800F800F800F800F800F800F81A
:1006200000F800F800F800F800F800F800F800F80A
:1006300000F800F800F800F800F800F800F800F8FA
:1006400000F800F800F800F800F800F800F800F8EA
:1006500000F800F800F800F800F800F800F800F8DA
:1006600000F800F800F800F800F800F800F800F8CA
:1006700000F800F800F800F800F800F800F800F8BA
:1006800000F800F800F800F800F800F800F800F8AA
:1006900000F800F800F800F800F800F800F800F89A
:1006A00000F800F800F800F800F800F800F800F88A
:1006B00000F800F800F800F800F800F800F800F87A
:1006C00000F800F800F800F800F800F800F800F86A
:1006D00000F800F800F800F800F800F800F800F85A
:1006E00000F800F800F800F800F800F800F800F84A
:1006F00000F800F800F800F800F800F800F800F83A
:1007000000F800F800F800F800F800F800F800F829
:1007100000F800F800F800F800F800F800F800F819
:1007200000F800F800F800F800F800F800F800F809
:1007300000F800F800F800F800F800F800F800F8F9
:1007400000F800F800F800F800F800F800F800F8E9
:1007500000F800F800F800F800F800F800F800F8D9
:1007600000F800F800F800E000C000A00078005891
:100770000038002800500070009800C000E800F821
:1007800000F800F800F800F800F800F800F800F8A9
:1007900000F800F800F800F800F800F000C0008051
:1007A0000028000000000000000000000000000021
:1007B00000000000000000000000008000D800F8E9
:1007C00000F800F800F800F800F800F800F800F869
:1007D00000F800F800F80000000000000000000031
:1007E0000000000000000000000000000000000009
:1007F0000000000000000000000000A000F800F869
:1008000000F800F800F800F800F800F800F800F828
:1008100000F80000000000000000000000000000E0
:1008200000000000000000000000000000000000C8
:100830000000000000000000007800F800F800F858
:1008400000F800F800F800F800F800F800F80000E0
:100850000000000000000028008800B800E000F060
:1008600000F800F800F800E000B0003800000000D8
:10087000000000000000008800F800F800F800F810
:1008800000F800F800F800F800F800000000007818
:1008900000C800F800F800F800F800F800F800F8C8
:1008A00000F800F800F800F80088000000000000E0
:1008B0000000000000D000F800F800F800F800F890
:1008C00000F800F800F8009000E000F800F800F8E8
:1008D00000F800F800F800F800F800F800F800F858
:1008E00000F800F800F800800000000000000000A0
:1008F000006000F800F800F800F800F800F800F8D0
:1009000000F800F800F800F800F800F800F800F827
:1009100000F800F800F800F800F800F800F800F817
:1009200000F800F00030000000000000000000F0BF
:1009300000F800F800F800F800F800F800F800F8F7
:1009400000F800F800F800F800F800F800F800F8E7
:1009500000F800F800F800F800F800F800F800F8D7
:100960000098000000000000000000C800F800F837
:1009700000F800F800F800F800F800F800F800F8B7
:1009800000F800F800F800F800F800F800F800F8A7
:1009900000F800F800F800F800F800F800C80000BF
:1009A00000000000000000B800F800F800F800F8AF
:1009B00000F800F800F800F800F800F800F800F877
:1009C00000F800F800F800F800F800F800F800F867
:1009D00000F800F800F800F800D000000000000067
:1009E000000000B000F800F800F800F800F800F887
:1009F00000F800F800F800F800F800F800F800F837
:100A000000F800F800F800F800F800F800F800F826
:100A100000F800F800C0000000000000000000C066
:100A200000F800F800F800F800F800F800F800F806
:100A300000F800F800F800F800F800F800F800F8F6
:100A400000F800F800F800F800F800F800F800F8E6
:100A500000A0000000000000000000D000F800F836
:100A600000F800F800F800F800F800F800F800F8C6
:100A700000F800F800F800F800F800F800F800F8B6
:100A800000F800F800F800F800F800F80040000056
:100A900000000000000000F800F800F800F800F87E
:100AA00000F800F800F800F800F800F800F800F886
:100AB00000F800F800F800F800F800F800F800F876
:100AC00000F800F800F800C8000000000000000076
:100AD000007800F800F800F800F800F800F800F8D6
:100AE00000F800F800F800F800F800F800F800F846
:100AF00000F800F800F800F800F800F800F800F836
:100B000000F80048000000000000000000D000F8DD
:100B100000F800F800F800F800F800F800F800F815
:100B200000F800F800F800F800F800F800F800F805
:100B300000F800F800F800F800F800F80090000055
:100B4000000000000000008000F800F800F800F845
:100B500000F800F800F800F800F800F800F800F8D5
:100B600000F800F800F800F800F800F800F800F8C5
:100B700000F800F800F800C00000000000000000CD
:100B8000003000F000F800F800F800F800F800F875
:100B900000F800F800F800F800F800F800F800F895
:100BA00000F800F800F800F800F800F800F800F885
:100BB00000D80010000000000000000000C800F88D
:100BC00000F800F800F800F800F800F800F800F865
:100BD00000F800F800F800F800F800F800F800F855
:100BE00000F800F800F800F800F800E0003000001D
:100BF00000000000000000A000F800F800F800F875
:100C000000F800F800F800F800F800F800F800F824
:100C100000F800F800F800F800F800F800F800F814
:100C200000F800F800E800400000000000000000AC
:100C3000009800F800F800F800F800F800F800F854
:100C400000F800F800F800F800F800F800F800F8E4
:100C500000F800F800F800F800F800F800F800E8E4
:100C600000480000000000000000008800F800F8C4
:100C700000F800F800F800F800F800F800F800F8B4
:100C800000F800F800F800F800F800F800F800F8A4
:100C900000F800F800F800F800F000500000000034
:100CA00000000000008800F800F800F800F800F8E4
:100CB00000F800F800F800F800F800F800F800F874
:100CC00000F800F800F800F800F800F800F800F864
:100CD00000F800F000580000000000000000008054
:100CE00000F800F800F800F800F800F800F800F844
:100CF00000F800F800F800F800F800F800F800F834
:100D000000F800F800F800F800F800F800F00058CB
:100D10000000000000000000007800F800F800F873
:100D200000F800F800F800F800F800F800F800F803
:100D300000F800F800F800F800F800F800F800F8F3
:100D400000F800F800F800F000600000000000006B
:100D50000000007000F800F800F800F800F800F853
:100D600000F800F800F800F800F800F800F800F8C3
:100D700000F800F800F800F800F800F800F800F8B3
:100D800000F800600000000000000000007000F8A3
:100D900000F800F800F800F800F800F800F800F893
:100DA00000F800F800F800F800F800F800F800F883
:100DB00000F800F800F800F800F800F80060000003
:100DC000000000000000006800F800F800F800F8DB
:100DD00000F800F800F800F800F800F800F800F853
:100DE00000F800F800F800F800F800F800F800F843
:100DF00000F800F800F800680000000000000000A3
:100E0000006800F800F800F800F800F800F800F8B2
:100E100000F800F800F800F800F800F800F800F812
:100E200000F800F800F800F800F800F800F800F802
:100E300000680000000000000000006000F800F8FA
:100E400000F800F800F800F800F800F800F800F8E2
:100E500000F800F800F800F800F800F800F800F8D2
:100E600000F800F800F800F800F80070000000003A
:100E700000000000005800F000F800F800F800F84A
:100E800000F800F800F800F800F800F800F800F8A2
:100E900000F800F800F800F800F800F800F800F892
:100EA00000F800F800780000000000000000005882
:100EB00000F000F800F800F800F800F800F800F87A
:100EC00000F800F800F800F800F800F800F800F862
:100ED00000F800F800F800F800F800F800F80078D2
:100EE0000000000000000000005000F000F800F8D2
:100EF00000F800F800F800F800F800F800F800F832
:100F000000F800F800F800F800F800F800F800F821
:100F100000F800F800F800F800D800000000000019
:100F200000000000000000000000000000000000C1
:100F300000000000000000000000000000000000B1
:100F4000000000000000007800F800F800F800F849
:100F500000F800F800D800000000000000000000C9
:100F60000000000000000000000000000000000081
:100F70000000000000000000000000000000000071
:100F80000000007800F800F800F800F800F800F819
:100F900000D8000000000000000000000000000079
:100FA0000000000000000000000000000000000041
:100FB00000000000000000000000000000000078B9
:100FC00000F800F800F800F800F800F800D8000079
:100FD0000000000000000000000000000000000011
:100FE0000000000000000000000000000000000001
:100FF00000000000000000000000007800F800F889
:1010000000F800F800F800F800F800F800F800F820
:1010100000F800F800F800F800F800F800F800F810
:1010200000F800F800F800F800F800F800F800F800
:1010300000F800F800F800F800F800F800F800F8F0
:1013800000F800F800F800F8FFFF000088130000E4
:101390000200000000300040140700502000000050
:1013A000003000406407005000000002030000000D
:1013B000000004000400000002000000000000041F
:1013C00000000200000000107CECFF7F0100000024
:1013D00078ECFF7F0100000074ECFF7F010000004B
:1013E000CCEEFF7F0100000048EFFF7F010000000E
:1013F000B8EFFF7F01000000DCEFFF7F010000007D
:1014000010F0FF7F0100000044F0FF7F01000000AA
:1014100068F0FF7F0100000074F0FF7F0100000012
:101420008CF0FF7F01000000D4F0FF7F010000007E
:10143000ECF0FF7F0100000002F1FF7F01000000DF
:1014400000F1FF7F010000000EF1FF7F01000000AE
:0814500026F1FF7F01000000FE
:00000001FF
