:1000000000000120490000004D0000004D000000EC
:100010004D0000004D0000004D0000004D000000AC
:100020004D0000004D0000004D0000004D0000009C
:100030004D0000004D0000004D0000004D0000008C
:040040004D0000006F
:1000480000F002B8FEE700BF2DE9F04FD1B0DFF8AD
:100058006C05D14ADFF868454FF00008DFF87455A1
:1000680001681160CD4A01681160CD4A01681160CC
:10007800CC49CD4A00680860CC49A0688946086028
:10008800CB49A0688A460860DFF83805C949006886
:100098000860DFF83405C84900680860DFF82C05F7
:1000A800C64900680860C6484FF00041C0F82014EF
:1000B800DFF81C15096811600721C0F80080C0F836
:1000C8000C80C0F81480C0F81C80C0F84880C0F8C4
:1000D800FC13D748A847DFF800653068CAF8000065
:1000E800D448A8473068C9F8000047F66C30A847DC
:1000F800DFF8E864DFF8E8740121306800F0CCFB31
:10010800CD48A8473068112100F0C6FBCB4883468C
:10011800A84730683A2100F0BFFB3068552100F04D
:10012800CCFB5846A8473068362100F0B5FB30684C
:10013800002100F0C2FB0020F02100F013FB00209A
:10014800F02100F02DFB3068132100F0A5FB30688A
:10015800212100F0A1FB00F041FB3068292100F0CB
:100168009BFB3068332100F097FB3068002100F0DA
:10017800A4FB20460021B84720460121B847204665
:100188004021B84720460021B84720460021B847FB
:10019800DFF850040021F0224FF4A07300900020F3
:1001A80000F0B6FADFF84004DFF8D894DFF8D85446
:1001B8000DF59C7A19274FF0000BD0E90001CDE925
:1001C8004C10DFF82804D0E90001CDE94A10DFF827
:1001D8002004D0E90001CDE94810DFF81804D0E97F
:1001E8000001CDE94610DFF81004D0E90001CDE99F
:1001F8004410DFF80804D0E90001CDE94210DFF827
:100208000004D0E90001CDE94010DFF8F803D0E997
:100218000001CDE93E10DFF8F003D0E90001CDE997
:100228003C10DFF8E803D0E90001CDE93A10DFF827
:10023800E003D0E90001CDE93810DFF8D803D0E9B0
:100248000001CDE93610DFF8D003D0E90001CDE98F
:100258003410DFF8C803D0E90001CDE93210DFF827
:10026800C003D0E90001CDE93010DFF8B803D0E9C8
:100278000001CDE92E10DFF8B003D0E90001CDE987
:100288002C10DFF8A803D0E90001CDE92A10DFF827
:10029800A003D0E90001CDE92810DFF89803D0E9E0
:1002A8000001CDE92610DFF89003D0E90001CDE97F
:1002B8002410DFF88803D0E90001CDE92210DFF827
:1002C8008003D0E90001CDE92010DFF87803D0E9F8
:1002D8000001CDE91E10DFF87003D0E90001CDE977
:1002E8001C10DFF86803D0E90001CDE91A10DFF827
:1002F8006003D0E90001CDE91810DFF85803D0E910
:100308000001CDE91610DFF85003D0E90001CDE96E
:100318001410DFF84803D0E90001CDE91210DFF826
:100328004003D0E90001CDE91010DFF83803D0E927
:100338000001CDE90E10DFF83003D0E90001CDE966
:100348000C10CA48D0E90001CDE90A10C848D0E924
:100358000001CDE90810C748D0E90001CDE9061031
:10036800C548D0E90001CDE90410C448D0E900012E
:10037800CDE90210C248D0E90064BBF10E0F00F0CD
:10038800198119F80B002538352800F25C800FF226
:100398003401D1E810F000BF68070050480700504A
:1003A80038070050640700504435004008050050E5
:1003B8000C050050083500400C3500401035004051
:1003C800043100405500580058005B005F00580099
:1003D80058005800580058005800630067006B0028
:1003E8006F00730077007B007F00830087008B001D
:1003F8005800580058005800580058008F009300C3
:1004080097009B009F00A300A700AB00AF00B300BC
:10041800B700BB00BF00C300C700CB00CF00D300AC
:10042800D700DB00DF00E300E700EB005800EF0037
:100438008C0D0C00AA9D0300A42824001C6902004E
:10044800CDE94E649AE0CDE94E8897E005984E9044
:10045800049892E003984E9002988EE01B984E9074
:100468001A988AE019984E90189886E017984E9036
:10047800169882E015984E9014987EE013984E9046
:1004880012987AE011984E90109876E00F984E9056
:100498000E9872E00D984E900C986EE00B984E9066
:1004A8000A986AE009984E90089866E007984E9076
:1004B800069862E04D984E904C985EE04B984E90AE
:1004C8004A985AE049984E90489856E047984E9076
:1004D800469852E045984E9044984EE043984E9086
:1004E80042984AE041984E90409846E03F984E9096
:1004F8003E9842E03D984E903C983EE03B984E90A6
:100508003A983AE039984E90389836E037984E90B5
:10051800369832E035984E9034982EE033984E90C5
:1005280032982AE031984E90309826E02F984E90D5
:100538002E9822E02D984E902C981EE02B984E90E5
:100548002A981AE029984E90289816E027984E90F5
:10055800269812E025984E9024980EE023984E9005
:1005680022980AE021984E90209806E01F984E9015
:100578001E9802E01D984E901C984F902878698824
:1005880019221123CDF800A000EB00107943C0B266
:1005980000F0BEF828780D2807D16888092806D009
:1005A800013085F80080688001E0013028700BF187
:1005B800010BE2E651B0BDE8F08F00BFDCF00200AD
:1005C800D0F00200E8F00200DCF00200E4F00200E3
:1005D800E8F0020041070000ECF00200E0F0020041
:1005E80031080000C8F002009097000098970000BA
:1005F800A0970000A8970000B0970000B8970000E7
:10060800C0970000C8970000D0970000D897000056
:10061800E0970000E8970000F0970000F8970000C6
:100628000098000008980000109800001898000032
:1006380020980000289800003098000038980000A2
:100648004098000048980000509800005898000012
:100658006098000068980000709800007898000082
:1006680080980000889800009098000098980000F2
:10067800A0980000A8980000B0980000B898000062
:10068800C0980000F4F002000000002019481E4B3A
:1006980019491C4A00240325012600689C461B4B67
:1006A8000860164816499E4613686746CCF800301D
:1006B800C1F84041C1F80855C1F81045C1F84005D6
:1006C800CE600E60D1F84031002BFBD0136877461E
:1006D800CEF80030C1F84041C1F80855C1F81045BE
:1006E800C1F84005CE600E60D1F84031002BFBD038
:1006F800DAE700BFDCF00200440700500024F400F1
:1007080000800040F0F00200080500500C05005081
:10071800B0B50D4611461C4600F024F8284621467F
:1007280000F03EF800F05AF802480499BDE8B040DD
:100738006AE000BFD0F00200094900220323C1F893
:100748004021C1F80835C1F81025C1F8400501203D
:10075800C8600860D1F840010028FBD0704700BF8E
:1007680000800040FEB50A4F0C46054609490A4E6E
:100778003868086030462A2100F056F8386807497A
:10078800086004206946019002A800F089F8FEBDBF
:10079800E0F002000C050050D0F0020008050050FF
:1007A800FEB50A4F0C46054609490A4E38680860E6
:1007B80030462B2100F038F83868074908600420D3
:1007C8006946019002A800F06BF8FEBDE0F0020057
:1007D8000C050050D0F002000805005010B5064C7A
:1007E80006492068086006482C2100F01DF820689A
:1007F8000449086010BD00BFE0F002000C0500507D
:10080800D0F0020008050050F8B54E680C460546C1
:100818000027BE4208BFF8BD2068C15D284600F029
:1008280003F80137F5E700BF78B50246184C0125F3
:100838000DF1030652F8083F236000240368C3F84B
:1008480050450368C3F848550368C3F8446503680E
:10085800C3F818410368C3F834450368C3F838453A
:100868000368C3F840450368C3F8184103681D616D
:100878008DF803100168D1F81831002BFBD01168EE
:10088800044A116000210068C0F8181178BD00BF43
:100898000C05005008050050CAF8000020463847EB
:1008A8008DF80B408DF809500090200A8DF80A0049
:1008B800280A8DF808003046A6E7C9F80000204647
:1008C8003847D4D4D4D4D4D40000000000000000A9
:1008D8000000000000000000000000000000000010
:1008E8000000000000000000000000000000000000
:1008F80000000000000000000000000000000000F0
:1009080000000000000000000000000000000000DF
:1009180000000000000000000000000000000000CF
:1009280000000000000000000000000000000000BF
:1009380000000000000000000000000000000000AF
:100948006B6DFFFFFFFFFFFF8C71000000000000D0
:10095800000000000000000000000000000000008F
:1009680000000000C5F8FFFFFFFFFFFFD67A000078
:10097800000000000000000000000000000000006F
:100988000000000000000000F79EFFFFE73CFFFFAB
:10099800FFDF294500000000000000000000000003
:1009A800000000000000000000008430FFFFFFFF8F
:1009B8006B4DFFFFFFFF9CB300000000000000002C
:1009C8000000000000000000000000000000CE59F8
:1009D800FFFFE71C0000E6FCFFFFD6BA000000009E
:1009E80000000000000000000000000000000000FF
:1009F8001062F7BEFFFFB5760000AD55FFFFFFDFC1
:100A08002925000000000000000000000000000090
:100A1800000000008410FFFFFFFF630C00005AABCA
:100A2800FFFFFFFF8C7100000000000000000000C5
:100A38000000000000000000C618FFFFEF5D000086
:100A480000000000EF5DFFFFCE390000000000004D
:100A5800000000000000000000000000F77EFFFF1B
:100A6800BDF7000000000000C618FFFFF79E000059
:100A780000000000000000000000000000006B6D96
:100A8800FFFFFFFF7BCF0000000000008C51FFFF3D
:100A9800FFFF738E0000000000000000000000004F
:100AA8000000B596FFFFF79E000000000000000060
:100AB8002945FFDFFFFFB5B6000000000000000079
:100AC800000000000000E6FCFFFFCE590000000017
:100AD800000000000000DEDBFFFFE6FC0000000075
:100AE800000000000000000039A7FFFFFFFFFFFF24
:100AF800FFFFFFFFFFFFFFFFFFFFFFFFFFFFFFFFFE
:100B080039A7000000000000000000009492FFFFD9
:100B1800FFFFFFFFFFFFFFFFFFFFFFFFFFFFFFFFDD
:100B2800FFFFFFFF9492000000000000000000009B
:100B3800CE39FFFFE73C0000000000000000000085
:100B480000000000F79EFFFFCE3900000000000003
:100B580000000000EF7DFFFFC63800000000000025
:100B68000000000000000000D6BAFFFFEF7D000083
:100B78000000000000005AABFFFFFFFF9CF30000DD
:100B8800000000000000000000000000B596FFFF14
:100B9800FFFF5AAB000000000000A514FFFFFFFF95
:100BA800630C0000000000000000000000000000CE
:100BB80083F0FFFFFFFFA514000000000000D67AB5
:100BC800FFFFF7BE0000000000000000000000006A
:100BD800000000002925FFFFFFFFD67A0000000073
:100BE80000000000000000000000000000000000FD
:100BF80000000000000000000000000000000000ED
:100C080000000000000000000000000000000000DC
:100C180000000000000000000000000000000000CC
:100C280000000000000000000000000000000000BC
:100C380000000000000000000000000000000000AC
:100C4800000000000000000000000000000000009C
:100C5800000000000000000000000000000000008C
:100C6800000000000000000000000000000000007C
:100C7800000000000000000000000000000000006C
:100C8800000000000000000000000000000000005C
:100C9800000000000000000000000000000000004C
:100CA800000000000000000000000000000000003C
:100CB800000000000000000000000000000000002C
:100CC800000000000000000000000000000000001C
:100CD800000000000000000000000000000000000C
:100CE8008410DEFBF77EFFDFFFFFFFFFF79EE71CA8
:100CF800C5F8630C000000000000000000000000C0
:100D080000000000AD35FFFFFFFFFFFFFFFFFFFF03
:100D1800FFFFFFFFFFFFFFFFA4F40000000000003B
:100D28000000000000000000AD35FFFFFFFF630C6E
:100D380018A331666B4DBDB7FFDFFFFFFFFF6B2DBB
:100D4800000000000000000000000000AD35FFFFBB
:100D5800FFFF528A00000000000000009472FFFFAD
:100D6800FFFFBDD7000000000000000000000000E9
:100D7800AD35FFFFFFFF528A0000000000000000B1
:100D88000000F79EFFFFD67A000000000000000078
:100D980000000000AD35FFFFFFFF528A0000000091
:100DA800000000000000F79EFFFFC61800000000CA
:100DB8000000000000000000AD35FFFFFFFF528A71
:100DC80000000000000000009472FFFFFFFF843065
:100DD800000000000000000000000000AD35FFFF2B
:100DE800FFFF528A000039E7738EBDF7FFFFFFFF50
:100DF800D67A00000000000000000000000000009B
:100E0800AD35FFFFFFFFFFFFFFFFFFFFFFFFFFFF06
:100E1800FFFFC5F818E30000000000000000000014
:100E280000000000AD35FFFFFFFFFFFFFFFFFFFFE2
:100E3800FFFFFFFFFFFFFFBFB596000000000000A7
:100E48000000000000000000AD35FFFFFFFF528AE0
:100E5800000018A35AAB9492DEDBFFFFFFFFCE59C8
:100E6800000000000000000000000000AD35FFFF9A
:100E7800FFFF528A00000000000000000000C618B2
:100E8800FFFFFFFF7BAF0000000000000000000034
:100E9800AD35FFFFFFFF528A000000000000000090
:100EA80000004A69FFFFFFFFB5B600000000000020
:100EB80000000000AD35FFFFFFFF528A0000000070
:100EC8000000000000000000FFFFFFFFC5F8000061
:100ED8000000000000000000AD35FFFFFFFF528A50
:100EE800000000000000000000005AEBFFFFFFFFB9
:100EF800B57600000000000000000000AD35FFFFDF
:100F0800FFFF528A000000000000000018A3D6BAB4
:100F1800FFFFFFFF738E00000000000000000000CC
:100F2800AD35FFFFFFFF6B4D18E329255ACB94928F
:100F3800E6FCFFFFFFFFDEDB000000000000000012
:100F480000000000AD35FFFFFFFFFFFFFFFFFFFFC1
:100F5800FFFFFFFFFFFFFFFFE6FC42080000000065
:100F680000000000000000008410E6FCF77EFFDFB0
:100F7800FFFFFFFFFFDFEF5DD67A949200000000CD
:100F88000000000000000000000000000000000059
:100F98000000000000000000000000000000000049
:100FA8000000000000000000000000000000000039
:100FB8000000000000000000000000000000000029
:100FC8000000000000000000000000000000000019
:100FD8000000000000000000000000000000000009
:100FE80000000000000000000000000000000000F9
:100FF80000000000000000000000000000000000E9
:1010080000000000000000000000000000000000D8
:1010180000000000000000000000000000000000C8
:1010280000000000000000000000000000000000B8
:1010380000000000000000000000000000000000A8
:101048000000000000000000000000000000000098
:101058000000000000000000000000000000000088
:101068000000000000000000000000000000000078
:101078000000000000000000000000000000000068
:101088000000000000000000000000000000000058
:10109800528ABDF7EF5DFFDFFFFFF79EDEBBA514A9
:1010A80029450000000000000000000000000000CA
:1010B8000000A514FFDFFFFFFFFFFFFFFFFFFFFF9B
:1010C800FFFFFFFFBDD70000000000000000000088
:1010D80000000000A514FFFFFFFFF77EA4F4528A6A
:1010E80039E77BAFB596EF7D6B2D0000000000005F
:1010F8000000000000006B2DFFDFFFFFEF3D39C748
:1011080000000000000000000000000000000000D7
:1011180000000000000000000000D67AFFFFFFFF7B
:10112800630C000000000000000000000000000048
:101138000000000000000000000000004208FFFF5F
:10114800FFFFD67A00000000000000000000000049
:101158000000000000000000000000000000000087
:101168009492FFFFFFFF949200000000000000002F
:101178000000000000000000000000000000000067
:1011880000000000BDD7FFFFFFFF4A690000000014
:101198000000000000000000000000000000000047
:1011A8000000000000000000CE39FFFFFFFF000034
:1011B8000000000000000000000000000000000027
:1011C800000000000000000000000000D67AFFFFC9
:1011D800FFBF000000000000000000000000000049
:1011E80000000000000000000000000000000000F7
:1011F800CE39FFFFFFFF00000000000000000000E4
:1012080000000000000000000000000000000000D6
:1012180000000000BDF7FFFFFFFF420800000000CC
:1012280000000000000000000000000000000000B6
:1012380000000000000000009CD3FFFFFFFF8C515E
:101248000000000000000000000000000000000096
:101258000000000000000000000000005AABFFFF83
:10126800FFFFCE3900000000000000000000000071
:101278000000000000000000000000000000000066
:101288000000E6FCFFFFFFDF5AAB00000000000093
:101298000000000000000000000000000000000046
:1012A8000000000000008C51FFFFFFFFE6FC3186C4
:1012B8000000000000000000000000000000000026
:1012C800000000000000000000000000CE39FFFF11
:1012D800FFFFEF7DA4F452AA31866B4D9CF3DEDB51
:1012E8009CB30000000000000000000000000000A7
:1012F8001062C618FFFFFFFFFFFFFFFFFFFFFFFFA2
:10130800FFFFFFFFD69A0000000000000000000069
:1013180000000000000000007BCFCE59F77EFFDF01
:10132800FFFFF7BEE6FCB5B6528A000000000000D9
:1013380000000000000000000000000000000000A5
:101348000000000000000000000000000000000095
:101358000000000000000000000000000000000085
:101368000000000000000000000000000000000075
:101378000000000000000000000000000000000065
:101388000000000000000000000000000000000055
:101398000000000000000000000000000000000045
:1013A8000000000000000000000000000000000035
:1013B8000000000000000000000000000000000025
:1013C8000000000000000000000000000000000015
:1013D8000000000000000000000000000000000005
:1013E80000000000000000000000000000000000F5
:1013F80000000000000000000000000000000000E5
:1014080000000000000000000000000000000000D4
:1014180000000000000000000000000000000000C4
:1014280000000000000000000000000000000000B4
:101438008410DEFBF79EFFDFFFFFFFBFE73CC61807
:101448006B2D0000000000000000000000000000FC
:1014580000000000AD35FFFFFFFFFFFFFFFFFFFFAC
:10146800FFFFFFFFFFFFC61818A3000000000000E1
:101478000000000000000000AD35FFFFFFFF630C17
:1014880018E352AA9CB3E6FCFFFFFFFFD67A0000E0
:10149800000000000000000000000000AD35FFFF64
:1014A800FFFF528A0000000000000000BDF7FFFFA8
:1014B800FFFFA5140000000000000000000000006D
:1014C800AD35FFFFFFFF528A00000000000000005A
:1014D8000000E71CFFFFF77E10620000000000001C
:1014E80000000000AD35FFFFFFFF528A000000003A
:1014F8000000000000009CD3FFFFFFFF84300000C5
:101508000000000000000000AD35FFFFFFFF528A19
:10151800000000000000000000003186FFFFFFFF10
:10152800BDD700000000000000000000AD35FFFF3F
:10153800FFFF528A000000000000000000000000C9
:10154800F77EFFFFD6BA0000000000000000000090
:10155800AD35FFFFFFFF528A0000000000000000C9
:1015680000000000E73CFFFFE6FC00000000000070
:1015780000000000AD35FFFFFFFF528A00000000A9
:101588000000000000000000E6FCFFFFEF3D000047
:101598000000000000000000AD35FFFFFFFF528A89
:1015A800000000000000000000000000E73CFFFF12
:1015B800E6FC00000000000000000000AD35FFFF61
:1015C800FFFF528A00000000000000000000000039
:1015D800F77EFFFFD6BA0000000000000000000000
:1015E800AD35FFFFFFFF528A000000000000000039
:1015F800000039C7FFFFFFFFBDD700000000000053
:1016080000000000AD35FFFFFFFF528A0000000018
:101618000000000000009CD3FFFFFFFF8C3100009A
:101628000000000000000000AD35FFFFFFFF528AF8
:1016380000000000000000000000E71CFFFFF77E2C
:1016480018A300000000000000000000AD35FFFFF7
:10165800FFFF528A0000000000000000BDD7FFFF16
:10166800FFFFA5340000000000000000000000009B
:10167800AD35FFFFFFFF6B4D21044A699472DEDB35
:10168800FFFFFFFFD69A00000000000000000000E6
:1016980000000000AD35FFFFFFFFFFFFFFFFFFFF6A
:1016A800FFFFFFFFFFFFC61818E30000000000005F
:1016B80000000000000000008410DEFBF79EFFDF42
:1016C800FFFFFFBFEF3DC6186B2D000000000000B4
:1016D8000000000000000000000000000000000002
:1016E80000000000000000000000000000000000F2
:1016F80000000000000000000000000000000000E2
:1017080000000000000000000000000000000000D1
:1017180000000000000000000000000000000000C1
:1017280000000000000000000000000000000000B1
:1017380000000000000000000000000000000000A1
:101748000000000000000000000000000000000091
:101758000000000000000000000000000000000081
:101768000000000000000000000000000000000071
:101778000000000000000000000000000000000061
:101788000000000000000000000000000000000051
:101798000000000000000000000000000000000041
:1017A8000000000000000000000000000000000031
:1017B8000000000000000000000000000000000021
:1017C8000000000000000000000000000000000011
:1017D800000000000000000000009472FFFFFFFFFF
:1017E800FFFFFFFFFFFFFFFFFFFFFFFFFFFFFFFF01
:1017F8006B4D000000000000000000000000947223
:10180800FFFFFFFFFFFFFFFFFFFFFFFFFFFFFFFFE0
:10181800FFFFFFFF6B4D000000000000000000000C
:1018280000009472FFFFFFFF7BCF00000000000064
:1018380000000000000000000000000000000000A0
:101848000000000000009472FFFFFFFF7BCF000044
:101858000000000000000000000000000000000080
:10186800000000000000000000009472FFFFFFFF6E
:101878007BCF000000000000000000000000000016
:10188800000000000000000000000000000094724A
:10189800FFFFFFFF7BCF00000000000000000000FA
:1018A8000000000000000000000000000000000030
:1018B80000009472FFFFFFFF7BCF000000000000D4
:1018C8000000000000000000000000000000000010
:1018D8000000000000009472FFFFFFFF7BCF0000B4
:1018E80000000000000000000000000000000000F0
:1018F800000000000000000000009472FFFFFFFFDE
:10190800FFFFFFFFFFFFFFFFFFFFFFFFFFFF736EFC
:1019180000000000000000000000000000009472B9
:10192800FFFFFFFFFFFFFFFFFFFFFFFFFFFFFFFFBF
:10193800FFFF736E000000000000000000000000C0
:1019480000009472FFFFFFFF7BCF00000000000043
:10195800000000000000000000000000000000007F
:101968000000000000009472FFFFFFFF7BCF000023
:10197800000000000000000000000000000000005F
:10198800000000000000000000009472FFFFFFFF4D
:101998007BCF0000000000000000000000000000F5
:1019A8000000000000000000000000000000947229
:1019B800FFFFFFFF7BCF00000000000000000000D9
:1019C800000000000000000000000000000000000F
:1019D80000009472FFFFFFFF7BCF000000000000B3
:1019E80000000000000000000000000000000000EF
:1019F8000000000000009472FFFFFFFF7BCF000093
:101A080000000000000000000000000000000000CE
:101A1800000000000000000000009472FFFFFFFFBC
:101A28007BCF000000000000000000000000000064
:101A38000000000000000000000000000000947298
:101A4800FFFFFFFFFFFFFFFFFFFFFFFFFFFFFFFF9E
:101A5800FFFFFFFFEF5D0000000000000000000036
:101A680000009472FFFFFFFFFFFFFFFFFFFFFFFF74
:101A7800FFFFFFFFFFFFFFFFEF5D0000000000001A
:101A8800000000000000000000000000000000004E
:101A9800000000000000000000000000000000003E
:101AA800000000000000000000000000000000002E
:101AB800000000000000000000000000000000001E
:101AC800000000000000000000000000000000000E
:101AD80000000000000000000000000000000000FE
:101AE80000000000000000000000000000000000EE
:101AF80000000000000000000000000000000000DE
:101B080000000000000000000000000000000000CD
:101B180000000000000000000000000000000000BD
:101B280000000000000000000000000000000000AD
:101B3800000000000000000000000000000000009D
:101B4800000000000000000000000000000000008D
:101B5800000000000000000000000000000000007D
:101B6800000000000000000000000000000000006D
:101B7800000000000000000000000000000000005D
:101B880000009472FFFFFFFFFFFFFFFFFFFFFFFF53
:101B9800FFFFFFFFFFFFFFFF94720000000000003F
:101BA8000000000000009472FFFFFFFFFFFFFFFF2F
:101BB800FFFFFFFFFFFFFFFFFFFFFFFF9472000023
:101BC800000000000000000000009472FFFFFFFF0B
:101BD8007BCF0000000000000000000000000000B3
:101BE80000000000000000000000000000009472E7
:101BF800FFFFFFFF7BCF0000000000000000000097
:101C080000000000000000000000000000000000CC
:101C180000009472FFFFFFFF7BCF00000000000070
:101C280000000000000000000000000000000000AC
:101C38000000000000009472FFFFFFFF7BCF000050
:101C4800000000000000000000000000000000008C
:101C5800000000000000000000009472FFFFFFFF7A
:101C68007BCF000000000000000000000000000022
:101C78000000000000000000000000000000947256
:101C8800FFFFFFFF7BCF0000000000000000000006
:101C9800000000000000000000000000000000003C
:101CA80000009472FFFFFFFFFFFFFFFFFFFFFFFF32
:101CB800FFFFFFFFFFFF94B20000000000000000DC
:101CC8000000000000009472FFFFFFFFFFFFFFFF0E
:101CD800FFFFFFFFFFFFFFFFFFFF94B200000000C0
:101CE800000000000000000000009472FFFFFFFFEA
:101CF8007BCF000000000000000000000000000092
:101D080000000000000000000000000000009472C5
:101D1800FFFFFFFF7BCF0000000000000000000075
:101D280000000000000000000000000000000000AB
:101D380000009472FFFFFFFF7BCF0000000000004F
:101D4800000000000000000000000000000000008B
:101D58000000000000009472FFFFFFFF7BCF00002F
:101D6800000000000000000000000000000000006B
:101D7800000000000000000000009472FFFFFFFF59
:101D88007BCF000000000000000000000000000001
:101D98000000000000000000000000000000947235
:101DA800FFFFFFFF7BCF00000000000000000000E5
:101DB800000000000000000000000000000000001B
:101DC80000009472FFFFFFFF7BCF000000000000BF
:101DD80000000000000000000000000000000000FB
:101DE8000000000000009472FFFFFFFF7BCF00009F
:101DF80000000000000000000000000000000000DB
:101E0800000000000000000000009472FFFFFFFFC8
:101E18007BCF000000000000000000000000000070
:101E280000000000000000000000000000000000AA
:101E3800000000000000000000000000000000009A
:101E4800000000000000000000000000000000008A
:101E5800000000000000000000000000000000007A
:101E6800000000000000000000000000000000006A
:101E7800000000000000000000000000000000005A
:101E8800000000000000000000000000000000004A
:101E9800000000000000000000000000000000003A
:101EA800000000000000000000000000000000002A
:101EB800000000000000000000000000000000001A
:101EC800000000000000000000000000000000000A
:101ED80000000000000000000000000000000000FA
:101EE80000000000000000000000000000000000EA
:101EF80000000000000000000000000000000000DA
:101F080000000000000000000000000000000000C9
:101F180000000000000000000000000000000000B9
:101F280000000000000000000000000000000000A9
:101F38005ACBC5F8EF5DFFDFFFFFF79EDEDBAD553F
:101F480031660000000000000000000000000000F2
:101F58000000A534FFDFFFFFFFFFFFFFFFFFFFFFCC
:101F6800FFFFFFFFAD75000000000000000000004B
:101F780000000000AD35FFFFFFFFF79EA514528A51
:101F880029456B4DAD75EF3D42080000000000008B
:101F98000000000000006B4DFFDFFFFFEF5D4A29E6
:101FA8000000000000000000000000000000000029
:101FB80000000000000000000000D69AFFFFFFFFAD
:101FC8006B6D000000000000000000000000000031
:101FD8000000000000000000000000004208FFFFB1
:101FE800FFFFD69A0000000000000000000000007B
:101FF80000000000000000000000000000000000D9
:102008009492FFFFFFFF94B2000000000000000060
:1020180000000000000000000000000000000000B8
:1020280000000000BDD7FFFFFFFF528A000000003C
:102038000000000000000000000000000000000098
:102048000000000000000000CE39FFFFFFFF000085
:102058000000000000000000000000000000000078
:10206800000000000000000000000000D67AFFFF1A
:10207800FFBF00000000000000000000000000009A
:102088000000000000000000000000000000000048
:10209800CE59FFFFFFFF0000000000000000000015
:1020A80000000000EF5DFFFFD6BA0000000000004E
:1020B80000000000BDF7FFFFFFFF4A2900000000F5
:1020C8000000000000000000EF5DFFFFD6BA00002E
:1020D80000000000000000009CD3FFFFFFFF8C51B0
:1020E800000000000000000000000000EF5DFFFF9E
:1020F800D6BA000000000000000000005AABFFFF45
:10210800FFFFCE39000000000000000000000000C2
:10211800EF5DFFFFD6BA00000000000000000000DD
:102128000000DEFBFFFFFFDF528A00000000000016
:1021380000000000EF5DFFFFD6BA000000000000BD
:102148000000000000008C31FFFFFFFFE6FC29457E
:102158000000000000000000EF5DFFFFD6BA00009D
:10216800000000000000000000000000CE39FFFF62
:10217800FFFFEF5D9CB34A4918E36B4DF79EFFFFE5
:10218800D6BA0000000000000000000000000000B7
:102198001062C638FFFFFFFFFFFFFFFFFFFFFFFFD3
:1021A800FFFFFFFFD6BA000000000000000000009B
:1021B800000000000000000083F0D67AF79EFFFFC1
:1021C800FFFFFFBFE71CC6187BCF00000000000020
:1021D80000000000000000000000000000000000F7
:1021E80000000000000000000000000000000000E7
:1021F80000000000000000000000000000000000D7
:1022080000000000000000000000000000000000C6
:1022180000000000000000000000000000000000B6
:1022280000000000000000000000000000000000A6
:102238000000000000000000000000000000000096
:102248000000000000000000000000000000000086
:102258000000000000000000000000000000000076
:102268000000000000000000000000000000000066
:102278000000000000000000000000000000000056
:102288000000000000000000000000000000000046
:102298000000000000000000000000000000000036
:1022A8000000000000000000000000000000000026
:1022B8000000000000000000000000000000000016
:1022C8000000000000000000000000000000000006
:1022D800D6BAFFFFEF5D000000000000000000001C
:1022E80000000000EF5DFFFFD6BA0000000000000C
:1022F80000000000D6BAFFFFEF5D000000000000FC
:102308000000000000000000EF5DFFFFD6BA0000EB
:102318000000000000000000D6BAFFFFEF5D0000DB
:10232800000000000000000000000000EF5DFFFF5B
:10233800D6BA00000000000000000000D6BAFFFF77
:10234800EF5D000000000000000000000000000039
:10235800EF5DFFFFD6BA000000000000000000009B
:10236800D6BAFFFFEF5D000000000000000000008B
:1023780000000000EF5DFFFFD6BA0000000000007B
:1023880000000000D6BAFFFFEF5D0000000000006B
:102398000000000000000000EF5DFFFFD6BA00005B
:1023A8000000000000000000D6BAFFFFEF5D00004B
:1023B800000000000000000000000000EF5DFFFFCB
:1023C800D6BA00000000000000000000D6BAFFFFE7
:1023D800EF5D0000000000000000000000000000A9
:1023E800EF5DFFFFD6BA000000000000000000000B
:1023F800D6BAFFFFFFFFFFFFFFFFFFFFFFFFFFFF53
:10240800FFFFFFFFFFFFFFFFD6BA0000000000003C
:1024180000000000D6BAFFFFFFFFFFFFFFFFFFFF2E
:10242800FFFFFFFFFFFFFFFFFFFFFFFFD6BA000020
:102438000000000000000000D6BAFFFFEF5D0000BA
:10244800000000000000000000000000EF5DFFFF3A
:10245800D6BA00000000000000000000D6BAFFFF56
:10246800EF5D000000000000000000000000000018
:10247800EF5DFFFFD6BA000000000000000000007A
:10248800D6BAFFFFEF5D000000000000000000006A
:1024980000000000EF5DFFFFD6BA0000000000005A
:1024A80000000000D6BAFFFFEF5D0000000000004A
:1024B8000000000000000000EF5DFFFFD6BA00003A
:1024C8000000000000000000D6BAFFFFEF5D00002A
:1024D800000000000000000000000000EF5DFFFFAA
:1024E800D6BA00000000000000000000D6BAFFFFC6
:1024F800EF5D000000000000000000000000000088
:10250800EF5DFFFFD6BA00000000000000000000E9
:10251800D6BAFFFFEF5D00000000000000000000D9
:1025280000000000EF5DFFFFD6BA000000000000C9
:1025380000000000D6BAFFFFEF5D000000000000B9
:102548000000000000000000EF5DFFFFD6BA0000A9
:102558000000000000000000D6BAFFFFEF5D000099
:10256800000000000000000000000000EF5DFFFF19
:10257800D6BA0000000000000000000000000000C3
:102588000000000000000000000000000000000043
:102598000000000000000000000000000000000033
:1025A8000000000000000000000000000000000023
:1025B8000000000000000000000000000000000013
:1025C8000000000000000000000000000000000003
:1025D80000000000000000000000000000000000F3
:1025E80000000000000000000000000000000000E3
:1025F80000000000000000000000000000000000D3
:1026080000000000000000000000000000000000C2
:1026180000000000000000000000000000000000B2
:1026280000000000000000000000000000000000A2
:102638000000000000000000000000000000000092
:102648000000000000000000000000000000000082
:102658000000000000000000000000000000000072
:102668000000000000000000000000000000000062
:10267800000000000000000000009CF3FFFFFFFFC7
:10268800FFFFFFFFFFFFFFFFFFFFFFFFFFFF9CF3C1
:1026980000000000000000000000000000009CF3A3
:1026A800FFFFFFFFFFFFFFFFFFFFFFFFFFFFFFFF32
:1026B800FFFF9CF300000000000000000000000085
:1026C80000000000000000000000E71CFFFFE71CFE
:1026D80000000000000000000000000000000000F2
:1026E8000000000000000000000000000000E71CDF
:1026F800FFFFE71C000000000000000000000000D1
:1027080000000000000000000000000000000000C1
:102718000000E71CFFFFE71C0000000000000000AD
:1027280000000000000000000000000000000000A1
:10273800000000000000E71CFFFFE71C000000008D
:102748000000000000000000000000000000000081
:1027580000000000000000000000E71CFFFFE71C6D
:102768000000000000000000000000000000000061
:102778000000000000000000000000000000E71C4E
:10278800FFFFE71C00000000000000000000000040
:102798000000000000000000000000000000000031
:1027A8000000E71CFFFFE71C00000000000000001D
:1027B8000000000000000000000000000000000011
:1027C800000000000000E71CFFFFE71C00000000FD
:1027D80000000000000000000000000000000000F1
:1027E80000000000000000000000E71CFFFFE71CDD
:1027F80000000000000000000000000000000000D1
:102808000000000000000000000000000000E71CBD
:10281800FFFFE71C000000000000000000000000AF
:1028280000000000000000000000000000000000A0
:102838000000E71CFFFFE71C00000000000000008C
:102848000000000000000000000000000000000080
:10285800000000000000E71CFFFFE71C000000006C
:102868000000000000000000000000000000000060
:1028780000000000000000000000E71CFFFFE71C4C
:102888000000000000000000000000000000000040
:102898000000000000000000000000000000E71C2D
:1028A800FFFFE71C0000000000000000000000001F
:1028B8000000000000000000000000000000000010
:1028C8000000E71CFFFFE71C0000000000000000FC
:1028D80000000000000000000000000000009CF361
:1028E800FFFFFFFFFFFFFFFFFFFFFFFFFFFFFFFFF0
:1028F800FFFF9CF300000000000000000000000043
:1029080000009CF3FFFFFFFFFFFFFFFFFFFFFFFF3C
:10291800FFFFFFFFFFFF9CF3000000000000000026
:10292800000000000000000000000000000000009F
:10293800000000000000000000000000000000008F
:10294800000000000000000000000000000000007F
:10295800000000000000000000000000000000006F
:10296800000000000000000000000000000000005F
:10297800000000000000000000000000000000004F
:10298800000000000000000000000000000000003F
:10299800000000000000000000000000000000002F
:1029A800000000000000000000000000000000001F
:1029B800000000000000000000000000000000000F
:1029C80000000000000000000000000000000000FF
:1029D80000000000000000000000000000000000EF
:1029E80000000000000000000000000000000000DF
:1029F80000000000000000000000000000000000CF
:102A080000000000000000000000000000000000BE
:102A180000000000000000000000000000000000AE
:102A2800000000007BCFFFFFFFFFFFFFFFFFFFFF5E
:102A3800FFFFFFFFFFFFCE7900000000000000004D
:102A480000000000000000007BCFFFFFFFFFFFFF3A
:102A5800FFFFFFFFFFFFFFFFFFFFCE790000000031
:102A6800000000000000000000000000000000005E
:102A780000000000000000000000F79EFFFFCE7974
:102A8800000000000000000000000000000000003E
:102A98000000000000000000000000000000F79E99
:102AA800FFFFCE79000000000000000000000000D9
:102AB800000000000000000000000000000000000E
:102AC8000000F79EFFFFCE79000000000000000024
:102AD80000000000000000000000000000000000EE
:102AE800000000000000F79EFFFFCE790000000004
:102AF80000000000000000000000000000000000CE
:102B080000000000000000000000F79EFFFFCE79E3
:102B180000000000000000000000000000000000AD
:102B28000000000000000000000000000000F79E08
:102B3800FFFFCE7900000000000000000000000048
:102B4800000000000000000000000000000000007D
:102B58000000F79EFFFFCE79000000000000000093
:102B6800000000000000000000000000000000005D
:102B7800000000000000F79EFFFFCE790000000073
:102B8800000000000000000000000000000000003D
:102B980000000000000000000000F79EFFFFCE7953
:102BA800000000000000000000000000000000001D
:102BB8000000000000000000000000000000F79E78
:102BC800FFFFCE79000000000000000000000000B8
:102BD80000000000000000000000000000000000ED
:102BE8000000F79EFFFFCE59000000000000000023
:102BF80000000000000000000000000000000000CD
:102C0800000000000000FFDFFFFFC63800000000E2
:102C180000000000000000000000000000000000AC
:102C280000000000000000005ACBFFFFFFFFB57650
:102C3800000000000000000000000000000000008C
:102C4800000000000000000000000000C5F8FFFFC1
:102C5800FFFF7BAF00000000000000000000000044
:102C68000000D69ACE798C514A2921046B2DC618BA
:102C7800FFFFFFFFE6FC000000000000000000006E
:102C880000000000738EFFFFFFFFFFFFFFFFFFFF45
:102C9800FFFFFFFFFFFFEF7D5ACB000000000000A1
:102CA800000000000000000000007BCFCE59EF5D5F
:102CB800FFDFFFFFFFBFE73CB5963186000000004D
:102CC80000000000000000000000000000000000FC
:102CD80000000000000000000000000000000000EC
:102CE80000000000000000000000000000000000DC
:102CF80000000000000000000000000000000000CC
:102D080000000000000000000000000000000000BB
:102D180000000000000000000000000000000000AB
:102D2800000000000000000000000000000000009B
:102D3800000000000000000000000000000000008B
:102D4800000000000000000000000000000000007B
:102D5800000000000000000000000000000000006B
:102D6800000000000000000000000000000000005B
:102D7800000000000000000000000000000000004B
:102D8800000000000000000000000000000000003B
:102D9800000000000000000000000000000000002B
:102DA800000000000000000000000000000000001B
:102DB800000000000000000000000000000000000B
:102DC8000000000000000000528AFFFFFFFFAD3541
:102DD80000000000000000000000738EFFFFFFFFEE
:102DE800E6FC10620000000000000000528AFFFFAD
:102DF800FFFFAD35000000000000000039E7F77E56
:102E0800FFFFFFBF5AAB00000000000000000000F9
:102E1800528AFFFFFFFFAD3500000000000010627E
:102E2800DEBBFFFFFFFF94720000000000000000FF
:102E380000000000528AFFFFFFFFAD3500000000D0
:102E48000000BDD7FFFFFFFFB5B60000000000007F
:102E58000000000000000000528AFFFFFFFFAD35B0
:102E680000000000A514FFFFFFFFD69A0000000035
:102E7800000000000000000000000000528AFFFF70
:102E8800FFFFAD3500009492FFFFFFFFE71C2945C7
:102E9800000000000000000000000000000000002A
:102EA800528AFFFFFFFFAD3583F0FFDFFFFFEF7DA5
:102EB8004A69000000000000000000000000000057
:102EC80000000000528AFFFFFFFFC618FFBFFFFF88
:102ED800F79E5AEB00000000000000000000000010
:102EE8000000000000000000528AFFFFFFFFFFFF04
:102EF800FFFFFFFF9CF3000000000000000000003F
:102F0800000000000000000000000000528AFFFFDF
:102F1800FFFFF77EFFFFFFFFFFDF841000000000C8
:102F28000000000000000000000000000000000099
:102F3800528AFFFFFFFFAD35B576FFFFFFFFFFDFCA
:102F480073AE000000000000000000000000000058
:102F580000000000528AFFFFFFFFAD350000A514F6
:102F6800FFFFFFFFF79E5AAB0000000000000000C3
:102F78000000000000000000528AFFFFFFFFAD358F
:102F880000000000B596FFFFFFFFEF3D39A70000E6
:102F9800000000000000000000000000528AFFFF4F
:102FA800FFFFAD35000000000000CE39FFFFFFFF36
:102FB800CE590000000000000000000000000000E2
:102FC800528AFFFFFFFFAD350000000000002945D1
:102FD800EF5DFFFFFFFF8C710000000000000000A4
:102FE80000000000528AFFFFFFFFAD35000000001F
:102FF80000000000738EFFFFFFFFF79E42080000ED
:103008000000000000000000528AFFFFFFFFAD35FE
:1030180000000000000000000000BDD7FFFFFFFF18
:10302800C61800000000000000000000528AFFFFE0
:10303800FFFFAD35000000000000000000003186F1
:10304800F79EFFFFFFFF5AAB0000000000000000E2
:10305800528AFFFFFFFFAD350000000000000000AE
:1030680000000000A514FFFFFFFFC5F800000000E6
:103078000000000000000000000000000000000048
:103088000000000000000000000000000000000038
:103098000000000000000000000000000000000028
:1030A8000000000000000000000000000000000018
:1030B8000000000000000000000000000000000008
:1030C80000000000000000000000000000000000F8
:1030D80000000000000000000000000000000000E8
:1030E80000000000000000000000000000000000D8
:1030F80000000000000000000000000000000000C8
:1031080000000000000000000000000000000000B7
:1031180000000000000000000000000000000000A7
:103128000000000000000000000000000000000097
:103138000000000000000000000000000000000087
:103148000000000000000000000000000000000077
:103158000000000000000000000000000000000067
:103168000000000000000000000000000000000057
:1031780000009472FFFFFFFF7BCF000000000000FB
:103188000000000000000000000000000000000037
:103198000000000000009472FFFFFFFF7BCF0000DB
:1031A8000000000000000000000000000000000017
:1031B800000000000000000000009472FFFFFFFF05
:1031C8007BCF0000000000000000000000000000AD
:1031D80000000000000000000000000000009472E1
:1031E800FFFFFFFF7BCF0000000000000000000091
:1031F80000000000000000000000000000000000C7
:1032080000009472FFFFFFFF7BCF0000000000006A
:1032180000000000000000000000000000000000A6
:103228000000000000009472FFFFFFFF7BCF00004A
:103238000000000000000000000000000000000086
:10324800000000000000000000009472FFFFFFFF74
:103258007BCF00000000000000000000000000001C
:103268000000000000000000000000000000947250
:10327800FFFFFFFF7BCF0000000000000000000000
:103288000000000000000000000000000000000036
:1032980000009472FFFFFFFF7BCF000000000000DA
:1032A8000000000000000000000000000000000016
:1032B8000000000000009472FFFFFFFF7BCF0000BA
:1032C80000000000000000000000000000000000F6
:1032D800000000000000000000009472FFFFFFFFE4
:1032E8007BCF00000000000000000000000000008C
:1032F80000000000000000000000000000009472C0
:10330800FFFFFFFF7BCF000000000000000000006F
:1033180000000000000000000000000000000000A5
:1033280000009472FFFFFFFF7BCF00000000000049
:103338000000000000000000000000000000000085
:103348000000000000009472FFFFFFFF7BCF000029
:103358000000000000000000000000000000000065
:10336800000000000000000000009472FFFFFFFF53
:103378007BCF0000000000000000000000000000FB
:10338800000000000000000000000000000094722F
:10339800FFFFFFFF7BCF00000000000000000000DF
:1033A8000000000000000000000000000000000015
:1033B80000009472FFFFFFFF7BCF000000000000B9
:1033C80000000000000000000000000000000000F5
:1033D8000000000000009472FFFFFFFFFFFFFFFFE7
:1033E800FFFFFFFFFFFFFFFFFFFFFFFFEF5D000095
:1033F800000000000000000000009472FFFFFFFFC3
:10340800FFFFFFFFFFFFFFFFFFFFFFFFFFFFFFFFC4
:10341800EF5D000000000000000000000000000058
:103428000000000000000000000000000000000094
:103438000000000000000000000000000000000084
:103448000000000000000000000000000000000074
:103458000000000000000000000000000000000064
:103468000000000000000000000000000000000054
:103478000000000000000000000000000000000044
:103488000000000000000000000000000000000034
:103498000000000000000000000000000000000024
:1034A8000000000000000000000000000000000014
:1034B8000000000000000000000000000000000004
:1034C80000000000000000000000000000000000F4
:1034D80000000000000000000000000000000000E4
:1034E80000000000000000000000000000000000D4
:1034F80000000000000000000000000000000000C4
:1035080000000000000000000000000000000000B3
:1035180000000000000000000000DEFBFFFFE73CA9
:1035280000000000000000000000E71CFFFFE73C6F
:103538000000000000000000000000000000EF7D17
:10354800FFFFFFFF528A0000000000004A29FFFF2A
:10355800FFFFF79E000000000000000000000000D0
:103568000000FFDFFFFFFFFFA534000000000000A0
:10357800A4F4FFFFFFFFFFFF21040000000000008C
:103588000000000039C7FFFFF77EFFFFDEBB000029
:1035980000000000D69AFFFFF77EFFFF630C0000D3
:1035A80000000000000000006B6DFFFFD6BAF79E18
:1035B800FFDF2925000018A3FFBFF79ED6BAFFFF3B
:1035C8008430000000000000000000008C31FFFF84
:1035D800D69ACE39FFFF947200008410FFFFCE59AF
:1035E800D69AFFFF9CB30000000000000000000016
:1035F8009CD3FFFFD67A8C51FFFFCE590000C61826
:10360800FFFF9472CE79FFFFAD3500000000000087
:1036180000000000AD55FFFFCE7918E3FFBFF79E0D
:103628000000EF5DFFDF2925CE59FFFFB5B600008A
:103638000000000000000000BDD7FFFFCE590000C9
:10364800D69AFFFF9492FFFFDEBB0000CE39FFFF42
:10365800C61800000000000000000000CE39FFFF7F
:10366800CE3900009CD3FFFFF77EFFFFA5140000B2
:10367800C618FFFFCE59000000000000000000003F
:10368800D67AFFFFC618000039E7FFFFFFFFFFFFEC
:10369800526A0000C5F8FFFFD69A0000000000003B
:1036A80000000000DEDBFFFFC5F800000000DEFBC5
:1036B800FFFFE71C00000000BDF7FFFFDEDB000096
:1036C8000000000000000000E71CFFFFBDD700005D
:1036D800000000000000000000000000BDD7FFFF50
:1036E800E71C00000000000000000000EF5DFFFF85
:1036F800BDB700000000000000000000000000004E
:10370800B5B6FFFFEF5D00000000000000000000FC
:10371800F77EFFFFB5B600000000000000000000C3
:1037280000000000B596FFFFF77E000000000000D3
:1037380000000000F7BEFFFFB59600000000000083
:103748000000000000000000B576FFFFF79E0000B3
:103758000000000000000000FFDFFFFFAD75000063
:10376800000000000000000000000000AD75FFFF31
:10377800FFDF00000000000000000000FFFFFFFF67
:10378800AD5500000000000000000000000000002F
:10379800AD55FFFFFFFF000000000000000031668C
:1037A800FFFFFFFFA534000000000000000000003C
:1037B80000000000A534FFFFFFFF294500000000BE
:1037C80000000000000000000000000000000000F1
:1037D80000000000000000000000000000000000E1
:1037E80000000000000000000000000000000000D1
:1037F80000000000000000000000000000000000C1
:1038080000000000000000000000000000000000B0
:1038180000000000000000000000000000000000A0
:103828000000000000000000000000000000000090
:103838000000000000000000000000000000000080
:103848000000000000000000000000000000000070
:103858000000000000000000000000000000000060
:103868000000000000000000000000000000000050
:103878000000000000000000000000000000000040
:103888000000000000000000000000000000000030
:103898000000000000000000000000000000000020
:1038A8000000000000000000000000000000000010
:1038B8000000000000000000000000000000000000
:1038C800A514FFFFFFFFB5960000000000000000F0
:1038D80000000000FFBFFFFFA5140000000000006B
:1038E80000000000A514FFFFFFFFFFBF4208000013
:1038F8000000000000000000FFBFFFFFA51400004B
:103908000000000000000000A514FFFFFFFFFFFFFC
:10391800BDF700000000000000000000FFBFFFFF2F
:10392800A51400000000000000000000A514FFFF1F
:10393800FFFFFFFFFFDF526A0000000000000000E9
:10394800FFBFFFFFA51400000000000000000000FA
:10395800A514FFFFFFBFE6FCFFFFC618000000002C
:1039680000000000FFBFFFFFA514000000000000DA
:1039780000000000A514FFFFFFBF8410FFFFFFDF5A
:10398800528A000000000000FFBFFFFFA5140000DE
:103998000000000000000000A514FFFFFFBF0000AA
:1039A800DEFBFFFFC618000000000000FFBFFFFF9E
:1039B800A51400000000000000000000A514FFFF8F
:1039C800FFBF00008410FFFFFFDF4A49000000002E
:1039D800FFBFFFFFA514000000000000000000006A
:1039E800A514FFFFFFBF00000000E71CFFFFBDB7E5
:1039F80000000000FFBFFFFFA5140000000000004A
:103A080000000000A514FFFFFFBF00000000947233
:103A1800FFFFF7BE29250000FFBFFFFFA514000028
:103A28000000000000000000A514FFFFFFBF000019
:103A380000000000EF5DFFFFA5140000FFBFFFFFBF
:103A4800A51400000000000000000000A514FFFFFE
:103A5800FFBF000000000000A514FFFFEF3D0000BD
:103A6800FFBFFFFFA51400000000000000000000D9
:103A7800A514FFFFFFBF0000000000002104F79E0F
:103A8800FFFF7BCFFFBFFFFFA51400000000000071
:103A980000000000A514FFFFFFBF000000000000A9
:103AA8000000BDB7FFFFCE79FFBFFFFFA5140000E0
:103AB8000000000000000000A514FFFFFFBF000089
:103AC8000000000000004A69FFFFFFDFFFDFFFFF83
:103AD800A51400000000000000000000A514FFFF6E
:103AE800FFBF00000000000000000000D67AFFFFC2
:103AF800FFFFFFFFA5140000000000000000000009
:103B0800A514FFFFFFBF0000000000000000000038
:103B18007BCFFFFFFFFFFFFFA514000000000000A0
:103B280000000000A514FFFFFFBF00000000000018
:103B3800000000000000EF3DFFFFFFFFA51400009C
:103B48000000000000000000A514FFFFFFBF0000F8
:103B580000000000000000000000AD35FFFFFFFF7F
:103B6800A514000000000000000000000000000094
:103B7800000000000000000000000000000000003D
:103B8800000000000000000000000000000000002D
:103B9800000000000000000000000000000000001D
:103BA800000000000000000000000000000000000D
:103BB80000000000000000000000000000000000FD
:103BC80000000000000000000000000000000000ED
:103BD80000000000000000000000000000000000DD
:103BE80000000000000000000000000000000000CD
:103BF80000000000000000000000000000000000BD
:103C080000000000000000000000000000000000AC
:103C1800000000000000000000000000000000009C
:103C2800000000000000000000000000000000008C
:103C3800000000000000000000000000000000007C
:103C4800000000000000000000000000000000006C
:103C5800000000000000000000000000000000005C
:103C680000000000000000000000000000008C318F
:103C7800DEBBF7BEFFFFF7BED6BA843000000000F7
:103C8800000000000000000000000000000000002C
:103C9800C5F8FFFFFFFFFFFFFFFFFFFFFFFFFFFF6D
:103CA800C5F800000000000000000000000000004F
:103CB8000000AD55FFFFFFFFD69A736E31867BAFCC
:103CC800DEDBFFFFFFFFAD55000000000000000035
:103CD800000000004208FFBFFFFFDEBB000000003D
:103CE800000000001062DEFBFFFFFFBF420800007B
:103CF8000000000000000000AD55FFFFFFFF6B6DE6
:103D080000000000000000000000738EFFFFFFFFAE
:103D1800AD3500000000000000000000DEDBFFFF02
:103D2800EF7D00000000000000000000000000001F
:103D3800EF7DFFFFDEDB0000000000000000000058
:103D4800F79EFFFFD67A0000000000000000000088
:103D580000000000CE79FFFFF7BE00000000000061
:103D680000002925FFFFFFFFBDD70000000000006D
:103D78000000000000000000BDB7FFFFFFFF39C7CB
:103D8800000000000000526AFFFFFFFFB576000048
:103D9800000000000000000000000000AD55FFFF1B
:103DA800FFFF5ACB000000000000630CFFFFFFFF7D
:103DB800AD550000000000000000000000000000F9
:103DC800A534FFFFFFFF6B4D000000000000526AA2
:103DD800FFFFFFFFB57600000000000000000000B4
:103DE80000000000AD55FFFFFFFF5ACB00000000A8
:103DF80000002925FFFFFFFFBDD7000000000000DD
:103E08000000000000000000BDB7FFFFFFFF39C73A
:103E18000000000000000000F79EFFFFD67A0000B7
:103E2800000000000000000000000000CE79FFFF45
:103E3800F7BE00000000000000000000DEDBFFFF0E
:103E4800EF7D0000000000000000000000000000FE
:103E5800EF7DFFFFDEDB0000000000000000000037
:103E6800AD55FFFFFFFF6B6D000000000000000074
:103E78000000738EFFFFFFFFAD550000000000003B
:103E8800000000004208FFDFFFFFDEBB000000006B
:103E9800000000001062DEFBFFFFFFDF42080000A9
:103EA80000000000000000000000AD55FFFFFFFF0C
:103EB800D69A6B6D31667BAFDEDBFFFFFFFFAD553A
:103EC80000000000000000000000000000000000EA
:103ED800C618FFFFFFFFFFFFFFFFFFFFFFFFFFFF0A
:103EE800C6180000000000000000000000000000EC
:103EF8000000000000008C51DEDBF7BEFFFFF7BEBC
:103F0800DEBB8C3100000000000000000000000053
:103F18000000000000000000000000000000000099
:103F28000000000000000000000000000000000089
:103F38000000000000000000000000000000000079
:103F48000000000000000000000000000000000069
:103F58000000000000000000000000000000000059
:103F68000000000000000000000000000000000049
:103F78000000000000000000000000000000000039
:103F88000000000000000000000000000000000029
:103F98000000000000000000000000000000000019
:103FA8000000000000000000000000000000000009
:103FB80000000000000000000000000000000000F9
:103FC80000000000000000000000000000000000E9
:103FD80000000000000000000000000000000000D9
:103FE80000000000000000000000000000000000C9
:103FF80000000000000000000000000000000000B9
:1040080000000000000000000000000000000000A8
:104018000000BDF7E71CF79EFFFFFFFFFFFFF79EBD
:10402800DEBB9CD31062000000000000000000000E
:10403800000000000000EF5DFFFFFFFFFFFFFFFF34
:10404800FFFFFFFFFFFFFFFFE6FC4A29000000001B
:1040580000000000000000000000EF5DFFFFDEDB55
:10406800316618A339E77BCFCE59FFFFFFFFDEFB90
:104078000000000000000000000000000000EF5DEC
:10408800FFFFD6BA00000000000000000000C6389C
:10409800FFFFFFFF84300000000000000000000068
:1040A8000000EF5DFFFFD6BA00000000000000002E
:1040B800000052AAFFFFFFFFC5F800000000000043
:1040C800000000000000EF5DFFFFD6BA000000000E
:1040D8000000000000000000FFDFFFFFD69A00008C
:1040E80000000000000000000000EF5DFFFFD6BAEE
:1040F800000000000000000000000000FFBFFFFFFC
:10410800CE79000000000000000000000000EF5D14
:10411800FFFFD6BA00000000000000000000528A2D
:10412800FFFFFFFFBDB70000000000000000000017
:104138000000EF5DFFFFD6BA00000000000000009D
:104148000000C618FFFFFFFF7BAF00000000000063
:10415800000000000000EF5DFFFFD6BA000000007D
:1041680041E88410D67AFFFFFFFFD6BA00000000AE
:1041780000000000000000000000EF5DFFFFFFFFEF
:10418800FFFFFFFFFFFFFFFFFFFFFFFFDEFB39E73A
:104198000000000000000000000000000000EF5DCB
:1041A800FFFFFFFFFFFFFFFFFFFFF79EDEBB9CB394
:1041B8001062000000000000000000000000000085
:1041C8000000EF5DFFFFD6BA00000000000000000D
:1041D80000000000000000000000000000000000D7
:1041E800000000000000EF5DFFFFD6BA00000000ED
:1041F80000000000000000000000000000000000B7
:1042080000000000000000000000EF5DFFFFD6BACC
:104218000000000000000000000000000000000096
:104228000000000000000000000000000000EF5D3A
:10423800FFFFD6BA000000000000000000000000E8
:104248000000000000000000000000000000000066
:104258000000EF5DFFFFD6BA00000000000000007C
:104268000000000000000000000000000000000046
:10427800000000000000EF5DFFFFD6BA000000005C
:104288000000000000000000000000000000000026
:1042980000000000000000000000EF5DFFFFD6BA3C
:1042A8000000000000000000000000000000000006
:1042B80000000000000000000000000000000000F6
:1042C80000000000000000000000000000000000E6
:1042D80000000000000000000000000000000000D6
:1042E80000000000000000000000000000000000C6
:1042F80000000000000000000000000000000000B6
:1043080000000000000000000000000000000000A5
:104318000000000000000000000000000000000095
:104328000000000000000000000000000000000085
:104338000000000000000000000000000000000075
:104348000000000000000000000000000000000065
:104358000000000000000000000000000000000055
:104368000000000000000000000000000000000045
:104378000000000000000000000000000000000035
:104388000000000000000000000000000000000025
:104398000000000000000000000000000000000015
:1043A8000000000000000000000000000000000005
:1043B80000000000000000000000000000008C3138
:1043C800DEBBF7BEFFFFF7BED6BA841000000000C0
:1043D80000000000000000000000000000000000D5
:1043E800BDF7FFFFFFFFFFFFFFFFFFFFFFFFFFFF1F
:1043F800BDD7000000000000000000000000000021
:104408000000AD35FFFFFFFFD69A736E31867BAF94
:10441800DEDBFFFFFFFFAD350000000000000000FD
:10442800000000004208FFBFFFFFDEBB00000000E5
:10443800000000001062DEFBFFFFFFBF4208000023
:104448000000000000000000AD35FFFFFFFF6B6DAE
:1044580000000000000000000000738EFFFFFFFF57
:10446800A53400000000000000000000DEDBFFFFB4
:10447800EF7D0000000000000000000000000000C8
:10448800EF7DFFFFDEDB0000000000000000000001
:10449800F79EFFFFD67A0000000000000000000031
:1044A80000000000CE79FFFFF79E0000000000002A
:1044B80000002925FFFFFFFFBDD700000000000016
:1044C8000000000000000000BDB7FFFFFFFF39C774
:1044D8000000000000004A69FFFFFFFFB5760000FA
:1044E800000000000000000000000000AD55FFFFC4
:1044F800FFFF5ACB000000000000630CFFFFFFFF26
:10450800AD550000000000000000000000000000A1
:10451800A534FFFFFFFF6B4D00000000000052AA0A
:10452800FFFFFFFFB576000000000000000000005C
:1045380000000000AD55FFFFFFFF62EC0000000027
:10454800000039A7FFFFFFFFBDD7000000000000F3
:104558000000000000000000BDB7FFFFFFFF420899
:104568000000000000000000FFBFFFFFD67A000037
:10457800000000000000000000000000CE79FFFFEE
:10458800FFBF00000000000000000000E6FCFFFF85
:10459800EF7D0000000000000000000000000000A7
:1045A800EF7DFFFFE6FC00000000000000000000B7
:1045B800B5B6FFFFFFFF6B6D0000000000000000B4
:1045C8000000738EFFFFFFFFB5960000000000009B
:1045D800000000005AABFFFFFFFFDEBB0000000039
:1045E800000000001062DEFBFFFFFFDF4A690000E9
:1045F80000000000000000000000BDD7FFFFFFFF23
:10460800D69A6B6D31667BAFDEDBFFFFFFFFB5B679
:10461800000000000000000000000000000018A3D7
:10462800D69AFFFFFFFFFFFFFFFFFFFFFFFFFFFF20
:10463800D67A1062000000000000000000000000B0
:10464800000000000000A4F4EF3DFFFFFFFFFFFFA4
:10465800E73CA51400000000000000000000000076
:104668000000000000000000000000000000E6FC60
:10467800FFFFEF5D000000000000000000000000E8
:104688000000000000000000000000000000000022
:104698000000A514FFFFFFFFCE3918E3000000005B
:1046A8000000000000000000000000000000000002
:1046B8000000000000001062CE39FFFFFFFFF77E08
:1046C800BDB77BEF292500000000000000000000B6
:1046D8000000000000000000000000000000B59687
:1046E800FFBFFFFFFFFFFFFF94B2000000000000C4
:1046F80000000000000000000000000000000000B2
:104708000000000039A7AD55DEBBF79E39C7000091
:104718000000000000000000000000000000000091
:104728000000000000000000000000000000000081
:104738000000000000000000000000000000000071
:104748000000000000000000000000000000000061
:104758000000000000000000000000000000000051
:104768007BEFDEFBF77EFFDFFFFFFFFFFFBFE71CEE
:10477800B5B64A4900000000000000000000000033
:1047880000000000A514FFFFFFFFFFFFFFFFFFFF72
:10479800FFFFFFFFFFFFF7BE8410000000000000CE
:1047A8000000000000000000A514FFFFFFFF7BAF22
:1047B80018E329456B2DAD75FFDFFFFFFFBF4A6981
:1047C800000000000000000000000000A514FFFF2A
:1047D800FFFF6B4D00000000000000008C31FFFF60
:1047E800FFFFBDD70000000000000000000000002F
:1047F800A514FFFFFFFF6B4D000000000000000044
:104808000000EF3DFFFFE73C000000000000000053
:1048180000000000A514FFFFFFFF6B4D0000000023
:10482800000000000000D69AFFFFF79E000000007D
:104838000000000000000000A514FFFFFFFF6B4D03
:1048480000000000000000000000D69AFFFFF79E5D
:10485800000000000000000000000000A514FFFF99
:10486800FFFF6B4D00000000000000000000EF3D5E
:10487800FFFFE71C0000000000000000000000002F
:10488800A514FFFFFFFF6B4D0000000000000000B3
:104898008C31FFFFFFFFAD75000000000000000035
:1048A80000000000A514FFFFFFFF6B4D00004A2920
:1048B800736EB596FFDFFFFFEF7D39A7000000009C
:1048C8000000000000000000A514FFFFFFFFFFFF2D
:1048D800FFFFFFFFFFFFFFFFFFFFEF7D630C0000FF
:1048E800000000000000000000000000A514FFFF09
:1048F800FFFFFFFFFFFFFFFFFFFFFFFFEF5D294502
:10490800000000000000000000000000000000009F
:10491800A514FFFFFFFF6B4D00000000AD35FFFF42
:10492800FFFF8C51000000000000000000000000A4
:1049380000000000A514FFFFFFFF6B4D0000000002
:104948000000DEBBFFFFF77E2945000000000000E5
:104958000000000000000000A514FFFFFFFF6B4DE2
:104968000000000000005ACBFFDFFFFFBDD70000AA
:10497800000000000000000000000000A514FFFF78
:10498800FFFF6B4D0000000000000000BDF7FFFFB7
:10499800FFDF5AAB0000000000000000000000002C
:1049A800A514FFFFFFFF6B4D000000000000000092
:1049B8004A29FFDFFFFFCE79000000000000000059
:1049C80000000000A514FFFFFFFF6B4D0000000072
:1049D800000000000000BDF7FFFFFFFF6B4D000067
:1049E8000000000000000000A514FFFFFFFF6B4D52
:1049F800000000000000000000004A49FFDFFFFF40
:104A0800D69A00000000000000000000000000002E
:104A1800000000000000000000000000000000008E
:104A2800000000000000000000000000000000007E
:104A3800000000000000000000000000000000006E
:104A4800000000000000000000000000000000005E
:104A5800000000000000000000000000000000004E
:104A6800000000000000000000000000000000003E
:104A7800000000000000000000000000000000002E
:104A8800000000000000000000000000000000001E
:104A9800000000000000000000000000000000000E
:104AA80000000000000000000000000000000000FE
:104AB80000000000000000000000000000000000EE
:104AC80000000000000000000000000000000000DE
:104AD80000000000000000000000000000000000CE
:104AE80000000000000000000000000000000000BE
:104AF80000000000000000000000000000000000AE
:104B080000000000000000000000000000008C31E0
:104B1800D6BAF79EFFFFFFDFF79EDEDBB5764A4980
:104B2800000000000000000000000000000000007D
:104B3800C5F8FFFFFFFFFFFFFFFFFFFFFFFFFFFFBE
:104B4800FFFFBDD7000000000000000000000000CB
:104B5800000094B2FFFFFFFFE71C8C51420839E7C1
:104B68007BAFB596EF5D5AAB000000000000000077
:104B7800000000000000DEDBFFFFF79E39A7000001
:104B8800000000000000000000000000000000001D
:104B980000000000000000000000F79EFFFFD67A2A
:104BA80000000000000000000000000000000000FD
:104BB8000000000000000000000000000000F79E58
:104BC800FFFFDEDB00000000000000000000000026
:104BD80000000000000000000000000000000000CD
:104BE8000000DEBBFFFFFFFF8C510000000000004B
:104BF80000000000000000000000000000000000AD
:104C08000000000000007BCFFFFFFFFFFFFFBDD7C4
:104C180039C700000000000000000000000000008C
:104C28000000000000000000000000009492FFBF98
:104C3800FFFFFFFFFFBFC5F85AAB000000000000F0
:104C4800000000000000000000000000000000005C
:104C58000000528ACE39FFDFFFFFFFFFFFFFCE596A
:104C68004A490000000000000000000000000000A9
:104C7800000000000000000000004A29B596F79ED9
:104C8800FFFFFFFFF77E5ACB000000000000000086
:104C9800000000000000000000000000000000000C
:104CA800000039A7CE39FFFFFFFFE6FC0000000037
:104CB80000000000000000000000000000000000EC
:104CC80000000000000000000000D69AFFFFFFFF70
:104CD8006B2D000000000000000000000000000034
:104CE80000000000000000000000000000007BCF72
:104CF800FFFFFFFF94B2000000000000000000006A
:104D0800000000000000000000000000000000009B
:104D180000007BCFFFFFFFFF9CB3000000000000F6
:104D2800000000000000000000000000000000007B
:104D3800000000000000C5F8FFFFFFFF6B4D0000FA
:104D480000000000000000000000E6FCCE5994B20C
:104D58005ACB316642087BAFC638FFFFFFFFE6FC3F
:104D680000000000000000000000000073AEFFFF1C
:104D7800FFFFFFFFFFFFFFFFFFFFFFFFFFFFFFFF3B
:104D8800EF5D5ACB000000000000000000000000AA
:104D980000007BEFC618E71CF7BEFFFFFFFFF7BE5A
:104DA800DEFBAD55292500000000000000000000D2
:104DB80000000000000000000000000000000000EB
:104DC80000000000000000000000000000000000DB
:104DD80000000000000000000000000000000000CB
:104DE80000000000000000000000000000000000BB
:104DF80000000000000000000000000000000000AB
:104E0800000000000000000000000000000000009A
:104E1800000000000000000000000000000000008A
:104E2800000000000000000000000000000000007A
:104E3800000000000000000000000000000000006A
:104E4800000000000000000000000000000000005A
:104E5800000000000000000000000000000000004A
:104E6800000000000000000000000000000000003A
:104E7800000000000000000000000000000000002A
:104E8800000000000000000000000000000000001A
:104E9800000000000000000000000000000000000A
:104EA80000000000000000000000000000000000FA
:104EB800EF7DFFFFFFFFFFFFFFFFFFFFFFFFFFFF8C
:104EC800FFFFFFFFFFFFFFFFEF7D00000000000076
:104ED80000000000EF7DFFFFFFFFFFFFFFFFFFFF68
:104EE800FFFFFFFFFFFFFFFFFFFFFFFFEF7D00005A
:104EF80000000000000000000000000000000000AA
:104F08000000E71CFFFFE71C000000000000000095
:104F18000000000000000000000000000000000089
:104F2800000000000000E71CFFFFE71C0000000075
:104F38000000000000000000000000000000000069
:104F480000000000000000000000E71CFFFFE71C55
:104F58000000000000000000000000000000000049
:104F68000000000000000000000000000000E71C36
:104F7800FFFFE71C00000000000000000000000028
:104F88000000000000000000000000000000000019
:104F98000000E71CFFFFE71C000000000000000005
:104FA80000000000000000000000000000000000F9
:104FB800000000000000E71CFFFFE71C00000000E5
:104FC80000000000000000000000000000000000D9
:104FD80000000000000000000000E71CFFFFE71CC5
:104FE80000000000000000000000000000000000B9
:104FF8000000000000000000000000000000E71CA6
:10500800FFFFE71C00000000000000000000000097
:105018000000000000000000000000000000000088
:105028000000E71CFFFFE71C000000000000000074
:105038000000000000000000000000000000000068
:10504800000000000000E71CFFFFE71C0000000054
:105058000000000000000000000000000000000048
:1050680000000000000000000000E71CFFFFE71C34
:105078000000000000000000000000000000000028
:105088000000000000000000000000000000E71C15
:10509800FFFFE71C00000000000000000000000007
:1050A80000000000000000000000000000000000F8
:1050B8000000E71CFFFFE71C0000000000000000E4
:1050C80000000000000000000000000000000000D8
:1050D800000000000000E71CFFFFE71C00000000C4
:1050E80000000000000000000000000000000000B8
:1050F80000000000000000000000E71CFFFFE71CA4
:105108000000000000000000000000000000000097
:105118000000000000000000000000000000E71C84
:10512800FFFFE71C00000000000000000000000076
:105138000000000000000000000000000000000067
:105148000000E71CFFFFE71C000000000000000053
:105158000000000000000000000000000000000047
:105168000000000000000000000000000000000037
:105178000000000000000000000000000000000027
:105188000000000000000000000000000000000017
:105198000000000000000000000000000000000007
:1051A80000000000000000000000000000000000F7
:1051B80000000000000000000000000000000000E7
:1051C80000000000000000000000000000000000D7
:1051D80000000000000000000000000000000000C7
:1051E80000000000000000000000000000000000B7
:1051F80000000000000000000000000000000000A7
:105208000000000000000000000000000000000096
:105218000000000000000000000000000000000086
:105228000000000000000000000000000000000076
:105238000000000000000000000000000000000066
:105248000000000000000000000000000000000056
:105258000000000000000000CE39FFFFFFBF000083
:10526800000000000000000000000000FFBFFFFF7A
:10527800CE3900000000000000000000CE39FFFF1A
:10528800FFBF000000000000000000000000000058
:10529800FFBFFFFFCE390000000000000000000043
:1052A800CE39FFFFFFBF0000000000000000000033
:1052B80000000000FFBFFFFFCE3900000000000023
:1052C80000000000CE39FFFFFFBF00000000000013
:1052D8000000000000000000FFBFFFFFCE39000003
:1052E8000000000000000000CE39FFFFFFBF0000F3
:1052F800000000000000000000000000FFBFFFFFEA
:10530800CE3900000000000000000000CE39FFFF89
:10531800FFBF0000000000000000000000000000C7
:10532800FFBFFFFFCE3900000000000000000000B2
:10533800CE39FFFFFFBF00000000000000000000A2
:1053480000000000FFBFFFFFCE3900000000000092
:1053580000000000CE39FFFFFFBF00000000000082
:105368000000000000000000FFBFFFFFCE39000072
:105378000000000000000000CE39FFFFFFBF000062
:10538800000000000000000000000000FFBFFFFF59
:10539800CE3900000000000000000000CE39FFFFF9
:1053A800FFBF000000000000000000000000000037
:1053B800FFBFFFFFCE390000000000000000000022
:1053C800CE39FFFFFFBF0000000000000000000012
:1053D80000000000FFBFFFFFCE3900000000000002
:1053E80000000000CE39FFFFFFBF000000000000F2
:1053F8000000000000000000FFBFFFFFCE390000E2
:105408000000000000000000C638FFFFFFDF0000BA
:10541800000000000000000000000000FFDFFFFFA8
:10542800C63800000000000000000000BDD7FFFFE4
:10543800FFFF2925000000000000000000002945AA
:10544800FFFFFFFFBDD700000000000000000000C4
:105458009CF3FFFFFFFF83F0000000000000000046
:1054680000008410FFFFFFFF9CF300000000000015
:1054780000000000528AFFFFFFFFD67A00000000FC
:10548800000000000000D69AFFFFFFFF528A0000CC
:1054980000000000000000000000D67AFFFFFFFFB8
:1054A800C618736E39A7736EC618FFFFFFFFD67A4A
:1054B800000000000000000000000000000042089A
:1054C800E73CFFFFFFFFFFFFFFFFFFFFFFFFFFFFBF
:1054D800E73C420800000000000000000000000057
:1054E800000000002104AD55E71CFFBFFFFFFFBF10
:1054F800E71CAD552104000000000000000000007A
:105508000000000000000000000000000000000093
:105518000000000000000000000000000000000083
:105528000000000000000000000000000000000073
:105538000000000000000000000000000000000063
:105548000000000000000000000000000000000053
:105558000000000000000000000000000000000043
:105568000000000000000000000000000000000033
:105578000000000000000000000000000000000023
:105588000000000000000000000000000000000013
:105598000000000000000000000000000000000003
:1055A80000000000000000000000000000000000F3
:1055B80000000000000000000000000000000000E3
:1055C80000000000000000000000000000000000D3
:1055D80000000000000000000000000000000000C3
:1055E80000000000000000000000000000000000B3
:1055F8000000000000000000000000000000BDF7EF
:10560800FFFFFFFF738E0000000000000000000095
:10561800000000004208FFFFFFFFC618000000005E
:1056280000008C71FFFFFFFFAD3500000000000097
:1056380000000000000000008C71FFFFFFFF9CD3FA
:1056480000000000000039C7FFFFFFFFCE7900000F
:10565800000000000000000000000000BDF7FFFF90
:10566800FFFF4A690000000000000000E73CFFFF60
:10567800EF7D0000000000000000000000000000B6
:10568800E71CFFFFEF5D00000000000000000000C5
:10569800BDF7FFFFFFFF5AAB00000000000000004D
:1056A80000003186FFFFFFFFC61800000000000061
:1056B800000000008410FFFFFFFFA5140000000099
:1056C8000000000000009472FFFFFFFF94720000CA
:1056D800000000000000000018A3FFDFFFFFD69ABB
:1056E80000000000000000000000C618FFFFFFFFD8
:1056F8003166000000000000000000000000D6BA7B
:10570800FFFFF79E00000000000000000000EF5DB2
:10571800FFFFDEDB000000000000000000000000CA
:105728000000A514FFFFFFFF738E000000000000BB
:105738005AABFFFFFFFFAD7500000000000000003E
:105748000000000000004A69FFFFFFFFB5B6000037
:1057580000000000AD55FFFFFFFF62EC00000000F5
:10576800000000000000000000000000E73CFFFF10
:10577800E71C000000000000DEDBFFFFEF5D00001B
:105788000000000000000000000000000000000011
:10579800B5B6FFFFFFFF4A4900003166FFDFFFFF94
:1057A800BDF700000000000000000000000000003D
:1057B800000000006B6DFFFFFFFFA514000094922E
:1057C800FFFFFFFF7BAF00000000000000000000AB
:1057D80000000000000000000000EF7DFFFFDEBBBE
:1057E8000000CE79FFFFF79E0000000000000000D7
:1057F8000000000000000000000000000000C5F8E4
:10580800FFFFFFDF41E8FFBFFFFFC61800000000F1
:105818000000000000000000000000000000000080
:1058280000007BCFFFFFFFFFCE59FFFFFFFF7BCFBD
:105838000000000000000000000000000000000060
:105848000000000000000000F79EFFFFFFFFFFFFC1
:10585800F77E0000000000000000000000000000CB
:10586800000000000000000000000000C638FFFF34
:10587800FFFFFFFFC5F80000000000000000000067
:105888000000000000000000000000000000000010
:105898008410FFFFFFFFFFFF738E00000000000071
:1058A80000000000000000000000000000000000F0
:1058B80000000000000000000000000000000000E0
:1058C80000000000000000000000000000000000D0
:1058D80000000000000000000000000000000000C0
:1058E80000000000000000000000000000000000B0
:1058F80000000000000000000000000000000000A0
:10590800000000000000000000000000000000008F
:10591800000000000000000000000000000000007F
:10592800000000000000000000000000000000006F
:10593800000000000000000000000000000000005F
:10594800000000000000000000000000000000004F
:10595800000000000000000000000000000000003F
:10596800000000000000000000000000000000002F
:10597800000000000000000000000000000000001F
:10598800000000000000000000000000000000000F
:1059980000000000000000000000000000000000FF
:1059A8000000000000003166FFFFFFFFA534000083
:1059B800000000000000000000000000A534FFFF08
:1059C800FFFF29250000000000000000FFFFFFFF87
:1059D800AD550000000000000000000000000000BD
:1059E800AD55FFFFFFFF00000000000000000000B1
:1059F800FFDFFFFFAD7500000000000000000000A1
:105A080000000000AD75FFFFFFDF00000000000090
:105A180000000000FFBFFFFFB59600000000000077
:105A28000000000000000000B596FFFFF79E000090
:105A38000000000000000000F79EFFFFB5B6000060
:105A4800000000000000000000000000B5B6FFFFE5
:105A5800F77E00000000000000000000EF5DFFFF7F
:105A6800BDB70000000000000000000000000000BA
:105A7800BDD7FFFFEF3D0000000000000000000060
:105A8800E73CFFFFBDD70000000000000000000059
:105A980000000000BDF7FFFFE6FC0000000000006A
:105AA80000000000DEFBFFFFC5F800000000E73C37
:105AB800FFFFDEDB00000000C5F8FFFFDEBB0000D3
:105AC8000000000000000000D69AFFFFC618000082
:105AD800526AFFFFFFFFFFFF39E70000C618FFFF0C
