:1000000000000120450000004900000049000000F8
:1000100049000000490000004900000049000000BC
:1000200049000000490000004900000049000000AC
:10003000490000004900000049000000490000009C
:040040004900000073
:1000440000F002B8FEE700BF2DE9F04786B0734C1C
:10005400714D7349734A744B2046009500F06EF954
:100064009F20AB21049000200390204600F028FA42
:100074006E4800F09FF9A0686D4F0422386004A90F
:10008400204600F045FA03A92046042200F050FA65
:10009400694868490122425001680029FCD0A168DE
:1000A400664A1160002101609DF80D000B2840F0A4
:1000B4008A809DF80E00402840F086806048914672
:1000C400604A634C584B016811605F4A01681160D3
:1000D4005E49544A0068086051492046009500F082
:1000E4002DF95C485C4EB0475C4D286838605C482C
:1000F400B0472868C9F8000047F66C30B047594D3E
:10010400B846012128683860574F2046B8475748F9
:10011400B0472868112100F029FA55488246B047B3
:1001240028683A2100F022FA2868552100F027FABD
:100134005046B0472868362100F018FA2868002194
:10014400002600F01CFA0020F02100F049F9F0200C
:1001540000F070F92868132100F008FA28682121BA
:1001640000F004FA00F08CF92868292100F0FEF967
:100174002868332100F0FAF92868002100F0FFF91B
:1001840020460021B84720460121B8472046402197
:10019400B84720460021B84720460021B8477820B8
:1001A400952100F083F9334F4FF4E16005900497F3
:1001B400B6F5E16F09D000F0DDF92046294600F0DC
:1001C4007FF90136F4E7FEE7FEE79620B32100F05D
:1001D4006DF91F4C0026B6F5E16F07D000F0CAF99F
:1001E4002046294600F06CF90136F4E7224D04AAB2
:1001F4003C205921A8474FF4E1601D21CDE901704D
:1002040001AC00202246A8471E203B212246A847D5
:1002140006B0BDE8F08700BFC01300009C130000C7
:10022400C0130000B4130000BC130000F00EF10072
:100234000C050050F8FEFFFF18310040080500507F
:10024400B4130000680700504807005038070050F6
:10025400A81300008C0D0C00B9030000C4130000A7
:10026400AA9D0300B8130000C5040000A4282400BC
:100274001C6902008C050000810200002DE9F04198
:10028400904600F013F9D8F804700A4D0024A742F0
:1002940008BFBDE8F081D8F8000030F814602846A3
:1002A400310A00F00DF92846314600F009F901340D
:1002B400EDE700BFA813000019481E4B19491C4A5A
:1002C40000240325012600689C461B4B0860164841
:1002D40016499E4613686746CCF80030C1F8404181
:1002E400C1F80855C1F81045C1F84005CE600E604C
:1002F400D1F84031002BFBD013687746CEF800309C
:10030400C1F84041C1F80855C1F81045C1F840058D
:10031400CE600E60D1F84031002BFBD0DAE700BF8D
:10032400B4130000440700500024F400008000408F
:10033400C8130000080500500C050050B0B51A4D54
:1003440044682D682560194D84682C60184D8468B4
:100354002C6004680968C4F8081501681268C1F8BB
:100364000C2501681A68C1F810254FF00042016895
:10037400C1F82425049A01681268C1F844250022B2
:100384000168C1F804210168C1F810210168C1F8AD
:1003940018210168C1F820210168C1F84C21072106
:1003A4000068C0F80015B0BDB41300000805005083
:1003B4000C050050094900220323C1F84021C1F86B
:1003C4000835C1F81025C1F840050120C86008604F
:1003D400D1F840010028FBD0704700BF00800040E6
:1003E400FEB5104F0C4605460F49104E386808609C
:1003F40030462A2100F064F838680D49086000206E
:100404008DF80B408DF8095069468DF80A008DF877
:1004140008000420019002A80090304600F097F8EC
:10042400FEBD00BFB81300000C050050A813000067
:10043400080500507FB50E4E04460E490E4D306837
:10044400086028462B2100F03BF830680B4908600F
:1004540000208DF80F408DF80E00ADF80C0004203C
:10046400029003A8019001A9284600F070F87FBD0E
:10047400B81300000C050050A81300000805005034
:1004840010B5064C06492068086006482C2100F087
:1004940017F820680449086010BD00BFB8130000B5
:1004A4000C050050A81300000805005080B5FFF7A4
:1004B40097FF3B20FFF7BEFFBDE88040E0E700BFA9
:1004C4007CB505460446104A012655F8080F10600D
:1004D4008DF807100DF107012046012200F018F8ED
:1004E40020460021002200F023F8206806612068DD
:1004F400D0F818110029FBD02868044908600021AD
:100504002068C0F818117CBD0C0500500805005087
:1005140010B503680024D2B2C3F850450368C3F889
:1005240048250268C2F844150068C0F8184110BD97
:100534000368C3F83415D1B20268C2F83815002232
:100544000168C1F840250068C0F818217047F8B563
:100554004E680C4605460027BE4208BFF8BD206819
:10056400C15D2846FFF7ACFF0137F5E7C8F8000086
:100574002046384737F816502046290AA0E7C9F81C
:10058400000020463847D4D400F800F800F800F8FA
:1005940000F800F800F800F800F800F800F800F897
:1005A40000F800F800F800F800F800F800F800F887
:1005B40000F800F800F800F800F800F800F800F877
:1005C40000F800F800F800F800F800F800F800F867
:1007C40000F800F8008800000000000000000000AD
:1007D400007800F800F800F800F800F800F800F8D5
:1007E40000F800F800F800F800F800F800F800F845
:1007F40000F800F800F800F800F800F800F800C865
:10080400000000000000000000000000007800F874
:1008140000F800F800F800F800F800F800F800F814
:1008240000F800F800F800F800F800F800F800F804
:1008340000F800F800F800F800F0003800000000AC
:100844000000000000000000007800F800F800F844
:1008540000F800F800F800F800F800F800F800F8D4
:1008640000F800F800F800F800F800F800F800F8C4
:1008740000F800F800800000000000000000000004
:1008840000000000007800F800F800F800F800F814
:1008940000F800F800F800F800F800F800F800F894
:1008A40000F800F800F800F800F800F800F800C8B4
:1008B40000000000000000880000000000000000AC
:1008C400007800F800F800F800F800F800F800F8E4
:1008D40000F800F800F800F800F800F800F800F854
:1008E40000F800F800F800F800F000300000000004
:1008F400005000E80000000000000000007800F84C
:1009040000F800F800F800F800F800F800F800F823
:1009140000F800F800F800F800F800F800F800F813
:1009240000F800F8008000000000000000D800F883
:100934000000000000000000007800F800F800F853
:1009440000F800F800F800F800F800F800F800F8E3
:1009540000F800F800F800F800F800F800F800C00B
:10096400000000000000009800F800F800000000FB
:1009740000000000007800F800F800F800F800F823
:1009840000F800F800F800F800F800F800F800F8A3
:1009940000F800F800F800F800F00028000000005B
:1009A400004800F800F800F8000000000000000013
:1009B400007800F800F800F800F800F800F800F8F3
:1009C40000F800F800F800F800F800F800F800F863
:1009D40000F800F8007800000000000000D000F8E3
:1009E40000F800F80000000000000000007800F8A3
:1009F40000F800F800F800F800F800F800F800F833
:100A040000F800F800F800F800F800F800F800B862
:100A1400000000000000009800F800F800F800F85A
:100A24000000000000000000007800F800F800F862
:100A340000F800F800F800F800F800F800F800F8F2
:100A440000F800F800F800F800E8002800000000B2
:100A5400004800F800F800F800F800F80000000072
:100A640000000000007800F800F800F800F800F832
:100A740000F800F800F800F800F800F800F800F8B2
:100A840000F800F8007000000000000000D000F83A
:100A940000F800F800F800F8000000000000000072
:100AA400007800F800F800F800F800F800F800F802
:100AB40000F800F800F800F800F800F800F800B0BA
:100AC400000000000000009000F800F800F800F8B2
:100AD40000F800F80000000000000000007800F8B2
:100AE40000F800F800F800F800F800F800F800F842
:100AF40000F800F800F800F800E800180000000012
:100B0400004000F800F800F800F800F800F800F8D9
:100B14000000000000000000007800F800F800F871
:100B240000F800F800F800F800F800F800F800F801
:100B340000F800F8006800000000000000D000F891
:100B440000F800F800F800F800F800F800000000D1
:100B540000000000007800F800F800F800F800F841
:100B640000F800F800F800F800F800F800F800B009
:100B7400000000000000008800F800F800F800F809
:100B840000F800F800F800F8000000000000000081
:100B9400007800F800F800F800F800F800F800F811
:100BA40000F800F800F800F800E000100000000071
:100BB400004000F800F800F800F800F800F800F829
:100BC40000F800F80000000000000000007800F8C1
:100BD40000F800F800F800F800F800F800F800F851
:100BE40000F800F8006000000000000000C800F8F1
:100BF40000F800F800F800F800F800F800F800F831
:100C04000000000000000000007800F800F800F880
:100C140000F800F800F800F800F800F800F800A860
:100C2400000000000000008800F800F800F800F858
:100C340000F800F800F800F800F800F800000000E0
:100C440000000000007800F800F800F800F800F850
:100C540000F800F800F800F800E0000000000000D0
:100C6400003800F000F800F800F800F800F800F888
:100C740000F800F800F800F8000000000000000090
:100C8400007800F800F800F800F800F800F800F820
:100C940000F800F8005800000000000000C800F848
:100CA40000F800F800F800F800F800F800F800F880
:100CB40000F800F80000000000000000007800F8D0
:100CC40000F800F800F800F800F800F800F800B8A0
:100CD400000000000000008000F800F800F800F8B0
:100CE40000F800F800F800F800F800F800F800F840
:100CF4000000000000000000007800F800F800F890
:100D040000F800F800F800F800F800B00000000057
:100D140000000000000000000000000000000000CF
:100D240000000000000000000000000000000000BF
:100D340000000000000000000000000000000000AF
:100D440000F800F800F800B0000000000000000007
:100D5400000000000000000000000000000000008F
:100D6400000000000000000000000000000000007F
:100D740000000000000000000000000000F800F87F
:100D840000F800B0000000000000000000000000B7
:100D9400000000000000000000000000000000004F
:100DA400000000000000000000000000000000003F
:100DB400000000000000000000F800F800F800B097
:100DC400000000000000000000000000000000001F
:100DD400000000000000000000000000000000000F
:100DE40000000000000000000000000000000000FF
:100DF4000000000000F800F800F800F800F800F81F
:100E040000F800F800F800F800F800F800F800F81E
:100E140000F800F800F800F800F800F800000000FE
:100E240000000000007800F800F800F800F800F86E
:100E340000F800F800F800F800F800F800F800F8EE
:100E440000F800F800F800F800F800F800F800F8DE
:100E540000F800F800F800F80000000000000000AE
:100E6400007800F800F800F800F800F800F800F83E
:100E740000F800F800F800F800F800F800F800F8AE
:100E840000F800F800F800F800F800F800F800F89E
:100E940000F800F80000000000000000007800F8EE
:100EA40000F800F800F800F800F800F800F800F87E
:100EB40000F800F800F800F800F800F800F800F86E
:100EC40000F800F800F800F800F800F800F800F85E
:100ED4000000000000000000007800F800F800F8AE
:100EE40000F800F800F800F800F800F800F800F83E
:100EF40000F800F800F800F800F800F800F800F82E
:100F040000F800F800F800F800F800F8000000000D
:100F140000000000007800F800F800F800F800F87D
:100F240000F800F800F800F800F800F800F800F8FD
:100F340000F800F800F800F800F800F800F800F8ED
:100F440000F800F800F800F80000000000000000BD
:100F5400007800F800F800F800F800F800F800F84D
:100F640000F800F800F800F800F800F800F800F8BD
:100F740000F800F800F800F800F800F800F800F8AD
:100F840000F800F80000000000000000007800F8FD
:100F940000F800F800F800F800F800F800F800F88D
:100FA40000F800F800F800F800F800F800F800F87D
:100FB40000F800F800F800F800F800F800F800F86D
:100FC4000000000000000000007800F800F800F8BD
:100FD40000F800F800F800F800F800F800F800F84D
:100FE40000F800F800F800F800F800F800F800F83D
:100FF40000F800F800F800F800F800F8000000001D
:1010040000000000007800F800F800F800F800F88C
:1010140000F800F800F800F800F800F800F800F80C
:1010240000F800F800F800F800F800F800F800F8FC
:1010340000F800F800F800F800F800F800F800F8EC
:1010440000F800F800F800F800F800F800F800F8DC
:1013940000F800F800F800F800300040140700508E
:1013A40020000000003000406407005000000002EC
:1013B400030000000000040004000000020000001C
:0813C40000000004000002001B
:1013CC0078ECFF7F0100000074ECFF7F010000004F
:1013DC0070ECFF7F010000009CEEFF7F010000001D
:1013EC00D0EEFF7F010000004CEFFF7F01000000FA
:1013FC00BCEFFF7F01000000E0EFFF7F0100000069
:10140C002CF0FF7F0100000070F0FF7F0100000056
:10141C0094F0FF7F01000000A0F0FF7F01000000AE
:10142C00E8F0FF7F0100000000F1FF7F01000000E9
:10143C0016F1FF7F010000002CF1FF7F010000007E
:10144C002CF1FF7F010000002EF1FF7F0100000056
:08145C002EF1FF7F01000000EA
:00000001FF
