:1000000000000120490000004D0000004D000000EC
:100010004D0000004D0000004D0000004D000000AC
:100020004D0000004D0000004D0000004D0000009C
:100030004D0000004D0000004D0000004D0000008C
:040040004D0000006F
:1000480000F002B8FEE700BF2DE9F04F95B08E49E9
:1000580000208F4B924CDFF87CA2C1F80600888004
:1000680008608A490A681A608A4B0A681A608A4BCB
:100078000A681A60894A954B09681160894AA1681B
:1000880091461160884AA168904611608749884A5C
:10009800096811608749884A096811608749884A50
:1000A8000968116087494FF00042C1F82024864A48
:1000B80012681A600860C8604861C86188640720CF
:1000C800C1F8FC038248D047834D2868C8F800006F
:1000D8008248D0472868C9F8000047F66C30D047F6
:1000E8007F4F804E0121386800F0F4FB7E48D047EE
:1000F8003868112100F0EEFB7C4D2846D04738685F
:100108003A2100F0E7FB38685521C9F8000020467D
:10011800B0472846D0473868362100F0DBFB00F0AE
:10012800F8FB0020F02100F03BFB0020F02100F05C
:1001380055FB3868132100F0CDFB3868212100F009
:10014800C9FB00F069FB3868292100F0C3FB386857
:10015800332100F0BFFB00F0DCFB20460021B04754
:1001680020460121B04720464021B04720460021C3
:10017800B04720460021B0475D480021F0224FF4E7
:10018800A0730090002000F0F7FA5A4C5A4F20460E
:10019800B8472046B8472046B847584D2846B8477C
:1001A8002046B8472046B8472846B8475448D0475D
:1001B8005448B847DFF8D0A06420DFF84C919AF88B
:1001C8000040B4FBF0F0C8474FF0010B0DF15306A7
:1001D8008DF85300CDF84CB0129612A8B847E0B28B
:1001E8004FF00A0800F07AFB8DF85300CDE9106B48
:1001F80010A8B84700F088FB01258DF85300CDE919
:100208000E650EA8B8474148B84700F088FB8DF83E
:1002180053000D950C960CA84FF0010BB847E0B2AF
:1002280000F05CFB8DF85300CDE90A6B0AA8B847CB
:1002380000F06AFB01258DF85300CDE9086508A890
:10024800B8473248B84700F06AFB8DF85300079565
:10025800069606A84FF0010AB847E0B200F03EFB48
:100268008DF85300CDE9046A04A8B84700F04CFBA8
:100278008DF85300CDE9026A02A8B8472448B84768
:1002880015B0BDE8F08F00BF000000203C4F030010
:1002980068070050480700503807005064070050AE
:1002A800304F0300080500500C050050484F03006C
:1002B800083500403C4F03000C350040444F030014
:1002C8001035004004310040484F030044350040D9
:1002D8008C0D0C00850500004C4F0300AA9D0300FF
:1002E800404F03006D080000A42824001C69020088
:1002F8001CF00200F4970000A1030000FC97000026
:10030800F00EF10004980000B10500000C98000000
:100318001498000019481E4B19491C4A002403254B
:10032800012600689C461B4B0860164816499E46E5
:1003380013686746CCF80030C1F84041C1F8085549
:10034800C1F81045C1F84005CE600E60D1F84031C3
:10035800002BFBD013687746CEF80030C1F8404137
:10036800C1F80855C1F81045C1F84005CE600E60C7
:10037800D1F84031002BFBD0DAE700BF3C4F030037
:10038800440700500024F40000800040504F030050
:10039800080500500C0500502DE9F04F8BB044685B
:1003A800DFF8B881704D82464FF0000902904C4545
:1003B80000F0D080DAF8000098F8032098F80230AE
:1003C80010F8091098F80100561C88F80360F6B276
:1003D800013088F801009E4204BF023288F80220EA
:1003E80098F80420012A05D0C0B27E2824BF012035
:1003F80088F80400B8F80670B7F5937F2CD309A8DD
:1004080000F0F2F809984FF4A0730790C7F5A070B0
:1004180000EBC000860098F805001FFA86FBCDF8AF
:1004280020B007A9009100F11101CAB2394600F0C5
:10043800A3F9DDE90901A7F2271310FA86F0A1EB69
:100448000B01059098F80500069105A9009100F1A7
:100458001101CAB200210FE00DF10C0B98F80560EC
:10046800584600F0C1F806F1110007F119033946A2
:10047800CDF800B0C2B2304600F07EF9384800F03E
:100488007DF898F800000D2808D2013088F800009F
:1004980098F80500113088F8050058E0002098F811
:1004A800041088F8050088F80000B8F8060001294B
:1004B80000F11906A8F8066049D1B0F5937F84BF0A
:1004C800A0F22716A8F806601921B8F80800B0F5B8
:1004D800937F88BF6FF4937101EB000AA6F21310A3
:1004E80080B2A8F808A0132812D8DFF878B006F16F
:1004F80019010020F0224FF4A073CDF800B000F0ED
:100508003BF9CDF800B0A6F5A0730020002106E065
:10051800144806F1190106F1320300900020F02278
:1005280000F02AF928681149114E124F0860304628
:100538003721B8472868104908601FFA8AF0010A6D
:100548003046B84730465146B847DDF808A009F1AB
:1005580001092CE70BB0BDE8F08F00BF00000020B8
:10056800181B1800284F0300404F03000C050050CB
:10057800304F03006D0800000805005009490022AB
:100588000323C1F84021C1F80835C1F81025C1F886
:1005980040050120C8600860D1F840010028FBD060
:1005A800704700BF00800040C0B2092884BF002007
:1005B8007047DFE800F00507090B0D0F1113151739
:1005C8003020704731207047322070473320704701
:1005D80034207047352070473620704737207047E1
:1005E80038207047392070476FF0240252FA81F2A0
:1005F8003949352A00F26A80DFE802F01B68681D75
:100608001F68686868686821232527292B2D2F31E2
:10061800333568686868686837393B3D3F4143450A
:1006280047494B4D4F51535557595B5D5F61636562
:1006380068672A494AE02B4948E0294946E0344995
:1006480044E0324942E0304940E02E493EE02C493E
:100658003CE02A493AE0284938E0264936E024496E
:1006680034E0224932E0204930E042492EE0404956
:100678002CE03E492AE03C4928E03A4926E038493E
:1006880024E0364922E0344920E032491EE030496E
:100698001CE02E491AE02C4918E02A4916E028499E
:1006A80014E0264912E0244910E022490EE02049CE
:1006B8000CE01E490AE01C4908E01A4906E01849FE
:1006C80004E0164902E0144900E01249D1E9001299
:1006D800C0E90012704700BF28F0020060F1020074
:1006E80058F1020050F1020048F1020040F1020006
:1006F80038F1020030F1020028F1020020F1020076
:1007080018F1020010F1020008F1020000F10200E5
:10071800F8F00200F0F00200E8F00200E0F0020059
:10072800D8F00200D0F00200C8F00200C0F00200C9
:10073800B8F00200B0F00200A8F00200A0F0020039
:1007480098F0020090F0020088F0020080F00200A9
:1007580078F0020070F0020068F0020060F0020019
:1007680058F0020050F0020048F0020040F0020089
:1007780038F0020030F00200B0B50D4611461C46B4
:1007880000F00EF82846214600F028F800F044F85A
:1007980002480499BDE8B04054E000BF304F030060
:1007A800FEB50A4F0C46054609490A4E38680860E6
:1007B80030462A2100F056F83868074908600420B6
:1007C8006946019002A800F092F8FEBD404F030070
:1007D8000C050050304F030008050050FEB50A4FC5
:1007E8000C46054609490A4E3868086030462B21F0
:1007F80000F038F838680749086004206946019015
:1008080002A800F074F8FEBD404F03000C0500502C
:10081800304F03000805005010B5064C0649206803
:10082800086006482C2100F01DF82068044908607B
:1008380010BD00BF404F03000C050050304F0300AF
:1008480008050050F8B54E680C4605460027BE421C
:1008580008BFF8BD2068C15D284600F003F80137DD
:10086800F5E700BF78B50246184C01250DF10306DF
:1008780052F8083F236000240368C3F85045036812
:10088800C3F848550368C3F844650368C3F81841BA
:100898000368C3F834450368C3F838450368C3F8E8
:1008A80040450368C3F8184103681D618DF80310BB
:1008B8000168D1F81831002BFBD01168044A116087
:1008C80000210068C0F8181178BD00BF0C05005061
:1008D80008050050C8F8000020463047B0FBF8F57E
:1008E800B5FBF8F000EB8000A5EB400048478DF819
:1008F8000B408DF809500090200A8DF80A00280A4C
:100908008DF8080030469DE705EB8500A4EB400014
:10091800484738680021C9F80000204630479AF84F
:1009280001406420B4FBF0F04847D4D4D4D4D4D4E4
:1009380000000000000000000000000000000000AF
:10094800000000000000000000000000000000009F
:10095800000000000000000000000000000000008F
:10096800000000000000000000000000000000007F
:10097800000000000000000000000000000000006F
:10098800000000000000000000000000000000005F
:10099800000000000000000000000000000000004F
:1009A80000000000000000006B6DFFFFFFFFFFFF6D
:1009B8008C71000000000000000000000000000032
:1009C800000000000000000000000000C5F8FFFF64
:1009D800FFFFFFFFD67A00000000000000000000C3
:1009E80000000000000000000000000000000000FF
:1009F800F79EFFFFE73CFFFFFFDF294500000000EF
:100A080000000000000000000000000000000000DE
:100A180000008430FFFFFFFF6B4DFFFFFFFF9CB31B
:100A280000000000000000000000000000000000BE
:100A3800000000000000CE59FFFFE71C0000E6FCA4
:100A4800FFFFD6BA00000000000000000000000010
:100A580000000000000000001062F7BEFFFFB5763E
:100A68000000AD55FFFFFFDF292500000000000052
:100A78000000000000000000000000008410FFFFDC
:100A8800FFFF630C00005AABFFFFFFFF8C710000F3
:100A9800000000000000000000000000000000004E
:100AA800C618FFFFEF5D000000000000EF5DFFFFCC
:100AB800CE39000000000000000000000000000027
:100AC80000000000F77EFFFFBDF7000000000000F7
:100AD800C618FFFFF79E000000000000000000009D
:100AE8000000000000006B6DFFFFFFFF7BCF0000E0
:100AF800000000008C51FFFFFFFF738E0000000014
:100B080000000000000000000000B596FFFFF79EFF
:100B180000000000000000002945FFDFFFFFB5B618
:100B28000000000000000000000000000000E6FCDB
:100B3800FFFFCE5900000000000000000000DEDBCF
:100B4800FFFFE6FC000000000000000000000000BD
:100B580039A7FFFFFFFFFFFFFFFFFFFFFFFFFFFFBB
:100B6800FFFFFFFFFFFFFFFF39A7000000000000A5
:100B7800000000009492FFFFFFFFFFFFFFFFFFFF51
:100B8800FFFFFFFFFFFFFFFFFFFFFFFF9492000043
:100B98000000000000000000CE39FFFFE73C000025
:100BA800000000000000000000000000F79EFFFFAA
:100BB800CE3900000000000000000000EF7DFFFFBC
:100BC800C63800000000000000000000000000001F
:100BD800D6BAFFFFEF7D00000000000000005AAB0E
:100BE800FFFFFFFF9CF30000000000000000000072
:100BF80000000000B596FFFFFFFF5AAB00000000A1
:100C08000000A514FFFFFFFF630C000000000000B8
:100C1800000000000000000083F0FFFFFFFFA514A4
:100C2800000000000000D67AFFFFF7BE00000000B9
:100C38000000000000000000000000002925FFFF60
:100C4800FFFFD67A0000000000000000000000004E
:100C5800000000000000000000000000000000008C
:100C6800000000000000000000000000000000007C
:100C7800000000000000000000000000000000006C
:100C8800000000000000000000000000000000005C
:100C9800000000000000000000000000000000004C
:100CA800000000000000000000000000000000003C
:100CB800000000000000000000000000000000002C
:100CC800000000000000000000000000000000001C
:100CD800000000000000000000000000000000000C
:100CE80000000000000000000000000000000000FC
:100CF80000000000000000000000000000000000EC
:100D080000000000000000000000000000000000DB
:100D180000000000000000000000000000000000CB
:100D280000000000000000000000000000000000BB
:100D380000000000000000000000000000000000AB
:100D480000000000000000008410DEFBF77EFFDFDB
:100D5800FFFFFFFFF79EE71CC5F8630C00000000CB
:100D6800000000000000000000000000AD35FFFF9B
:100D7800FFFFFFFFFFFFFFFFFFFFFFFFFFFFFFFF7B
:100D8800A4F40000000000000000000000000000C3
:100D9800AD35FFFFFFFF630C18A331666B4DBDB780
:100DA800FFDFFFFFFFFF6B2D0000000000000000C9
:100DB80000000000AD35FFFFFFFF528A0000000071
:100DC800000000009472FFFFFFFFBDD70000000085
:100DD8000000000000000000AD35FFFFFFFF528A51
:100DE80000000000000000000000F79EFFFFD67A18
:100DF800000000000000000000000000AD35FFFF0B
:100E0800FFFF528A00000000000000000000F79E6B
:100E1800FFFFC618000000000000000000000000EE
:100E2800AD35FFFFFFFF528A000000000000000000
:100E38009472FFFFFFFF84300000000000000000F4
:100E480000000000AD35FFFFFFFF528A000039E7C0
:100E5800738EBDF7FFFFFFFFD67A00000000000089
:100E68000000000000000000AD35FFFFFFFFFFFF9E
:100E7800FFFFFFFFFFFFFFFFFFFFC5F818E30000BC
:100E8800000000000000000000000000AD35FFFF7A
:100E9800FFFFFFFFFFFFFFFFFFFFFFFFFFFFFFBF9A
:100EA800B5960000000000000000000000000000EF
:100EB800AD35FFFFFFFF528A000018A35AAB94928A
:100EC800DEDBFFFFFFFFCE5900000000000000003E
:100ED80000000000AD35FFFFFFFF528A0000000050
:100EE800000000000000C618FFFFFFFF7BAF0000F6
:100EF8000000000000000000AD35FFFFFFFF528A30
:100F0800000000000000000000004A69FFFFFFFF2A
:100F1800B5B600000000000000000000AD35FFFF7E
:100F2800FFFF528A000000000000000000000000DF
:100F3800FFFFFFFFC5F800000000000000000000F0
:100F4800AD35FFFFFFFF528A0000000000000000DF
:100F580000005AEBFFFFFFFFB5760000000000001D
:100F680000000000AD35FFFFFFFF528A00000000BF
:100F78000000000018A3D6BAFFFFFFFF738E000021
:100F88000000000000000000AD35FFFFFFFF6B4DC3
:100F980018E329255ACB9492E6FCFFFFFFFFDEDB1E
:100FA800000000000000000000000000AD35FFFF59
:100FB800FFFFFFFFFFFFFFFFFFFFFFFFFFFFFFFF39
:100FC800E6FC4208000000000000000000000000ED
:100FD8008410E6FCF77EFFDFFFFFFFFFFFDFEF5D1A
:100FE800D67A949200000000000000000000000083
:100FF80000000000000000000000000000000000E9
:1010080000000000000000000000000000000000D8
:1010180000000000000000000000000000000000C8
:1010280000000000000000000000000000000000B8
:1010380000000000000000000000000000000000A8
:101048000000000000000000000000000000000098
:101058000000000000000000000000000000000088
:101068000000000000000000000000000000000078
:101078000000000000000000000000000000000068
:101088000000000000000000000000000000000058
:101098000000000000000000000000000000000048
:1010A8000000000000000000000000000000000038
:1010B8000000000000000000000000000000000028
:1010C8000000000000000000000000000000000018
:1010D8000000000000000000000000000000000008
:1010E80000000000000000000000000000000000F8
:1010F8000000000000000000528ABDF7EF5DFFDF2E
:10110800FFFFF79EDEBBA514294500000000000084
:1011180000000000000000000000A514FFDFFFFF32
:10112800FFFFFFFFFFFFFFFFFFFFFFFFBDD700002F
:10113800000000000000000000000000A514FFFFF0
:10114800FFFFF77EA4F4528A39E77BAFB596EF7DAF
:101158006B2D0000000000000000000000006B2D57
:10116800FFDFFFFFEF3D39C700000000000000006F
:101178000000000000000000000000000000000067
:101188000000D67AFFFFFFFF630C0000000000009C
:101198000000000000000000000000000000000047
:1011A800000000004208FFFFFFFFD67A00000000A1
:1011B8000000000000000000000000000000000027
:1011C80000000000000000009492FFFFFFFF9492CF
:1011D8000000000000000000000000000000000007
:1011E800000000000000000000000000BDD7FFFF65
:1011F800FFFF4A6900000000000000000000000036
:1012080000000000000000000000000000000000D6
:10121800CE39FFFFFFFF00000000000000000000C3
:1012280000000000000000000000000000000000B6
:1012380000000000D67AFFFFFFBF0000000000009A
:101248000000000000000000000000000000000096
:101258000000000000000000CE39FFFFFFFF000083
:101268000000000000000000000000000000000076
:10127800000000000000000000000000BDF7FFFFB4
:10128800FFFF42080000000000000000000000000E
:101298000000000000000000000000000000000046
:1012A8009CD3FFFFFFFF8C510000000000000000EE
:1012B8000000000000000000000000000000000026
:1012C800000000005AABFFFFFFFFCE39000000000E
:1012D8000000000000000000000000000000000006
:1012E80000000000000000000000E6FCFFFFFFDF38
:1012F8005AAB0000000000000000000000000000E1
:1013080000000000000000000000000000008C51F8
:10131800FFFFFFFFE6FC3186000000000000000030
:1013280000000000000000000000000000000000B5
:1013380000000000CE39FFFFFFFFEF7DA4F452AAA2
:1013480031866B4D9CF3DEDB9CB30000000000008F
:1013580000000000000000001062C618FFFFFFFF39
:10136800FFFFFFFFFFFFFFFFFFFFFFFFD69A000011
:101378000000000000000000000000000000000065
:101388007BCFCE59F77EFFDFFFFFF7BEE6FCB5B691
:10139800528A000000000000000000000000000069
:1013A8000000000000000000000000000000000035
:1013B8000000000000000000000000000000000025
:1013C8000000000000000000000000000000000015
:1013D8000000000000000000000000000000000005
:1013E80000000000000000000000000000000000F5
:1013F80000000000000000000000000000000000E5
:1014080000000000000000000000000000000000D4
:1014180000000000000000000000000000000000C4
:1014280000000000000000000000000000000000B4
:1014380000000000000000000000000000000000A4
:101448000000000000000000000000000000000094
:101458000000000000000000000000000000000084
:101468000000000000000000000000000000000074
:101478000000000000000000000000000000000064
:101488000000000000000000000000000000000054
:1014980000000000000000008410DEFBF79EFFDF64
:1014A800FFFFFFBFE73CC6186B2D000000000000DF
:1014B800000000000000000000000000AD35FFFF44
:1014C800FFFFFFFFFFFFFFFFFFFFFFFFFFFFC61844
:1014D80018A3000000000000000000000000000049
:1014E800AD35FFFFFFFF630C18E352AA9CB3E6FC7F
:1014F800FFFFFFFFD67A0000000000000000000098
:1015080000000000AD35FFFFFFFF528A0000000019
:1015180000000000BDF7FFFFFFFFA514000000005A
:101528000000000000000000AD35FFFFFFFF528AF9
:1015380000000000000000000000E71CFFFFF77E2D
:10154800106200000000000000000000AD35FFFF41
:10155800FFFF528A000000000000000000009CD33A
:10156800FFFFFFFF843000000000000000000000C3
:10157800AD35FFFFFFFF528A0000000000000000A9
:1015880000003186FFFFFFFFBDD70000000000000C
:1015980000000000AD35FFFFFFFF528A0000000089
:1015A8000000000000000000F77EFFFFD6BA000030
:1015B8000000000000000000AD35FFFFFFFF528A69
:1015C800000000000000000000000000E73CFFFFF2
:1015D800E6FC00000000000000000000AD35FFFF41
:1015E800FFFF528A00000000000000000000000019
:1015F800E6FCFFFFEF3D00000000000000000000D7
:10160800AD35FFFFFFFF528A000000000000000018
:1016180000000000E73CFFFFE6FC000000000000BF
:1016280000000000AD35FFFFFFFF528A00000000F8
:101638000000000000000000F77EFFFFD6BA00009F
:101648000000000000000000AD35FFFFFFFF528AD8
:101658000000000000000000000039C7FFFFFFFF86
:10166800BDD700000000000000000000AD35FFFFFE
:10167800FFFF528A000000000000000000009CD319
:10168800FFFFFFFF8C310000000000000000000099
:10169800AD35FFFFFFFF528A000000000000000088
:1016A8000000E71CFFFFF77E18A300000000000001
:1016B80000000000AD35FFFFFFFF528A0000000068
:1016C80000000000BDD7FFFFFFFFA53400000000A9
:1016D8000000000000000000AD35FFFFFFFF6B4D6C
:1016E80021044A699472DEDBFFFFFFFFD69A0000EF
:1016F800000000000000000000000000AD35FFFF02
:10170800FFFFFFFFFFFFFFFFFFFFFFFFFFFFC61801
:1017180018E30000000000000000000000000000C6
:101728008410DEFBF79EFFDFFFFFFFBFEF3DC6180B
:101738006B2D000000000000000000000000000009
:101748000000000000000000000000000000000091
:101758000000000000000000000000000000000081
:101768000000000000000000000000000000000071
:101778000000000000000000000000000000000061
:101788000000000000000000000000000000000051
:101798000000000000000000000000000000000041
:1017A8000000000000000000000000000000000031
:1017B8000000000000000000000000000000000021
:1017C8000000000000000000000000000000000011
:1017D8000000000000000000000000000000000001
:1017E80000000000000000000000000000000000F1
:1017F80000000000000000000000000000000000E1
:1018080000000000000000000000000000000000D0
:1018180000000000000000000000000000000000C0
:1018280000000000000000000000000000000000B0
:1018380000000000000000000000000000000000A0
:1018480000009472FFFFFFFFFFFFFFFFFFFFFFFF96
:10185800FFFFFFFFFFFFFFFF6B4D000000000000D0
:101868000000000000009472FFFFFFFFFFFFFFFF72
:10187800FFFFFFFFFFFFFFFFFFFFFFFF6B4D0000B4
:10188800000000000000000000009472FFFFFFFF4E
:101898007BCF0000000000000000000000000000F6
:1018A800000000000000000000000000000094722A
:1018B800FFFFFFFF7BCF00000000000000000000DA
:1018C8000000000000000000000000000000000010
:1018D80000009472FFFFFFFF7BCF000000000000B4
:1018E80000000000000000000000000000000000F0
:1018F8000000000000009472FFFFFFFF7BCF000094
:1019080000000000000000000000000000000000CF
:10191800000000000000000000009472FFFFFFFFBD
:101928007BCF000000000000000000000000000065
:101938000000000000000000000000000000947299
:10194800FFFFFFFF7BCF0000000000000000000049
:10195800000000000000000000000000000000007F
:1019680000009472FFFFFFFFFFFFFFFFFFFFFFFF75
:10197800FFFFFFFFFFFF736E000000000000000084
:101988000000000000009472FFFFFFFFFFFFFFFF51
:10199800FFFFFFFFFFFFFFFFFFFF736E0000000068
:1019A800000000000000000000009472FFFFFFFF2D
:1019B8007BCF0000000000000000000000000000D5
:1019C8000000000000000000000000000000947209
:1019D800FFFFFFFF7BCF00000000000000000000B9
:1019E80000000000000000000000000000000000EF
:1019F80000009472FFFFFFFF7BCF00000000000093
:101A080000000000000000000000000000000000CE
:101A18000000000000009472FFFFFFFF7BCF000072
:101A280000000000000000000000000000000000AE
:101A3800000000000000000000009472FFFFFFFF9C
:101A48007BCF000000000000000000000000000044
:101A58000000000000000000000000000000947278
:101A6800FFFFFFFF7BCF0000000000000000000028
:101A7800000000000000000000000000000000005E
:101A880000009472FFFFFFFF7BCF00000000000002
:101A9800000000000000000000000000000000003E
:101AA8000000000000009472FFFFFFFFFFFFFFFF30
:101AB800FFFFFFFFFFFFFFFFFFFFFFFFEF5D0000DE
:101AC800000000000000000000009472FFFFFFFF0C
:101AD800FFFFFFFFFFFFFFFFFFFFFFFFFFFFFFFF0E
:101AE800EF5D0000000000000000000000000000A2
:101AF80000000000000000000000000000000000DE
:101B080000000000000000000000000000000000CD
:101B180000000000000000000000000000000000BD
:101B280000000000000000000000000000000000AD
:101B3800000000000000000000000000000000009D
:101B4800000000000000000000000000000000008D
:101B5800000000000000000000000000000000007D
:101B6800000000000000000000000000000000006D
:101B7800000000000000000000000000000000005D
:101B8800000000000000000000000000000000004D
:101B9800000000000000000000000000000000003D
:101BA800000000000000000000000000000000002D
:101BB800000000000000000000000000000000001D
:101BC800000000000000000000000000000000000D
:101BD80000000000000000000000000000000000FD
:101BE800000000000000000000009472FFFFFFFFEB
:101BF800FFFFFFFFFFFFFFFFFFFFFFFFFFFFFFFFED
:101C080094720000000000000000000000009472C0
:101C1800FFFFFFFFFFFFFFFFFFFFFFFFFFFFFFFFCC
:101C2800FFFFFFFF947200000000000000000000AA
:101C380000009472FFFFFFFF7BCF00000000000050
:101C4800000000000000000000000000000000008C
:101C58000000000000009472FFFFFFFF7BCF000030
:101C6800000000000000000000000000000000006C
:101C7800000000000000000000009472FFFFFFFF5A
:101C88007BCF000000000000000000000000000002
:101C98000000000000000000000000000000947236
:101CA800FFFFFFFF7BCF00000000000000000000E6
:101CB800000000000000000000000000000000001C
:101CC80000009472FFFFFFFF7BCF000000000000C0
:101CD80000000000000000000000000000000000FC
:101CE8000000000000009472FFFFFFFF7BCF0000A0
:101CF80000000000000000000000000000000000DC
:101D0800000000000000000000009472FFFFFFFFC9
:101D1800FFFFFFFFFFFFFFFFFFFFFFFFFFFF94B283
:101D280000000000000000000000000000009472A5
:101D3800FFFFFFFFFFFFFFFFFFFFFFFFFFFFFFFFAB
:101D4800FFFF94B200000000000000000000000047
:101D580000009472FFFFFFFF7BCF0000000000002F
:101D6800000000000000000000000000000000006B
:101D78000000000000009472FFFFFFFF7BCF00000F
:101D8800000000000000000000000000000000004B
:101D9800000000000000000000009472FFFFFFFF39
:101DA8007BCF0000000000000000000000000000E1
:101DB8000000000000000000000000000000947215
:101DC800FFFFFFFF7BCF00000000000000000000C5
:101DD80000000000000000000000000000000000FB
:101DE80000009472FFFFFFFF7BCF0000000000009F
:101DF80000000000000000000000000000000000DB
:101E08000000000000009472FFFFFFFF7BCF00007E
:101E180000000000000000000000000000000000BA
:101E2800000000000000000000009472FFFFFFFFA8
:101E38007BCF000000000000000000000000000050
:101E48000000000000000000000000000000947284
:101E5800FFFFFFFF7BCF0000000000000000000034
:101E6800000000000000000000000000000000006A
:101E780000009472FFFFFFFF7BCF0000000000000E
:101E8800000000000000000000000000000000004A
:101E9800000000000000000000000000000000003A
:101EA800000000000000000000000000000000002A
:101EB800000000000000000000000000000000001A
:101EC800000000000000000000000000000000000A
:101ED80000000000000000000000000000000000FA
:101EE80000000000000000000000000000000000EA
:101EF80000000000000000000000000000000000DA
:101F080000000000000000000000000000000000C9
:101F180000000000000000000000000000000000B9
:101F280000000000000000000000000000000000A9
:101F38000000000000000000000000000000000099
:101F48000000000000000000000000000000000089
:101F58000000000000000000000000000000000079
:101F68000000000000000000000000000000000069
:101F78000000000000000000000000000000000059
:101F88000000000000000000000000000000000049
:101F980000000000000000005ACBC5F8EF5DFFDF2D
:101FA800FFFFF79EDEDBAD55316600000000000044
:101FB80000000000000000000000A534FFDFFFFF64
:101FC800FFFFFFFFFFFFFFFFFFFFFFFFAD750000F3
:101FD800000000000000000000000000AD35FFFF19
:101FE800FFFFF79EA514528A29456B4DAD75EF3D4D
:101FF80042080000000000000000000000006B4DD7
:10200800FFDFFFFFEF5D4A2900000000000000002D
:1020180000000000000000000000000000000000B8
:102028000000D69AFFFFFFFF6B6D00000000000064
:102038000000000000000000000000000000000098
:10204800000000004208FFFFFFFFD69A00000000D2
:102058000000000000000000000000000000000078
:1020680000000000000000009492FFFFFFFF94B200
:102078000000000000000000000000000000000058
:10208800000000000000000000000000BDD7FFFFB6
:10209800FFFF528A0000000000000000000000005E
:1020A8000000000000000000000000000000000028
:1020B800CE39FFFFFFFF0000000000000000000015
:1020C8000000000000000000000000000000000008
:1020D80000000000D67AFFFFFFBF000000000000EC
:1020E80000000000000000000000000000000000E8
:1020F8000000000000000000CE59FFFFFFFF0000B5
:10210800000000000000000000000000EF5DFFFF7D
:10211800D6BA00000000000000000000BDF7FFFF75
:10212800FFFF4A2900000000000000000000000036
:10213800EF5DFFFFD6BA00000000000000000000BD
:102148009CD3FFFFFFFF8C5100000000000000003F
:1021580000000000EF5DFFFFD6BA0000000000009D
:10216800000000005AABFFFFFFFFCE39000000005F
:102178000000000000000000EF5DFFFFD6BA00007D
:1021880000000000000000000000DEFBFFFFFFDF92
:10219800528A00000000000000000000EF5DFFFF11
:1021A800D6BA0000000000000000000000008C31DA
:1021B800FFFFFFFFE6FC29450000000000000000CB
:1021C800EF5DFFFFD6BA000000000000000000002D
:1021D80000000000CE39FFFFFFFFEF5D9CB34A49C6
:1021E80018E36B4DF79EFFFFD6BA00000000000011
:1021F80000000000000000001062C638FFFFFFFF6B
:10220800FFFFFFFFFFFFFFFFFFFFFFFFD6BA000042
:1022180000000000000000000000000000000000B6
:1022280083F0D67AF79EFFFFFFFFFFBFE71CC618B3
:102238007BCF00000000000000000000000000004C
:102248000000000000000000000000000000000086
:102258000000000000000000000000000000000076
:102268000000000000000000000000000000000066
:102278000000000000000000000000000000000056
:102288000000000000000000000000000000000046
:102298000000000000000000000000000000000036
:1022A8000000000000000000000000000000000026
:1022B8000000000000000000000000000000000016
:1022C8000000000000000000000000000000000006
:1022D80000000000000000000000000000000000F6
:1022E80000000000000000000000000000000000E6
:1022F80000000000000000000000000000000000D6
:1023080000000000000000000000000000000000C5
:1023180000000000000000000000000000000000B5
:1023280000000000000000000000000000000000A5
:102338000000000000000000D6BAFFFFEF5D0000BB
:10234800000000000000000000000000EF5DFFFF3B
:10235800D6BA00000000000000000000D6BAFFFF57
:10236800EF5D000000000000000000000000000019
:10237800EF5DFFFFD6BA000000000000000000007B
:10238800D6BAFFFFEF5D000000000000000000006B
:1023980000000000EF5DFFFFD6BA0000000000005B
:1023A80000000000D6BAFFFFEF5D0000000000004B
:1023B8000000000000000000EF5DFFFFD6BA00003B
:1023C8000000000000000000D6BAFFFFEF5D00002B
:1023D800000000000000000000000000EF5DFFFFAB
:1023E800D6BA00000000000000000000D6BAFFFFC7
:1023F800EF5D000000000000000000000000000089
:10240800EF5DFFFFD6BA00000000000000000000EA
:10241800D6BAFFFFEF5D00000000000000000000DA
:1024280000000000EF5DFFFFD6BA000000000000CA
:1024380000000000D6BAFFFFEF5D000000000000BA
:102448000000000000000000EF5DFFFFD6BA0000AA
:102458000000000000000000D6BAFFFFFFFFFFFFEA
:10246800FFFFFFFFFFFFFFFFFFFFFFFFFFFFFFFF74
:10247800D6BA00000000000000000000D6BAFFFF36
:10248800FFFFFFFFFFFFFFFFFFFFFFFFFFFFFFFF54
:10249800FFFFFFFFD6BA00000000000000000000A8
:1024A800D6BAFFFFEF5D000000000000000000004A
:1024B80000000000EF5DFFFFD6BA0000000000003A
:1024C80000000000D6BAFFFFEF5D0000000000002A
:1024D8000000000000000000EF5DFFFFD6BA00001A
:1024E8000000000000000000D6BAFFFFEF5D00000A
:1024F800000000000000000000000000EF5DFFFF8A
:10250800D6BA00000000000000000000D6BAFFFFA5
:10251800EF5D000000000000000000000000000067
:10252800EF5DFFFFD6BA00000000000000000000C9
:10253800D6BAFFFFEF5D00000000000000000000B9
:1025480000000000EF5DFFFFD6BA000000000000A9
:1025580000000000D6BAFFFFEF5D00000000000099
:102568000000000000000000EF5DFFFFD6BA000089
:102578000000000000000000D6BAFFFFEF5D000079
:10258800000000000000000000000000EF5DFFFFF9
:10259800D6BA00000000000000000000D6BAFFFF15
:1025A800EF5D0000000000000000000000000000D7
:1025B800EF5DFFFFD6BA0000000000000000000039
:1025C800D6BAFFFFEF5D0000000000000000000029
:1025D80000000000EF5DFFFFD6BA00000000000019
:1025E80000000000000000000000000000000000E3
:1025F80000000000000000000000000000000000D3
:1026080000000000000000000000000000000000C2
:1026180000000000000000000000000000000000B2
:1026280000000000000000000000000000000000A2
:102638000000000000000000000000000000000092
:102648000000000000000000000000000000000082
:102658000000000000000000000000000000000072
:102668000000000000000000000000000000000062
:102678000000000000000000000000000000000052
:102688000000000000000000000000000000000042
:102698000000000000000000000000000000000032
:1026A8000000000000000000000000000000000022
:1026B8000000000000000000000000000000000012
:1026C8000000000000000000000000000000000002
:1026D80000000000000000000000000000000000F2
:1026E80000009CF3FFFFFFFFFFFFFFFFFFFFFFFF5F
:1026F800FFFFFFFFFFFF9CF3000000000000000049
:102708000000000000009CF3FFFFFFFFFFFFFFFF3A
:10271800FFFFFFFFFFFFFFFFFFFF9CF3000000002C
:1027280000000000000000000000000000000000A1
:102738000000E71CFFFFE71C00000000000000008D
:102748000000000000000000000000000000000081
:10275800000000000000E71CFFFFE71C000000006D
:102768000000000000000000000000000000000061
:1027780000000000000000000000E71CFFFFE71C4D
:102788000000000000000000000000000000000041
:102798000000000000000000000000000000E71C2E
:1027A800FFFFE71C00000000000000000000000020
:1027B8000000000000000000000000000000000011
:1027C8000000E71CFFFFE71C0000000000000000FD
:1027D80000000000000000000000000000000000F1
:1027E800000000000000E71CFFFFE71C00000000DD
:1027F80000000000000000000000000000000000D1
:1028080000000000000000000000E71CFFFFE71CBC
:1028180000000000000000000000000000000000B0
:102828000000000000000000000000000000E71C9D
:10283800FFFFE71C0000000000000000000000008F
:102848000000000000000000000000000000000080
:102858000000E71CFFFFE71C00000000000000006C
:102868000000000000000000000000000000000060
:10287800000000000000E71CFFFFE71C000000004C
:102888000000000000000000000000000000000040
:1028980000000000000000000000E71CFFFFE71C2C
:1028A8000000000000000000000000000000000020
:1028B8000000000000000000000000000000E71C0D
:1028C800FFFFE71C000000000000000000000000FF
:1028D80000000000000000000000000000000000F0
:1028E8000000E71CFFFFE71C0000000000000000DC
:1028F80000000000000000000000000000000000D0
:10290800000000000000E71CFFFFE71C00000000BB
:1029180000000000000000000000000000000000AF
:1029280000000000000000000000E71CFFFFE71C9B
:10293800000000000000000000000000000000008F
:102948000000000000009CF3FFFFFFFFFFFFFFFFF8
:10295800FFFFFFFFFFFFFFFFFFFF9CF300000000EA
:10296800000000000000000000009CF3FFFFFFFFD4
:10297800FFFFFFFFFFFFFFFFFFFFFFFFFFFF9CF3CE
:10298800000000000000000000000000000000003F
:10299800000000000000000000000000000000002F
:1029A800000000000000000000000000000000001F
:1029B800000000000000000000000000000000000F
:1029C80000000000000000000000000000000000FF
:1029D80000000000000000000000000000000000EF
:1029E80000000000000000000000000000000000DF
:1029F80000000000000000000000000000000000CF
:102A080000000000000000000000000000000000BE
:102A180000000000000000000000000000000000AE
:102A2800000000000000000000000000000000009E
:102A3800000000000000000000000000000000008E
:102A4800000000000000000000000000000000007E
:102A5800000000000000000000000000000000006E
:102A6800000000000000000000000000000000005E
:102A7800000000000000000000000000000000004E
:102A88000000000000000000000000007BCFFFFFF6
:102A9800FFFFFFFFFFFFFFFFFFFFFFFFFFFFCE79F5
:102AA800000000000000000000000000000000001E
:102AB8007BCFFFFFFFFFFFFFFFFFFFFFFFFFFFFFD2
:102AC800FFFFCE79000000000000000000000000B9
:102AD80000000000000000000000000000000000EE
:102AE8000000F79EFFFFCE79000000000000000004
:102AF80000000000000000000000000000000000CE
:102B0800000000000000F79EFFFFCE7900000000E3
:102B180000000000000000000000000000000000AD
:102B280000000000000000000000F79EFFFFCE79C3
:102B3800000000000000000000000000000000008D
:102B48000000000000000000000000000000F79EE8
:102B5800FFFFCE7900000000000000000000000028
:102B6800000000000000000000000000000000005D
:102B78000000F79EFFFFCE79000000000000000073
:102B8800000000000000000000000000000000003D
:102B9800000000000000F79EFFFFCE790000000053
:102BA800000000000000000000000000000000001D
:102BB80000000000000000000000F79EFFFFCE7933
:102BC80000000000000000000000000000000000FD
:102BD8000000000000000000000000000000F79E58
:102BE800FFFFCE7900000000000000000000000098
:102BF80000000000000000000000000000000000CD
:102C08000000F79EFFFFCE790000000000000000E2
:102C180000000000000000000000000000000000AC
:102C2800000000000000F79EFFFFCE7900000000C2
:102C3800000000000000000000000000000000008C
:102C480000000000000000000000F79EFFFFCE59C2
:102C5800000000000000000000000000000000006C
:102C68000000000000000000000000000000FFDF7E
:102C7800FFFFC63800000000000000000000000050
:102C8800000000000000000000000000000000003C
:102C98005ACBFFFFFFFFB5760000000000000000E0
:102CA800000000000000000000000000000000001C
:102CB80000000000C5F8FFFFFFFF7BAF0000000029
:102CC80000000000000000000000D69ACE798C5168
:102CD8004A2921046B2DC618FFFFFFFFE6FC000000
:102CE800000000000000000000000000738EFFFFDD
:102CF800FFFFFFFFFFFFFFFFFFFFFFFFFFFFEF7D6E
:102D08005ACB000000000000000000000000000096
:102D180000007BCFCE59EF5DFFDFFFFFFFBFE73C31
:102D2800B596318600000000000000000000000099
:102D3800000000000000000000000000000000008B
:102D4800000000000000000000000000000000007B
:102D5800000000000000000000000000000000006B
:102D6800000000000000000000000000000000005B
:102D7800000000000000000000000000000000004B
:102D8800000000000000000000000000000000003B
:102D9800000000000000000000000000000000002B
:102DA800000000000000000000000000000000001B
:102DB800000000000000000000000000000000000B
:102DC80000000000000000000000000000000000FB
:102DD80000000000000000000000000000000000EB
:102DE80000000000000000000000000000000000DB
:102DF80000000000000000000000000000000000CB
:102E080000000000000000000000000000000000BA
:102E180000000000000000000000000000000000AA
:102E2800000000000000000000000000000000009A
:102E3800528AFFFFFFFFAD350000000000000000D0
:102E48000000738EFFFFFFFFE6FC10620000000029
:102E580000000000528AFFFFFFFFAD3500000000B0
:102E68000000000039E7F77EFFFFFFBF5AAB000004
:102E78000000000000000000528AFFFFFFFFAD3590
:102E88000000000000001062DEBBFFFFFFFF94722D
:102E9800000000000000000000000000528AFFFF50
:102EA800FFFFAD35000000000000BDD7FFFFFFFFAA
:102EB800B5B600000000000000000000000000009F
:102EC800528AFFFFFFFFAD3500000000A514FFFF89
:102ED800FFFFD69A0000000000000000000000007C
:102EE80000000000528AFFFFFFFFAD3500009492FA
:102EF800FFFFFFFFE71C294500000000000000005D
:102F08000000000000000000528AFFFFFFFFAD35FF
:102F180083F0FFDFFFFFEF7D4A690000000000003B
:102F2800000000000000000000000000528AFFFFBF
:102F3800FFFFC618FFBFFFFFF79E5AEB0000000017
:102F48000000000000000000000000000000000079
:102F5800528AFFFFFFFFFFFFFFFFFFFF9CF3000008
:102F68000000000000000000000000000000000059
:102F780000000000528AFFFFFFFFF77EFFFFFFFF00
:102F8800FFDF8410000000000000000000000000C7
:102F98000000000000000000528AFFFFFFFFAD356F
:102FA800B576FFFFFFFFFFDF73AE000000000000F3
:102FB800000000000000000000000000528AFFFF2F
:102FC800FFFFAD350000A514FFFFFFFFF79E5AABCA
:102FD80000000000000000000000000000000000E9
:102FE800528AFFFFFFFFAD3500000000B596FFFFD6
:102FF800FFFFEF3D39A700000000000000000000BF
:1030080000000000528AFFFFFFFFAD3500000000FE
:103018000000CE39FFFFFFFFCE590000000000007E
:103028000000000000000000528AFFFFFFFFAD35DE
:103038000000000000002945EF5DFFFFFFFF8C71D5
:10304800000000000000000000000000528AFFFF9E
:10305800FFFFAD350000000000000000738EFFFF89
:10306800FFFFF79E4208000000000000000000007B
:10307800528AFFFFFFFFAD3500000000000000008E
:103088000000BDD7FFFFFFFFC618000000000000CA
:1030980000000000528AFFFFFFFFAD35000000006E
:1030A8000000000000003186F79EFFFFFFFF5AABCB
:1030B8000000000000000000528AFFFFFFFFAD354E
:1030C800000000000000000000000000A514FFFF41
:1030D800FFFFC5F80000000000000000000000002D
:1030E80000000000000000000000000000000000D8
:1030F80000000000000000000000000000000000C8
:1031080000000000000000000000000000000000B7
:1031180000000000000000000000000000000000A7
:103128000000000000000000000000000000000097
:103138000000000000000000000000000000000087
:103148000000000000000000000000000000000077
:103158000000000000000000000000000000000067
:103168000000000000000000000000000000000057
:103178000000000000000000000000000000000047
:103188000000000000000000000000000000000037
:103198000000000000000000000000000000000027
:1031A8000000000000000000000000000000000017
:1031B8000000000000000000000000000000000007
:1031C80000000000000000000000000000000000F7
:1031D800000000000000000000009472FFFFFFFFE5
:1031E8007BCF00000000000000000000000000008D
:1031F80000000000000000000000000000009472C1
:10320800FFFFFFFF7BCF0000000000000000000070
:1032180000000000000000000000000000000000A6
:1032280000009472FFFFFFFF7BCF0000000000004A
:103238000000000000000000000000000000000086
:103248000000000000009472FFFFFFFF7BCF00002A
:103258000000000000000000000000000000000066
:10326800000000000000000000009472FFFFFFFF54
:103278007BCF0000000000000000000000000000FC
:103288000000000000000000000000000000947230
:10329800FFFFFFFF7BCF00000000000000000000E0
:1032A8000000000000000000000000000000000016
:1032B80000009472FFFFFFFF7BCF000000000000BA
:1032C80000000000000000000000000000000000F6
:1032D8000000000000009472FFFFFFFF7BCF00009A
:1032E80000000000000000000000000000000000D6
:1032F800000000000000000000009472FFFFFFFFC4
:103308007BCF00000000000000000000000000006B
:10331800000000000000000000000000000094729F
:10332800FFFFFFFF7BCF000000000000000000004F
:103338000000000000000000000000000000000085
:1033480000009472FFFFFFFF7BCF00000000000029
:103358000000000000000000000000000000000065
:103368000000000000009472FFFFFFFF7BCF000009
:103378000000000000000000000000000000000045
:10338800000000000000000000009472FFFFFFFF33
:103398007BCF0000000000000000000000000000DB
:1033A800000000000000000000000000000094720F
:1033B800FFFFFFFF7BCF00000000000000000000BF
:1033C80000000000000000000000000000000000F5
:1033D80000009472FFFFFFFF7BCF00000000000099
:1033E80000000000000000000000000000000000D5
:1033F8000000000000009472FFFFFFFF7BCF000079
:1034080000000000000000000000000000000000B4
:10341800000000000000000000009472FFFFFFFFA2
:103428007BCF00000000000000000000000000004A
:10343800000000000000000000000000000094727E
:10344800FFFFFFFFFFFFFFFFFFFFFFFFFFFFFFFF84
:10345800FFFFFFFFEF5D000000000000000000001C
:1034680000009472FFFFFFFFFFFFFFFFFFFFFFFF5A
:10347800FFFFFFFFFFFFFFFFEF5D00000000000000
:103488000000000000000000000000000000000034
:103498000000000000000000000000000000000024
:1034A8000000000000000000000000000000000014
:1034B8000000000000000000000000000000000004
:1034C80000000000000000000000000000000000F4
:1034D80000000000000000000000000000000000E4
:1034E80000000000000000000000000000000000D4
:1034F80000000000000000000000000000000000C4
:1035080000000000000000000000000000000000B3
:1035180000000000000000000000000000000000A3
:103528000000000000000000000000000000000093
:103538000000000000000000000000000000000083
:103548000000000000000000000000000000000073
:103558000000000000000000000000000000000063
:103568000000000000000000000000000000000053
:103578000000000000000000000000000000000043
:103588000000DEFBFFFFE73C000000000000000039
:103598000000E71CFFFFE73C0000000000000000FF
:1035A800000000000000EF7DFFFFFFFF528A0000CF
:1035B800000000004A29FFFFFFFFF79E00000000FF
:1035C80000000000000000000000FFDFFFFFFFFF19
:1035D800A534000000000000A4F4FFFFFFFFFFFF78
:1035E80021040000000000000000000039C7FFFFB0
:1035F800F77EFFFFDEBB000000000000D69AFFFF49
:10360800F77EFFFF630C00000000000000000000D0
:103618006B6DFFFFD6BAF79EFFDF2925000018A3C0
:10362800FFBFF79ED6BAFFFF8430000000000000FD
:10363800000000008C31FFFFD69ACE39FFFF94724C
:1036480000008410FFFFCE59D69AFFFF9CB30000FC
:1036580000000000000000009CD3FFFFD67A8C51C8
:10366800FFFFCE590000C618FFFF9472CE79FFFF06
:10367800AD3500000000000000000000AD55FFFF60
:10368800CE7918E3FFBFF79E0000EF5DFFDF292525
:10369800CE59FFFFB5B60000000000000000000092
:1036A800BDD7FFFFCE590000D69AFFFF9492FFFFC7
:1036B800DEBB0000CE39FFFFC61800000000000086
:1036C80000000000CE39FFFFCE3900009CD3FFFF79
:1036D800F77EFFFFA5140000C618FFFFCE590000B3
:1036E8000000000000000000D67AFFFFC6180000A6
:1036F80039E7FFFFFFFFFFFF526A0000C5F8FFFF31
:10370800D69A00000000000000000000DEDBFFFF8A
:10371800C5F800000000DEFBFFFFE71C000000000A
:10372800BDF7FFFFDEDB0000000000000000000026
:10373800E71CFFFFBDD700000000000000000000EC
:1037480000000000BDD7FFFFE71C000000000000DC
:1037580000000000EF5DFFFFBDB7000000000000A3
:103768000000000000000000B5B6FFFFEF5D00009C
:103778000000000000000000F77EFFFFB5B6000063
:10378800000000000000000000000000B596FFFFE8
:10379800F77E00000000000000000000F7BEFFFFF9
:1037A800B5960000000000000000000000000000C6
:1037B800B576FFFFF79E0000000000000000000043
:1037C800FFDFFFFFAD7500000000000000000000F3
:1037D80000000000AD75FFFFFFDF000000000000E3
:1037E80000000000FFFFFFFFAD55000000000000D3
:1037F8000000000000000000AD55FFFFFFFF0000C3
:103808000000000000003166FFFFFFFFA534000044
:10381800000000000000000000000000A534FFFFC9
:10382800FFFF294500000000000000000000000024
:103838000000000000000000000000000000000080
:103848000000000000000000000000000000000070
:103858000000000000000000000000000000000060
:103868000000000000000000000000000000000050
:103878000000000000000000000000000000000040
:103888000000000000000000000000000000000030
:103898000000000000000000000000000000000020
:1038A8000000000000000000000000000000000010
:1038B8000000000000000000000000000000000000
:1038C80000000000000000000000000000000000F0
:1038D80000000000000000000000000000000000E0
:1038E80000000000000000000000000000000000D0
:1038F80000000000000000000000000000000000C0
:1039080000000000000000000000000000000000AF
:10391800000000000000000000000000000000009F
:103928000000000000000000A514FFFFFFFFB5968F
:10393800000000000000000000000000FFBFFFFFC3
:10394800A51400000000000000000000A514FFFFFF
:10395800FFFFFFBF42080000000000000000000059
:10396800FFBFFFFFA51400000000000000000000DA
:10397800A514FFFFFFFFFFFFBDF7000000000000D8
:1039880000000000FFBFFFFFA514000000000000BA
:1039980000000000A514FFFFFFFFFFFFFFDF526AD2
:1039A8000000000000000000FFBFFFFFA51400009A
:1039B8000000000000000000A514FFFFFFBFE6FCA8
:1039C800FFFFC6180000000000000000FFBFFFFF57
:1039D800A51400000000000000000000A514FFFF6F
:1039E800FFBF8410FFFFFFDF528A000000000000C5
:1039F800FFBFFFFFA514000000000000000000004A
:103A0800A514FFFFFFBF0000DEFBFFFFC618000084
:103A180000000000FFBFFFFFA51400000000000029
:103A280000000000A514FFFFFFBF00008410FFFF87
:103A3800FFDF4A4900000000FFBFFFFFA514000098
:103A48000000000000000000A514FFFFFFBF0000F9
:103A58000000E71CFFFFBDB700000000FFBFFFFF2D
:103A6800A51400000000000000000000A514FFFFDE
:103A7800FFBF000000009472FFFFF7BE2925000079
:103A8800FFBFFFFFA51400000000000000000000B9
:103A9800A514FFFFFFBF000000000000EF5DFFFF5F
:103AA800A5140000FFBFFFFFA514000000000000E0
:103AB80000000000A514FFFFFFBF00000000000089
:103AC800A514FFFFEF3D0000FFBFFFFFA514000096
:103AD8000000000000000000A514FFFFFFBF000069
:103AE800000000002104F79EFFFF7BCFFFBFFFFF10
:103AF800A51400000000000000000000A514FFFF4E
:103B0800FFBF0000000000000000BDB7FFFFCE7936
:103B1800FFBFFFFFA5140000000000000000000028
:103B2800A514FFFFFFBF00000000000000004A6965
:103B3800FFFFFFDFFFDFFFFFA5140000000000000C
:103B480000000000A514FFFFFFBF000000000000F8
:103B580000000000D67AFFFFFFFFFFFFA51400005A
:103B68000000000000000000A514FFFFFFBF0000D8
:103B780000000000000000007BCFFFFFFFFFFFFFF9
:103B8800A51400000000000000000000A514FFFFBD
:103B9800FFBF000000000000000000000000EF3D33
:103BA800FFFFFFFFA5140000000000000000000058
:103BB800A514FFFFFFBF0000000000000000000088
:103BC8000000AD35FFFFFFFFA51400000000000056
:103BD80000000000000000000000000000000000DD
:103BE80000000000000000000000000000000000CD
:103BF80000000000000000000000000000000000BD
:103C080000000000000000000000000000000000AC
:103C1800000000000000000000000000000000009C
:103C2800000000000000000000000000000000008C
:103C3800000000000000000000000000000000007C
:103C4800000000000000000000000000000000006C
:103C5800000000000000000000000000000000005C
:103C6800000000000000000000000000000000004C
:103C7800000000000000000000000000000000003C
:103C8800000000000000000000000000000000002C
:103C9800000000000000000000000000000000001C
:103CA800000000000000000000000000000000000C
:103CB80000000000000000000000000000000000FC
:103CC80000000000000000000000000000000000EC
:103CD8000000000000008C31DEBBF7BEFFFFF7BE1E
:103CE800D6BA843000000000000000000000000088
:103CF8000000000000000000C5F8FFFFFFFFFFFF05
:103D0800FFFFFFFFFFFFFFFFC5F8000000000000F6
:103D180000000000000000000000AD55FFFFFFFF9D
:103D2800D69A736E31867BAFDEDBFFFFFFFFAD55A2
:103D38000000000000000000000000004208FFBF73
:103D4800FFFFDEBB00000000000000001062DEFB89
:103D5800FFFFFFBF42080000000000000000000055
:103D6800AD55FFFFFFFF6B6D000000000000000075
:103D78000000738EFFFFFFFFAD350000000000005C
:103D880000000000DEDBFFFFEF7D00000000000008
:103D98000000000000000000EF7DFFFFDEDB0000F8
:103DA8000000000000000000F79EFFFFD67A000028
:103DB800000000000000000000000000CE79FFFFB6
:103DC800F7BE00000000000000002925FFFFFFFFEC
:103DD800BDD7000000000000000000000000000047
:103DE800BDB7FFFFFFFF39C7000000000000526A9F
:103DF800FFFFFFFFB5760000000000000000000094
:103E080000000000AD55FFFFFFFF5ACB0000000087
:103E18000000630CFFFFFFFFAD550000000000002D
:103E28000000000000000000A534FFFFFFFF6B4DFD
:103E3800000000000000526AFFFFFFFFB576000097
:103E4800000000000000000000000000AD55FFFF6A
:103E5800FFFF5ACB0000000000002925FFFFFFFFED
:103E6800BDD70000000000000000000000000000B6
:103E7800BDB7FFFFFFFF39C70000000000000000CA
:103E8800F79EFFFFD67A0000000000000000000047
:103E980000000000CE79FFFFF7BE00000000000020
:103EA80000000000DEDBFFFFEF7D000000000000E7
:103EB8000000000000000000EF7DFFFFDEDB0000D7
:103EC8000000000000000000AD55FFFFFFFF6B6D14
:103ED80000000000000000000000738EFFFFFFFFDD
:103EE800AD55000000000000000000004208FFDFA0
:103EF800FFFFDEBB00000000000000001062DEFBD8
:103F0800FFFFFFDF42080000000000000000000083
:103F18000000AD55FFFFFFFFD69A6B6D31667BAF92
:103F2800DEDBFFFFFFFFAD550000000000000000D2
:103F38000000000000000000C618FFFFFFFFFFFFA1
:103F4800FFFFFFFFFFFFFFFFC61800000000000093
:103F580000000000000000000000000000008C517C
:103F6800DEDBF7BEFFFFF7BEDEBB8C3100000000D2
:103F78000000000000000000000000000000000039
:103F88000000000000000000000000000000000029
:103F98000000000000000000000000000000000019
:103FA8000000000000000000000000000000000009
:103FB80000000000000000000000000000000000F9
:103FC80000000000000000000000000000000000E9
:103FD80000000000000000000000000000000000D9
:103FE80000000000000000000000000000000000C9
:103FF80000000000000000000000000000000000B9
:1040080000000000000000000000000000000000A8
:104018000000000000000000000000000000000098
:104028000000000000000000000000000000000088
:104038000000000000000000000000000000000078
:104048000000000000000000000000000000000068
:104058000000000000000000000000000000000058
:104068000000000000000000000000000000000048
:1040780000000000000000000000BDF7E71CF79EEC
:10408800FFFFFFFFFFFFF79EDEBB9CD3106200001F
:104098000000000000000000000000000000EF5DCC
:1040A800FFFFFFFFFFFFFFFFFFFFFFFFFFFFFFFF18
:1040B800E6FC4A29000000000000000000000000A3
:1040C8000000EF5DFFFFDEDB316618A339E77BCF29
:1040D800CE59FFFFFFFFDEFB0000000000000000DC
:1040E800000000000000EF5DFFFFD6BA00000000EE
:1040F800000000000000C638FFFFFFFF843000000A
:1041080000000000000000000000EF5DFFFFD6BACD
:104118000000000000000000000052AAFFFFFFFF9F
:10412800C5F8000000000000000000000000EF5D7E
:10413800FFFFD6BA000000000000000000000000E9
:10414800FFDFFFFFD69A000000000000000000001B
:104158000000EF5DFFFFD6BA00000000000000007D
:1041680000000000FFBFFFFFCE7900000000000044
:10417800000000000000EF5DFFFFD6BA000000005D
:10418800000000000000528AFFFFFFFFBDB70000DB
:1041980000000000000000000000EF5DFFFFD6BA3D
:1041A80000000000000000000000C618FFFFFFFF2D
:1041B8007BAF000000000000000000000000EF5D81
:1041C800FFFFD6BA0000000041E88410D67AFFFF4E
:1041D800FFFFD6BA00000000000000000000000049
:1041E8000000EF5DFFFFFFFFFFFFFFFFFFFFFFFF87
:1041F800FFFFFFFFDEFB39E70000000000000000C2
:10420800000000000000EF5DFFFFFFFFFFFFFFFF62
:10421800FFFFF79EDEBB9CB31062000000000000A9
:1042280000000000000000000000EF5DFFFFD6BAAC
:104238000000000000000000000000000000000076
:104248000000000000000000000000000000EF5D1A
:10425800FFFFD6BA000000000000000000000000C8
:104268000000000000000000000000000000000046
:104278000000EF5DFFFFD6BA00000000000000005C
:104288000000000000000000000000000000000026
:10429800000000000000EF5DFFFFD6BA000000003C
:1042A8000000000000000000000000000000000006
:1042B80000000000000000000000EF5DFFFFD6BA1C
:1042C80000000000000000000000000000000000E6
:1042D8000000000000000000000000000000EF5D8A
:1042E800FFFFD6BA00000000000000000000000038
:1042F80000000000000000000000000000000000B6
:104308000000EF5DFFFFD6BA0000000000000000CB
:104318000000000000000000000000000000000095
:104328000000000000000000000000000000000085
:104338000000000000000000000000000000000075
:104348000000000000000000000000000000000065
:104358000000000000000000000000000000000055
:104368000000000000000000000000000000000045
:104378000000000000000000000000000000000035
:104388000000000000000000000000000000000025
:104398000000000000000000000000000000000015
:1043A8000000000000000000000000000000000005
:1043B80000000000000000000000000000000000F5
:1043C80000000000000000000000000000000000E5
:1043D80000000000000000000000000000000000D5
:1043E80000000000000000000000000000000000C5
:1043F80000000000000000000000000000000000B5
:1044080000000000000000000000000000000000A4
:104418000000000000000000000000000000000094
:104428000000000000008C31DEBBF7BEFFFFF7BEC6
:10443800D6BA841000000000000000000000000050
:104448000000000000000000BDF7FFFFFFFFFFFFB6
:10445800FFFFFFFFFFFFFFFFBDD7000000000000C8
:1044680000000000000000000000AD35FFFFFFFF66
:10447800D69A736E31867BAFDEDBFFFFFFFFAD356B
:104488000000000000000000000000004208FFBF1C
:10449800FFFFDEBB00000000000000001062DEFB32
:1044A800FFFFFFBF420800000000000000000000FE
:1044B800AD35FFFFFFFF6B6D00000000000000003E
:1044C8000000738EFFFFFFFFA5340000000000000E
:1044D80000000000DEDBFFFFEF7D000000000000B1
:1044E8000000000000000000EF7DFFFFDEDB0000A1
:1044F8000000000000000000F79EFFFFD67A0000D1
:10450800000000000000000000000000CE79FFFF5E
:10451800F79E00000000000000002925FFFFFFFFB4
:10452800BDD70000000000000000000000000000EF
:10453800BDB7FFFFFFFF39C70000000000004A6950
:10454800FFFFFFFFB576000000000000000000003C
:1045580000000000AD55FFFFFFFF5ACB0000000030
:104568000000630CFFFFFFFFAD55000000000000D6
:104578000000000000000000A534FFFFFFFF6B4DA6
:1045880000000000000052AAFFFFFFFFB576000000
:10459800000000000000000000000000AD55FFFF13
:1045A800FFFF62EC00000000000039A7FFFFFFFFDB
:1045B800BDD700000000000000000000000000005F
:1045C800BDB7FFFFFFFF4208000000000000000029
:1045D800FFBFFFFFD67A00000000000000000000C7
:1045E80000000000CE79FFFFFFBF000000000000C0
:1045F80000000000E6FCFFFFEF7D00000000000067
:104608000000000000000000EF7DFFFFE6FC000056
:104618000000000000000000B5B6FFFFFFFF6B6D53
:1046280000000000000000000000738EFFFFFFFF85
:10463800B596000000000000000000005AABFFFF24
:10464800FFFFDEBB00000000000000001062DEFB80
:10465800FFFFFFDF4A6900000000000000000000C3
:104668000000BDD7FFFFFFFFD69A6B6D31667BAFA9
:10467800DEDBFFFFFFFFB5B6000000000000000012
:1046880000000000000018A3D69AFFFFFFFFFFFFFD
:10469800FFFFFFFFFFFFFFFFD67A10620000000058
:1046A8000000000000000000000000000000A4F46A
:1046B800EF3DFFFFFFFFFFFFE73CA51400000000F0
:1046C80000000000000000000000000000000000E2
:1046D800000000000000E6FCFFFFEF5D00000000A6
:1046E80000000000000000000000000000000000C2
:1046F80000000000000000000000A514FFFFFFFFFD
:10470800CE3918E30000000000000000000000009F
:10471800000000000000000000000000000010621F
:10472800CE39FFFFFFFFF77EBDB77BEF29250000DD
:104738000000000000000000000000000000000071
:10474800000000000000B596FFBFFFFFFFFFFFFF5E
:1047580094B200000000000000000000000000000B
:1047680000000000000000000000000039A7AD555F
:10477800DEBBF79E39C70000000000000000000003
:104788000000000000000000000000000000000021
:104798000000000000000000000000000000000011
:1047A8000000000000000000000000000000000001
:1047B80000000000000000000000000000000000F1
:1047C80000000000000000007BEFDEFBF77EFFDF4B
:1047D800FFFFFFFFFFBFE71CB5B64A490000000016
:1047E800000000000000000000000000A514FFFF0A
:1047F800FFFFFFFFFFFFFFFFFFFFFFFFFFFFF7BE0A
:10480800841000000000000000000000000000000C
:10481800A514FFFFFFFF7BAF18E329456B2DAD758E
:10482800FFDFFFFFFFBF4A69000000000000000033
:1048380000000000A514FFFFFFFF6B4D0000000003
:10484800000000008C31FFFFFFFFBDD70000000013
:104858000000000000000000A514FFFFFFFF6B4DE3
:1048680000000000000000000000EF3DFFFFE73CF3
:10487800000000000000000000000000A514FFFF79
:10488800FFFF6B4D00000000000000000000D69AFA
:10489800FFFFF79E0000000000000000000000007D
:1048A800A514FFFFFFFF6B4D000000000000000093
:1048B8000000D69AFFFFF79E0000000000000000ED
:1048C80000000000A514FFFFFFFF6B4D0000000073
:1048D800000000000000EF3DFFFFE71C00000000A3
:1048E8000000000000000000A514FFFFFFFF6B4D53
:1048F80000000000000000008C31FFFFFFFFAD75D5
:10490800000000000000000000000000A514FFFFE8
:10491800FFFF6B4D00004A29736EB596FFDFFFFF5E
:10492800EF7D39A700000000000000000000000033
:10493800A514FFFFFFFFFFFFFFFFFFFFFFFFFFFFC4
:10494800FFFFEF7D630C0000000000000000000086
:1049580000000000A514FFFFFFFFFFFFFFFFFFFFA0
:10496800FFFFFFFFEF5D2945000000000000000089
:104978000000000000000000A514FFFFFFFF6B4DC2
:1049880000000000AD35FFFFFFFF8C510000000064
:10499800000000000000000000000000A514FFFF58
:1049A800FFFF6B4D000000000000DEBBFFFFF77E3D
:1049B8002945000000000000000000000000000081
:1049C800A514FFFFFFFF6B4D0000000000005ACB4D
:1049D800FFDFFFFFBDD7000000000000000000005F
:1049E80000000000A514FFFFFFFF6B4D0000000052
:1049F80000000000BDF7FFFFFFDF5AAB000000001A
:104A08000000000000000000A514FFFFFFFF6B4D31
:104A180000000000000000004A29FFDFFFFFCE79F8
:104A2800000000000000000000000000A514FFFFC7
:104A3800FFFF6B4D00000000000000000000BDF704
:104A4800FFFFFFFF6B4D00000000000000000000AA
:104A5800A514FFFFFFFF6B4D0000000000000000E1
:104A680000004A49FFDFFFFFD69A0000000000005F
:104A7800000000000000000000000000000000002E
:104A8800000000000000000000000000000000001E
:104A9800000000000000000000000000000000000E
:104AA80000000000000000000000000000000000FE
:104AB80000000000000000000000000000000000EE
:104AC80000000000000000000000000000000000DE
:104AD80000000000000000000000000000000000CE
:104AE80000000000000000000000000000000000BE
:104AF80000000000000000000000000000000000AE
:104B0800000000000000000000000000000000009D
:104B1800000000000000000000000000000000008D
:104B2800000000000000000000000000000000007D
:104B3800000000000000000000000000000000006D
:104B4800000000000000000000000000000000005D
:104B5800000000000000000000000000000000004D
:104B6800000000000000000000000000000000003D
:104B78000000000000008C31D6BAF79EFFFFFFDF6F
:104B8800F79EDEDBB5764A49000000000000000011
:104B98000000000000000000C5F8FFFFFFFFFFFF56
:104BA800FFFFFFFFFFFFFFFFFFFFBDD70000000073
:104BB8000000000000000000000094B2FFFFFFFFAB
:104BC800E71C8C51420839E77BAFB596EF5D5AABCD
:104BD8000000000000000000000000000000DEDB14
:104BE800FFFFF79E39A7000000000000000000004A
:104BF80000000000000000000000000000000000AD
:104C08000000F79EFFFFD67A0000000000000000B9
:104C1800000000000000000000000000000000008C
:104C2800000000000000F79EFFFFDEDB0000000030
:104C3800000000000000000000000000000000006C
:104C480000000000000000000000DEBBFFFFFFFFC7
:104C58008C5100000000000000000000000000006F
:104C680000000000000000000000000000007BCFF2
:104C7800FFFFFFFFFFFFBDD739C70000000000009E
:104C8800000000000000000000000000000000001C
:104C9800000000009492FFBFFFFFFFFFFFBFC5F8B1
:104CA8005AAB0000000000000000000000000000F7
:104CB80000000000000000000000528ACE39FFDF2B
:104CC800FFFFFFFFFFFFCE594A4900000000000028
:104CD80000000000000000000000000000000000CC
:104CE80000004A29B596F79EFFFFFFFFF77E5ACBD3
:104CF80000000000000000000000000000000000AC
:104D08000000000000000000000039A7CE39FFFFB6
:104D1800FFFFE6FC000000000000000000000000AB
:104D2800000000000000000000000000000000007B
:104D38000000D69AFFFFFFFF6B2D00000000000067
:104D4800000000000000000000000000000000005B
:104D58000000000000007BCFFFFFFFFF94B20000BF
:104D6800000000000000000000000000000000003B
:104D7800000000000000000000007BCFFFFFFFFFE5
:104D88009CB30000000000000000000000000000CC
:104D98000000000000000000000000000000C5F84E
:104DA800FFFFFFFF6B4D0000000000000000000047
:104DB8000000E6FCCE5994B25ACB316642087BAF6C
:104DC800C638FFFFFFFFE6FC0000000000000000FF
:104DD8000000000073AEFFFFFFFFFFFFFFFFFFFFB4
:104DE800FFFFFFFFFFFFFFFFEF5D5ACB0000000052
:104DF800000000000000000000007BEFC618E71C60
:104E0800F7BEFFFFFFFFF7BEDEFBAD55292500000B
:104E1800000000000000000000000000000000008A
:104E2800000000000000000000000000000000007A
:104E3800000000000000000000000000000000006A
:104E4800000000000000000000000000000000005A
:104E5800000000000000000000000000000000004A
:104E6800000000000000000000000000000000003A
:104E7800000000000000000000000000000000002A
:104E8800000000000000000000000000000000001A
:104E9800000000000000000000000000000000000A
:104EA80000000000000000000000000000000000FA
:104EB80000000000000000000000000000000000EA
:104EC80000000000000000000000000000000000DA
:104ED80000000000000000000000000000000000CA
:104EE80000000000000000000000000000000000BA
:104EF80000000000000000000000000000000000AA
:104F08000000000000000000000000000000000099
:104F18000000000000000000EF7DFFFFFFFFFFFF23
:104F2800FFFFFFFFFFFFFFFFFFFFFFFFFFFFFFFF89
:104F3800EF7D00000000000000000000EF7DFFFF93
:104F4800FFFFFFFFFFFFFFFFFFFFFFFFFFFFFFFF69
:104F5800FFFFFFFFEF7D00000000000000000000E1
:104F680000000000000000000000E71CFFFFE71C35
:104F78000000000000000000000000000000000029
:104F88000000000000000000000000000000E71C16
:104F9800FFFFE71C00000000000000000000000008
:104FA80000000000000000000000000000000000F9
:104FB8000000E71CFFFFE71C0000000000000000E5
:104FC80000000000000000000000000000000000D9
:104FD800000000000000E71CFFFFE71C00000000C5
:104FE80000000000000000000000000000000000B9
:104FF80000000000000000000000E71CFFFFE71CA5
:105008000000000000000000000000000000000098
:105018000000000000000000000000000000E71C85
:10502800FFFFE71C00000000000000000000000077
:105038000000000000000000000000000000000068
:105048000000E71CFFFFE71C000000000000000054
:105058000000000000000000000000000000000048
:10506800000000000000E71CFFFFE71C0000000034
:105078000000000000000000000000000000000028
:1050880000000000000000000000E71CFFFFE71C14
:105098000000000000000000000000000000000008
:1050A8000000000000000000000000000000E71CF5
:1050B800FFFFE71C000000000000000000000000E7
:1050C80000000000000000000000000000000000D8
:1050D8000000E71CFFFFE71C0000000000000000C4
:1050E80000000000000000000000000000000000B8
:1050F800000000000000E71CFFFFE71C00000000A4
:105108000000000000000000000000000000000097
:1051180000000000000000000000E71CFFFFE71C83
:105128000000000000000000000000000000000077
:105138000000000000000000000000000000E71C64
:10514800FFFFE71C00000000000000000000000056
:105158000000000000000000000000000000000047
:105168000000E71CFFFFE71C000000000000000033
:105178000000000000000000000000000000000027
:10518800000000000000E71CFFFFE71C0000000013
:105198000000000000000000000000000000000007
:1051A80000000000000000000000E71CFFFFE71CF3
:1051B80000000000000000000000000000000000E7
:1051C80000000000000000000000000000000000D7
:1051D80000000000000000000000000000000000C7
:1051E80000000000000000000000000000000000B7
:1051F80000000000000000000000000000000000A7
:105208000000000000000000000000000000000096
:105218000000000000000000000000000000000086
:105228000000000000000000000000000000000076
:105238000000000000000000000000000000000066
:105248000000000000000000000000000000000056
:105258000000000000000000000000000000000046
:105268000000000000000000000000000000000036
:105278000000000000000000000000000000000026
:105288000000000000000000000000000000000016
:105298000000000000000000000000000000000006
:1052A80000000000000000000000000000000000F6
:1052B80000000000000000000000000000000000E6
:1052C800CE39FFFFFFBF0000000000000000000013
:1052D80000000000FFBFFFFFCE3900000000000003
:1052E80000000000CE39FFFFFFBF000000000000F3
:1052F8000000000000000000FFBFFFFFCE390000E3
:105308000000000000000000CE39FFFFFFBF0000D2
:10531800000000000000000000000000FFBFFFFFC9
:10532800CE3900000000000000000000CE39FFFF69
:10533800FFBF0000000000000000000000000000A7
:10534800FFBFFFFFCE390000000000000000000092
:10535800CE39FFFFFFBF0000000000000000000082
:1053680000000000FFBFFFFFCE3900000000000072
:1053780000000000CE39FFFFFFBF00000000000062
:105388000000000000000000FFBFFFFFCE39000052
:105398000000000000000000CE39FFFFFFBF000042
:1053A800000000000000000000000000FFBFFFFF39
:1053B800CE3900000000000000000000CE39FFFFD9
:1053C800FFBF000000000000000000000000000017
:1053D800FFBFFFFFCE390000000000000000000002
:1053E800CE39FFFFFFBF00000000000000000000F2
:1053F80000000000FFBFFFFFCE39000000000000E2
:1054080000000000CE39FFFFFFBF000000000000D1
:105418000000000000000000FFBFFFFFCE390000C1
:105428000000000000000000CE39FFFFFFBF0000B1
:10543800000000000000000000000000FFBFFFFFA8
:10544800CE3900000000000000000000CE39FFFF48
:10545800FFBF000000000000000000000000000086
:10546800FFBFFFFFCE390000000000000000000071
:10547800C638FFFFFFDF000000000000000000004A
:1054880000000000FFDFFFFFC6380000000000003A
:1054980000000000BDD7FFFFFFFF29250000000026
:1054A8000000000000002945FFFFFFFFBDD70000F6
:1054B80000000000000000009CF3FFFFFFFF83F0E6
:1054C800000000000000000000008410FFFFFFFF44
:1054D8009CF300000000000000000000528AFFFF5B
:1054E800FFFFD67A00000000000000000000D69AF6
:1054F800FFFFFFFF528A00000000000000000000CC
:105508000000D67AFFFFFFFFC618736E39A7736EC7
:10551800C618FFFFFFFFD67A000000000000000059
:105528000000000000004208E73CFFFFFFFFFFFF0C
:10553800FFFFFFFFFFFFFFFFE73C420800000000FE
:105548000000000000000000000000002104AD552C
:10555800E71CFFBFFFFFFFBFE71CAD55210400009C
:105568000000000000000000000000000000000033
:105578000000000000000000000000000000000023
:105588000000000000000000000000000000000013
:105598000000000000000000000000000000000003
:1055A80000000000000000000000000000000000F3
:1055B80000000000000000000000000000000000E3
:1055C80000000000000000000000000000000000D3
:1055D80000000000000000000000000000000000C3
:1055E80000000000000000000000000000000000B3
:1055F80000000000000000000000000000000000A3
:105608000000000000000000000000000000000092
:105618000000000000000000000000000000000082
:105628000000000000000000000000000000000072
:105638000000000000000000000000000000000062
:105648000000000000000000000000000000000052
:105658000000000000000000000000000000000042
:10566800000000000000BDF7FFFFFFFF738E000081
:105678000000000000000000000000004208FFFFDA
:10568800FFFFC6180000000000008C71FFFFFFFF3D
:10569800AD35000000000000000000000000000020
:1056A8008C71FFFFFFFF9CD300000000000039C78A
:1056B800FFFFFFFFCE79000000000000000000009F
:1056C80000000000BDF7FFFFFFFF4A69000000006F
:1056D80000000000E73CFFFFEF7D00000000000035
:1056E8000000000000000000E71CFFFFEF5D000065
:1056F8000000000000000000BDF7FFFFFFFF5AABED
:10570800000000000000000000003186FFFFFFFFDE
:10571800C618000000000000000000008410FFFF11
:10572800FFFFA514000000000000000000009472B4
:10573800FFFFFFFF9472000000000000000000005F
:1057480018A3FFDFFFFFD69A00000000000000004A
:105758000000C618FFFFFFFF3166000000000000D0
:10576800000000000000D6BAFFFFF79E000000000E
:10577800000000000000EF5DFFFFDEDB000000001E
:1057880000000000000000000000A514FFFFFFFF5C
:10579800738E0000000000005AABFFFFFFFFAD75DD
:1057A80000000000000000000000000000004A693E
:1057B800FFFFFFFFB5B6000000000000AD55FFFF7A
:1057C800FFFF62EC00000000000000000000000085
:1057D80000000000E73CFFFFE71C0000000000009D
:1057E800DEDBFFFFEF5D00000000000000000000AE
:1057F8000000000000000000B5B6FFFFFFFF4A49A7
:1058080000003166FFDFFFFFBDF700000000000069
:105818000000000000000000000000006B6DFFFFAA
:10582800FFFFA51400009492FFFFFFFF7BAF00006D
:105838000000000000000000000000000000000060
:105848000000EF7DFFFFDEBB0000CE79FFFFF79E73
:105858000000000000000000000000000000000040
:10586800000000000000C5F8FFFFFFDF41E8FFBFB0
:10587800FFFFC61800000000000000000000000044
:10588800000000000000000000007BCFFFFFFFFFCA
:10589800CE59FFFFFFFF7BCF000000000000000093
:1058A80000000000000000000000000000000000F0
:1058B800F79EFFFFFFFFFFFFF77E000000000000DC
:1058C80000000000000000000000000000000000D0
:1058D80000000000C638FFFFFFFFFFFFC5F800000B
:1058E80000000000000000000000000000000000B0
:1058F80000000000000000008410FFFFFFFFFFFF12
:10590800738E00000000000000000000000000008E
:10591800000000000000000000000000000000007F
:10592800000000000000000000000000000000006F
:10593800000000000000000000000000000000005F
:10594800000000000000000000000000000000004F
:10595800000000000000000000000000000000003F
:10596800000000000000000000000000000000002F
:10597800000000000000000000000000000000001F
:10598800000000000000000000000000000000000F
:1059980000000000000000000000000000000000FF
:1059A80000000000000000000000000000000000EF
:1059B80000000000000000000000000000000000DF
:1059C80000000000000000000000000000000000CF
:1059D80000000000000000000000000000000000BF
:1059E80000000000000000000000000000000000AF
:1059F800000000000000000000000000000000009F
:105A080000000000000000000000000000003166F7
:105A1800FFFFFFFFA53400000000000000000000A9
:105A280000000000A534FFFFFFFF2925000000004B
:105A380000000000FFFFFFFFAD5500000000000060
:105A48000000000000000000AD55FFFFFFFF000050
:105A58000000000000000000FFDFFFFFAD75000040
:105A6800000000000000000000000000AD75FFFF0E
:105A7800FFDF00000000000000000000FFBFFFFF84
:105A8800B5960000000000000000000000000000C3
:105A9800B596FFFFF79E0000000000000000000020
:105AA800F79EFFFFB5B600000000000000000000F0
:105AB80000000000B5B6FFFFF77E00000000000000
:105AC80000000000EF5DFFFFBDB700000000000010
:105AD8000000000000000000BDD7FFFFEF3D000000
