:1000000000000120450000004900000049000000F8
:1000100049000000490000004900000049000000BC
:1000200049000000490000004900000049000000AC
:10003000490000004900000049000000490000009C
:040040004900000073
:1000440000F002B8FEE700BF2DE9FF47674C664D9C
:100054006749684A684B2046009500F039F99F20AB
:10006400AB21039000200290204600F0F3F963488E
:1000740000F06AF9A068624F0422386003A92046A0
:1000840000F010FA02A92046042200F01BFA5E4890
:100094005C490122425001680029FCD0A1685B4AF6
:1000A4001160002101609DF809000B2840F0868052
:1000B4009DF80A00402840F0828055489146554AF0
:1000C400574C4D4B01681160534A01681160534904
:1000D400484A0068086046492046009500F0F8F850
:1000E4005048514EB047514D286838605048B04789
:1000F4002868C9F8000047F66C30B0474D4DB84643
:100104000121286838604C4F2046B8474B48B04717
:100114002868112100F0F4F949488246B04728685C
:100124003A2100F0EDF92868552100F0EDF9504628
:10013400B0472868362100F0E3F92868002100263A
:1001440000F0E2F90020F02100F014F9F02000F0B2
:100154003BF92868132100F0D3F92868212100F025
:10016400CFF900F057F92868292100F0C9F9286867
:10017400332100F0C5F92868002100F0C5F92046B4
:100184000021B84720460121B84720464021B847FE
:1001940020460021B84720460021B84700201D21F1
:1001A40000F04EF9274FB6F5E16F09D000F0B0F931
:1001B4002046294600F04EF90136F4E7FEE7FEE753
:1001C4001E203B2100F03CF91F4F154C0026B6F5CC
:1001D400E16F08BFBDE8FF8700F09AF92046294681
:1001E40000F038F90136F2E76421000040210000F4
:1001F400642100005821000060210000F00EF1008D
:100204000C050050F8FEFFFF1831004008050050AF
:100214005821000068070050480700503807005074
:100224004C2100008C0D0C004D03000068210000DF
:10023400AA9D03005C21000059040000A4282400A6
:100244001C690200200500003013000019481E4BF1
:1002540019491C4A00240325012600689C461B4BAF
:100264000860164816499E4613686746CCF8003065
:10027400C1F84041C1F80855C1F81045C1F840051E
:10028400CE600E60D1F84031002BFBD01368774666
:10029400CEF80030C1F84041C1F80855C1F8104506
:1002A400C1F84005CE600E60D1F84031002BFBD080
:1002B400DAE700BF58210000440700500024F4008E
:1002C400008000406C210000080500500C0500501F
:1002D400B0B51A4D44682D682560194D84682C60AA
:1002E400184D84682C6004680968C4F8081501680E
:1002F4001268C1F80C2501681A68C1F810254FF07E
:1003040000420168C1F82425049A01681268C1F802
:10031400442500220168C1F804210168C1F81021B4
:100324000168C1F818210168C1F820210168C1F8E9
:100334004C2107210068C0F80015B0BD5821000009
:10034400080500500C050050094900220323C1F898
:100354004021C1F80835C1F81025C1F84005012035
:10036400C8600860D1F840010028FBD0704700BF86
:1003740000800040FEB5104F0C4605460F49104E54
:100384003868086030462A2100F064F838680D495E
:10039400086000208DF80B408DF8095069468DF8EF
:1003A4000A008DF808000420019002A8009030464D
:1003B40000F097F8FEBD00BF5C2100000C05005062
:1003C4004C210000080500507FB50E4E04460E492E
:1003D4000E4D3068086028462B2100F03BF8306849
:1003E4000B49086000208DF80F408DF80E00ADF821
:1003F4000C000420029003A8019001A9284600F0F3
:1004040070F87FBD5C2100000C0500504C210000F9
:100414000805005010B5064C0649206808600648D7
:100424002C2100F017F820680449086010BD00BFB3
:100434005C2100000C0500504C2100000805005010
:1004440080B5FFF797FF3B20FFF7BEFFBDE8804074
:10045400E0E700BF7CB505460446104A012655F87E
:10046400080F10608DF807100DF1070120460122D6
:1004740000F018F820460021002200F023F820683C
:1004840006612068D0F818110029FBD028680449B7
:10049400086000212068C0F818117CBD0C050050CC
:1004A4000805005010B503680024D2B2C3F85045C3
:1004B4000368C3F848250268C2F844150068C0F808
:1004C400184110BD0368C3F83415D1B20268C2F8EC
:1004D400381500220168C1F840250068C0F81821C9
:1004E4007047F8B54E680C4605460027BE4208BF63
:1004F400F8BD2068C15D2846FFF7ACFF0137F5E77A
:10050400C8F8000020463847C9F80000204638479C
:1005140037F816502046290A9CE7D4D400F800F88E
:1005240000F800F800F800F800F800F800F800F807
:1005340000F800F800F800F800F800F800F800F8F7
:1005440000F800F800F800F800F800F800F800F8E7
:1005540000F800F800F800F800F800F800F800F8D7
:1005640000F800F800F800F800F800F800F800F8C7
:1005740000F800F800F800F800F800F800F800F8B7
:1005840000F800F800F800F800F800F800F800F8A7
:1005940000F800F800F800F800F800F800F800F897
:1005A40000F800F800F800F800F800F800F800F887
:1005B40000F800F800F800F800F800F800F800F877
:1005C40000F800F800F800F800F800F800F800F867
:1005D40000F800F800F800F800F800F800F800F857
:1005E40000F800F800F800F800F800F800F800F847
:1005F40000F800F800F800F800F800F800F800F837
:1006040000F800F800F800F800F800F800F800F826
:1006140000F800F800F800F800F800F800F800F816
:1006240000F800F800F800F800F800F800F800F806
:1006340000F800F800F800F800F800F800F800F8F6
:1006440000F800F800F800F800F800F800F800F8E6
:1006540000F800F800F800F800F800F800F800F8D6
:1006640000F800F800F800F800F800F800F800F8C6
:1006740000F800F800F800F800F800F800F800F8B6
:1006840000F800F800F800F800F800F800F800F8A6
:1006940000F800F800F800F800F800F800F800F896
:1006A40000F800F800F800F800F800F800F800F886
:1006B40000F800F800F800F800F800F800F800F876
:1006C40000F800F800F800F800F800F800F800F866
:1006D40000F800F800F800F800F800F800F800F856
:1006E40000F800F800F800F800F800F800F800F846
:1006F40000F800F800F800F800F800F800F800F836
:1007040000F800F800F800F800F800E000C000A0CD
:10071400007800580038002800500070009800C08D
:1007240000E800F800F800F800F800F800F800F815
:1007340000F800F800F800F800F800F800F800F0FD
:1007440000C000800028000000000000000000003D
:100754000000000000000000000000000000008015
:1007640000D800F800F800F800F800F800F800F8E5
:1007740000F800F800F800F800F80000000000009D
:100784000000000000000000000000000000000065
:10079400000000000000000000000000000000A0B5
:1007A40000F800F800F800F800F800F800F800F885
:1007B40000F800F800F8000000000000000000004D
:1007C4000000000000000000000000000000000025
:1007D400000000000000000000000000007800F8A5
:1007E40000F800F800F800F800F800F800F800F845
:1007F40000F800000000000000000028008800B895
:1008040000E000F000F800F800F800E000B0003864
:1008140000000000000000000000008800F800F85C
:1008240000F800F800F800F800F800F800F80000FC
:100834000000007800C800F800F800F800F800F89C
:1008440000F800F800F800F800F800F8008800004C
:10085400000000000000000000D000F800F800F8DC
:1008640000F800F800F800F800F8009000E000F844
:1008740000F800F800F800F800F800F800F800F8B4
:1008840000F800F800F800F800F80080000000000C
:1008940000000000006000F800F800F800F800F81C
:1008A40000F800F800F800F800F800F800F800F884
:1008B40000F800F800F800F800F800F800F800F874
:1008C40000F800F800F800F000300000000000001C
:1008D400000000F000F800F800F800F800F800F854
:1008E40000F800F800F800F800F800F800F800F844
:1008F40000F800F800F800F800F800F800F800F834
:1009040000F800F80098000000000000000000C893
:1009140000F800F800F800F800F800F800F800F813
:1009240000F800F800F800F800F800F800F800F803
:1009340000F800F800F800F800F800F800F800F8F3
:1009440000C8000000000000000000B800F800F833
:1009540000F800F800F800F800F800F800F800F8D3
:1009640000F800F800F800F800F800F800F800F8C3
:1009740000F800F800F800F800F800F800D00000D3
:1009840000000000000000B000F800F800F800F8D3
:1009940000F800F800F800F800F800F800F800F893
:1009A40000F800F800F800F800F800F800F800F883
:1009B40000F800F800F800F800C000000000000093
:1009C400000000C000F800F800F800F800F800F893
:1009D40000F800F800F800F800F800F800F800F853
:1009E40000F800F800F800F800F800F800F800F843
:1009F40000F800F800A0000000000000000000D093
:100A040000F800F800F800F800F800F800F800F822
:100A140000F800F800F800F800F800F800F800F812
:100A240000F800F800F800F800F800F800F800F802
:100A34000040000000000000000000F800F800F88A
:100A440000F800F800F800F800F800F800F800F8E2
:100A540000F800F800F800F800F800F800F800F8D2
:100A640000F800F800F800F800F800C800000000E2
:100A740000000000007800F800F800F800F800F822
:100A840000F800F800F800F800F800F800F800F8A2
:100A940000F800F800F800F800F800F800F800F892
:100AA40000F800F800F80048000000000000000012
:100AB40000D000F800F800F800F800F800F800F89A
:100AC40000F800F800F800F800F800F800F800F862
:100AD40000F800F800F800F800F800F800F800F852
:100AE40000900000000000000000008000F800F802
:100AF40000F800F800F800F800F800F800F800F832
:100B040000F800F800F800F800F800F800F800F821
:100B140000F800F800F800F800F800C00000000039
:100B240000000000003000F000F800F800F800F8C1
:100B340000F800F800F800F800F800F800F800F8F1
:100B440000F800F800F800F800F800F800F800F8E1
:100B540000F800F800D800100000000000000000B9
:100B640000C800F800F800F800F800F800F800F8F1
:100B740000F800F800F800F800F800F800F800F8B1
:100B840000F800F800F800F800F800F800F800E0B9
:100B94000030000000000000000000A000F800F891
:100BA40000F800F800F800F800F800F800F800F881
:100BB40000F800F800F800F800F800F800F800F871
:100BC40000F800F800F800F800E800400000000019
:100BD40000000000009800F800F800F800F800F8A1
:100BE40000F800F800F800F800F800F800F800F841
:100BF40000F800F800F800F800F800F800F800F831
:100C040000F800E800480000000000000000008830
:100C140000F800F800F800F800F800F800F800F810
:100C240000F800F800F800F800F800F800F800F800
:100C340000F800F800F800F800F800F800F00050A0
:100C44000000000000000000008800F800F800F830
:100C540000F800F800F800F800F800F800F800F8D0
:100C640000F800F800F800F800F800F800F800F8C0
:100C740000F800F800F800F0005800000000000040
:100C84000000008000F800F800F800F800F800F810
:100C940000F800F800F800F800F800F800F800F890
:100CA40000F800F800F800F800F800F800F800F880
:100CB40000F000580000000000000000007800F878
:100CC40000F800F800F800F800F800F800F800F860
:100CD40000F800F800F800F800F800F800F800F850
:100CE40000F800F800F800F800F800F000600000D8
:100CF400000000000000007000F800F800F800F8A0
:100D040000F800F800F800F800F800F800F800F81F
:100D140000F800F800F800F800F800F800F800F80F
:100D240000F800F800F80060000000000000000077
:100D3400007000F800F800F800F800F800F800F877
:100D440000F800F800F800F800F800F800F800F8DF
:100D540000F800F800F800F800F800F800F800F8CF
:100D640000600000000000000000006800F800F8C7
:100D740000F800F800F800F800F800F800F800F8AF
:100D840000F800F800F800F800F800F800F800F89F
:100D940000F800F800F800F800F80068000000000F
:100DA40000000000006800F800F800F800F800F8FF
:100DB40000F800F800F800F800F800F800F800F86F
:100DC40000F800F800F800F800F800F800F800F85F
:100DD40000F800F800680000000000000000006057
:100DE40000F800F800F800F800F800F800F800F83F
:100DF40000F800F800F800F800F800F800F800F82F
:100E040000F800F800F800F800F800F800F80070A6
:100E14000000000000000000005800F000F800F896
:100E240000F800F800F800F800F800F800F800F8FE
:100E340000F800F800F800F800F800F800F800F8EE
:100E440000F800F800F800F8007800000000000046
:100E54000000005800F000F800F800F800F800F86E
:100E640000F800F800F800F800F800F800F800F8BE
:100E740000F800F800F800F800F800F800F800F8AE
:100E840000F800780000000000000000005000F0AE
:100E940000F800F800F800F800F800F800F800F88E
:100EA40000F800F800F800F800F800F800F800F87E
:100EB40000F800F800F800F800F800F800D8000086
:100EC400000000000000000000000000000000001E
:100ED400000000000000000000000000000000000E
:100EE40000000000000000000000007800F800F896
:100EF40000F800F800F800F800D800000000000036
:100F040000000000000000000000000000000000DD
:100F140000000000000000000000000000000000CD
:100F2400000000000000007800F800F800F800F865
:100F340000F800F800D800000000000000000000E5
:100F4400000000000000000000000000000000009D
:100F5400000000000000000000000000000000008D
:100F64000000007800F800F800F800F800F800F835
:100F740000D8000000000000000000000000000095
:100F8400000000000000000000000000000000005D
:100F940000000000000000000000000000000078D5
:100FA40000F800F800F800F800F800F800F800F87D
:100FB40000F800F800F800F800F800F800F800F86D
:100FC40000F800F800F800F800F800F800F800F85D
:100FD40000F800F800F800F800F800F800F800F84D
:1015640000F800F800F800F800880000000000000F
:1015740000000000007800F800F800F800F800F817
:1015840000F800F800F800F800F800F800F800F897
:1015940000F800F800F800F800F800F800F800F887
:1015A40000F800C800000000000000000000000077
:1015B400007800F800F800F800F800F800F800F8E7
:1015C40000F800F800F800F800F800F800F800F857
:1015D40000F800F800F800F800F800F800F000380F
:1015E400000000000000000000000000007800F887
:1015F40000F800F800F800F800F800F800F800F827
:1016040000F800F800F800F800F800F800F800F816
:1016140000F800F800F800F8008000000000000066
:101624000000000000000000007800F800F800F856
:1016340000F800F800F800F800F800F800F800F8E6
:1016440000F800F800F800F800F800F800F800F8D6
:1016540000F800C80000000000000088000000003E
:1016640000000000007800F800F800F800F800F826
:1016740000F800F800F800F800F800F800F800F8A6
:1016840000F800F800F800F800F800F800F0003066
:1016940000000000005000E800000000000000000E
:1016A400007800F800F800F800F800F800F800F8F6
:1016B40000F800F800F800F800F800F800F800F866
:1016C40000F800F800F800F80080000000000000B6
:1016D40000D800F80000000000000000007800F8C6
:1016E40000F800F800F800F800F800F800F800F836
:1016F40000F800F800F800F800F800F800F800F826
:1017040000F800C0000000000000009800F800F895
:101714000000000000000000007800F800F800F865
:1017240000F800F800F800F800F800F800F800F8F5
:1017340000F800F800F800F800F800F800F00028BD
:1017440000000000004800F800F800F80000000065
:1017540000000000007800F800F800F800F800F835
:1017640000F800F800F800F800F800F800F800F8B5
:1017740000F800F800F800F800780000000000000D
:1017840000D000F800F800F800000000000000009D
:10179400007800F800F800F800F800F800F800F805
:1017A40000F800F800F800F800F800F800F800F875
:1017B40000F800B8000000000000009800F800F8ED
:1017C40000F800F80000000000000000007800F8B5
:1017D40000F800F800F800F800F800F800F800F845
:1017E40000F800F800F800F800F800F800E8002815
:1017F40000000000004800F800F800F800F800F8C5
:101804000000000000000000007800F800F800F874
:1018140000F800F800F800F800F800F800F800F804
:1018240000F800F800F800F8007000000000000064
:1018340000D000F800F800F800F800F800000000FC
:1018440000000000007800F800F800F800F800F844
:1018540000F800F800F800F800F800F800F800F8C4
:1018640000F800B0000000000000009000F800F84C
:1018740000F800F800F800F8000000000000000084
:10188400007800F800F800F800F800F800F800F814
:1018940000F800F800F800F800F800F800E8001874
:1018A40000000000004000F800F800F800F800F81C
:1018B40000F800F80000000000000000007800F8C4
:1018C40000F800F800F800F800F800F800F800F854
:1018D40000F800F800F800F80068000000000000BC
:1018E40000D000F800F800F800F800F800F800F85C
:1018F4000000000000000000007800F800F800F884
:1019040000F800F800F800F800F800F800F800F813
:1019140000F800B0000000000000008800F800F8A3
:1019240000F800F800F800F800F800F800000000E3
:1019340000000000007800F800F800F800F800F853
:1019440000F800F800F800F800F800F800E00010D3
:1019540000000000004000F800F800F800F800F86B
:1019640000F800F800F800F8000000000000000093
:10197400007800F800F800F800F800F800F800F823
:1019840000F800F800F800F8006000000000000013
:1019940000C800F800F800F800F800F800F800F8B3
:1019A40000F800F80000000000000000007800F8D3
:1019B40000F800F800F800F800F800F800F800F863
:1019C40000F800A8000000000000008800F800F8FB
:1019D40000F800F800F800F800F800F800F800F843
:1019E4000000000000000000007800F800F800F893
:1019F40000F800F800F800F800F800F800E0000033
:101A040000000000003800F000F800F800F800F8CA
:101A140000F800F800F800F800F800F800000000F2
:101A240000000000007800F800F800F800F800F862
:101A340000F800F800F800F800580000000000006A
:101A440000C800F800F800F800F800F800F800F802
:101A540000F800F800F800F80000000000000000A2
:101A6400007800F800F800F800F800F800F800F832
:101A740000F800B8000000000000008000F800F842
:101A840000F800F800F800F800F800F800F800F892
:101A940000F800F80000000000000000007800F8E2
:101AA40000F800F800F800F800F800F800F800B0BA
:101AB4000000000000000000000000000000000022
:101AC4000000000000000000000000000000000012
:101AD4000000000000000000000000000000000002
:101AE4000000000000F800F800F800B0000000005A
:101AF40000000000000000000000000000000000E2
:101B040000000000000000000000000000000000D1
:101B140000000000000000000000000000000000C1
:101B240000F800F800F800B0000000000000000019
:101B340000000000000000000000000000000000A1
:101B44000000000000000000000000000000000091
:101B540000000000000000000000000000F800F891
:101B640000F800B0000000000000000000000000C9
:101B74000000000000000000000000000000000061
:101B84000000000000000000000000000000000051
:101B9400000000000000000000F800F800F800F861
:101BA40000F800F800F800F800F800F800F800F871
:101BB40000F800F800F800F800F800F800F800F861
:101BC4000000000000000000007800F800F800F8B1
:101BD40000F800F800F800F800F800F800F800F841
:101BE40000F800F800F800F800F800F800F800F831
:101BF40000F800F800F800F800F800F80000000011
:101C040000000000007800F800F800F800F800F880
:101C140000F800F800F800F800F800F800F800F800
:101C240000F800F800F800F800F800F800F800F8F0
:101C340000F800F800F800F80000000000000000C0
:101C4400007800F800F800F800F800F800F800F850
:101C540000F800F800F800F800F800F800F800F8C0
:101C640000F800F800F800F800F800F800F800F8B0
:101C740000F800F80000000000000000007800F800
:101C840000F800F800F800F800F800F800F800F890
:101C940000F800F800F800F800F800F800F800F880
:101CA40000F800F800F800F800F800F800F800F870
:101CB4000000000000000000007800F800F800F8C0
:101CC40000F800F800F800F800F800F800F800F850
:101CD40000F800F800F800F800F800F800F800F840
:101CE40000F800F800F800F800F800F80000000020
:101CF40000000000007800F800F800F800F800F890
:101D040000F800F800F800F800F800F800F800F80F
:101D140000F800F800F800F800F800F800F800F8FF
:101D240000F800F800F800F80000000000000000CF
:101D3400007800F800F800F800F800F800F800F85F
:101D440000F800F800F800F800F800F800F800F8CF
:101D540000F800F800F800F800F800F800F800F8BF
:101D640000F800F80000000000000000007800F80F
:101D740000F800F800F800F800F800F800F800F89F
:101D840000F800F800F800F800F800F800F800F88F
:101D940000F800F800F800F800F800F800F800F87F
:101DA4000000000000000000007800F800F800F8CF
:101DB40000F800F800F800F800F800F800F800F85F
:101DC40000F800F800F800F800F800F800F800F84F
:101DD40000F800F800F800F800F800F800F800F83F
:101DE40000F800F800F800F800F800F800F800F82F
:1021340000F800F800F800F800F800F8003000405B
:1021440014070050200000000030004064070050D5
:10215400000000020300000000000400040000006E
:0C21640002000000000000040000020067
:10217000D4DEFF7F01000000D0DEFF7F0100000001
:10218000CCDEFF7F01000000C8E0FF7F01000000FF
:1021900044E1FF7F01000000B4E1FF7F0100000087
:1021A000D8E1FF7F0100000024E2FF7F0100000072
:1021B00068E2FF7F010000008CE2FF7F0100000069
:1021C00098E2FF7F01000000E0E2FF7F01000000D5
:1021D000F8E2FF7F010000000EE3FF7F0100000036
:1021E00024E3FF7F0100000024E3FF7F01000000E3
:1021F00024E3FF7F0100000026E3FF7F01000000D1
:00000001FF
